:100000000C948C010C94BD010C94BD010C94BD01A9
:100010000C94BD010C94BD010C94BD010C94BD0168
:100020000C94BD010C94BD010C94BD010C94BD0158
:100030000C94BD010C94BD010C94BD010C94BD0148
:100040000C94BD010C94BD010C94BD010C94BD0138
:100050000C94E4080C94BD010C94BD010C940E2D7D
:100060000C94BD010C9439310C946F310C94BD018A
:100070000C94BD010C94B9080C94BD010C94BD0105
:100080000C94BD010C94BD010C94BD010C94ED04C5
:100090000C94BD010C94BD010C94BD010C94BC03E7
:1000A0000C94BD010C94BD010C94BD010C94BD01D8
:1000B0000C94BD010C94BD010C94BD010C94BD01C8
:1000C0000C94BD010C94BD010C94BD010C94BD01B8
:1000D0000C94BD010C94BD010C94BD010C94BD01A8
:1000E0000C94BD01241E4C1E691E861EC91EAB1E2B
:1000F000E71E101F461F2B1F821F5E1F5E20392028
:100100007D201B21B720A8216E21411EFC211E222B
:1001100039225A22051F69227E229A22A722D4223E
:10012000E322392E3E2E432E4D2E572ED02E612EF9
:10013000692E712E7B2E852E8F2E9E2EA82ED02ED0
:10014000B22EBC2EC62EF22EF52EE42EE82EEE2E6A
:100150002C2FF92EFD2E032F072F0B2F112F152FCC
:10016000192F2C2F1F2F232F272F08000000BE929E
:100170002449123EABAAAA2ABECDCCCC4C3E0000EC
:100180000080BEABAAAAAA3E00000000BF0000008B
:10019000803F0000000000084178D3BB4387D113A3
:1001A0003D190E3CC3BD4282AD2B3E68EC8276BE4B
:1001B000D98FE1A93E4C80EFFFBE01C4FF7F3F0015
:1001C0000000000007634236B79BD8A71A3968566B
:1001D00018AEBAAB558C1D3CB7CC5763BD6DEDFD69
:1001E000753EF6177231BF000000803F00000A0B19
:1001F00002090C0D0E0807030401000000000000B6
:1002000000000000000000000000000000000000EE
:1002100000000000000000001211100000000000AB
:1002200000000000000000000000000000000000CE
:1002300000000102102020080810204010204080FB
:10024000020102010804020101020408102040809A
:100250008040201008040201800402018040201028
:100260000804020108040201010204081020408071
:10027000010204081020408005050505070508084F
:100280000808020202020A0A080804040404010120
:100290000101010101010303030303030303040735
:1002A00007070C0C0C0C0C0C0C0C020202020606CC
:1002B0000606060606060B0B0B0B0B0B0B0B0000C2
:1002C00020002300260029002C002F00320000010E
:1002D000000003010601090100002200250028009A
:1002E0002B002E003100340002010000050108013E
:1002F0000B0100002100240027002A002D003000FF
:10030000330001010000040107010A01F401420663
:10031000EE082628A331F80111241FBECFEFD1E249
:10032000DEBFCDBF00E00CBF14E0A0E0B2E0E4ED22
:10033000F8E700E00BBF02C007900D92A03BB107A9
:10034000D9F72FE0A0EBB4E001C01D92AF32B207A5
:10035000E1F713E0C6E1D3E000E006C0229701090F
:10036000FE010BBF0E94E939CC30D10780E00807BD
:10037000A9F70E9491020C94583C0C9400008091C3
:10038000060290910702019690930702809306025D
:100390000895089580EB94E00E9444238091060222
:1003A0009091070269E170E00E948F39892BD9F49E
:1003B0008091020D882389F08091030D81110BC07B
:1003C000E091B004F091B1040688F789E02D80EB4C
:1003D00094E0199502C01092030D81E090E0909393
:1003E000070280930602089580EB94E00C94090BB9
:1003F00080EB94E00C941A0B80E1809391001092B2
:10040000900085E08093D50D86E998E99093D70D0B
:100410008093D60D909397008093960085E180930A
:1004200091008FEB91E09093D40D8093D30D81E0F8
:100430008093710080EB94E00E94030F69E072E00A
:100440008EE89EE00E9432326FEF71E2605072409F
:100450004AE050E08EE89EE00E94FC326EE072E0DE
:100460008EE89EE00E94323260EB74E06050724091
:100470004AE050E08EE89EE00E94FC3265E172E0C6
:100480008EE89EE00E9432326FE27FE0605B744053
:100490004AE050E08EE89EE00E94FC326BE172E0A0
:1004A0008EE89EE00E94323260912B0F70912C0FEB
:1004B0006115710519F06F527F4002C060E070E075
:1004C0004AE050E08EE89EE00E94FC3261E272E079
:1004D0008EE89EE00E9432328DB79EB76FEF71E2D8
:1004E000681B790B4AE050E08EE89EE00E94FC32E7
:1004F00068E272E08EE89EE00E94323280912B0F1B
:1005000090912C0F6DB77EB7009719F46F527F4012
:1005100002C0681B790B4AE050E08EE89EE00C9424
:10052000FC320E94AE2D0E94C9010E94FC01C2EF64
:10053000DFE20E94CA012097E1F30E94F22FF9CF77
:10054000CF93CFB7F8948091640D811127C0EDEA65
:10055000F2E08491E7E6F2E09491E82FF0E0EE0F0C
:10056000FF1FEE50FD4FA591B4918C91892321F48A
:1005700061E085E30E94662F61E085E30E942D2FF4
:100580008CB580618CBD8CB580648CBD61E084E3EA
:100590000E942D2F61E083E30E942D2F8091640D36
:1005A0008F5F8093640DCFBFCF9108951092D20DCD
:1005B00081E08093D00D1092CF0D61E084E10E9424
:1005C000662F61E085E10E94662FE9EBF0E0808113
:1005D0008E7F808380818D7F808388E48093B800C4
:1005E00085E48093BC000895413208F043C09091A7
:1005F000D20D9111FCCF91E09093D20D2093D00DAC
:100600002FEF2093650D1092AA0D240F2093A90DB2
:100610009093D10D9091D10D880F892B8093D10D9E
:100620008091CF0D813061F41092CF0D8091D10D6A
:100630008093BB008091BC0083FDF8CF85EC01C0A6
:1006400085EE8093BC008091D20D8130E1F38091E2
:10065000AA0D841710F44091AA0D2BEA3DE0FB018E
:10066000D9018A2F821B841718F48D918193F9CFB9
:10067000842F089580E008950F93413208F04AC016
:100680009091D20D9111FCCF92E09093D20D0093F6
:10069000D00D9FEF9093650D1092AA0D4093A90D78
:1006A000FB016BEA7DE0DB019A2F961B941718F48F
:1006B00091919D93F9CF1092D10D9091D10D880F0A
:1006C000892B8093D10D8091CF0D813061F41092F0
:1006D000CF0D8091D10D8093BB008091BC0083FD34
:1006E000F8CF85EC01C085EE8093BC00222321F079
:1006F0008091D20D8230E1F38091650D8F3F61F0E2
:100700008091650D803251F08091650D803341F408
:1007100083E007C081E005C080E003C082E001C043
:1007200084E00F910895613298F42091D20D243025
:1007300089F46093870DFC0189E89DE0DC012A2F94
:10074000281B261718F421912D93F9CF80E00895E6
:1007500081E0089582E0089585ED8093BC0080914A
:10076000BC0084FDFCCF1092D20D089585EC8093DF
:10077000BC001092D20D08951F920F920FB60F92E7
:1007800011240BB60F922F933F934F935F936F9368
:100790007F938F939F93AF93BF93EF93FF9380913A
:1007A000B900887F803609F49EC078F5883209F454
:1007B0005DC090F4803109F456C038F4882309F400
:1007C000F5C0883009F44FC0F5C0883109F44EC037
:1007D000803209F45FC0EEC0803409F46AC058F476
:1007E000803309F457C0883309F0E4C08093650D65
:1007F0000E94B603DFC0803509F44FC0883509F484
:100800005DC0883409F0D6C0D3C0883909F4C4C0AB
:10081000A8F4883709F467C038F4883609F463C04F
:10082000803709F460C0C6C0883809F4B5C0803983
:1008300009F45FC0803809F0BDC05BC0803B09F49B
:1008400083C038F4803A09F466C0883A09F47CC061
:10085000B1C0803C09F4A4C0883C09F4A1C0883B25
:1008600009F487C0A7C08091D10D10C09091AA0D46
:100870008091A90D981770F5E091AA0D81E08E0F77
:100880008093AA0DF0E0E555F24F80818093BB0084
:1008900085EC83C08093650D8BC0E091AA0D81E04B
:1008A0008E0F8093AA0D8091BB00F0E0E555F24FCA
:1008B00080839091AA0D8091A90D6BC0E091AA0D43
:1008C00081E08E0F8093AA0D8091BB00F0E0E5558A
:1008D000F24F80838091D00D81116AC081E08093B6
:1008E000CF0D84EA5EC083E08093D20D1092660D36
:1008F000CFCF8091660D803208F04EC0E091660D3A
:1009000081E08E0F8093660D8091BB00F0E0E95985
:10091000F24F8083BDCF0E94B6038091660D803276
:1009200030F4E091660DF0E0E959F24F10826091E9
:10093000660D70E0E091CB0DF091CC0D87E69DE067
:1009400019951092660D36C084E08093D20D1092F6
:10095000880D1092870DE091CD0DF091CE0D199577
:100960008091870D811105C081E08093870D1092E1
:10097000890DE091880D81E08E0F8093880DF0E065
:10098000E757F24F80818093BB009091880D809152
:10099000870D981708F47CCF85E88093BC000AC0C7
:1009A00085EC8093BC001092D20D04C01092650DAE
:1009B0000E94AC03FF91EF91BF91AF919F918F91F6
:1009C0007F916F915F914F913F912F910F900BBE4F
:1009D0000F900FBE0F901F9018951F920F920FB699
:1009E0000F9211240BB60F922F933F934F935F9367
:1009F0006F937F938F939F93AF93BF93EF93FF93E7
:100A0000E091D30DF091D40D1995FF91EF91BF9125
:100A1000AF919F918F917F916F915F914F913F9196
:100A20002F910F900BBE0F900FBE0F901F90189537
:100A30008091080E90E02091090E821B9109089583
:100A40002091090E8091080E281750F4E22FF0E053
:100A5000E65FF14F808190E02F5F2093090E0895AB
:100A60008FEF9FEF0895E091090E8091080EE8172F
:100A700030F4F0E0E65FF14F808190E008958FEF71
:100A80009FEF08950895CF92DF92EF92FF920F9318
:100A90001F93CF93DF937C01CB018A012091E40D5A
:100AA000222389F0EB016B01C40ED51ECC15DD05A8
:100AB00069F06991D701ED91FC910190F081E02DF1
:100AC000C7011995F3CF642F0E949303C801DF91EA
:100AD000CF911F910F91FF90EF90DF90CF900895ED
:100AE000CF93DF931F92CDB7DEB769832091E40DDA
:100AF0002223D1F02091E50D203240F021E030E0BA
:100B0000FC013383228380E090E015C08091E60DE4
:100B1000E82FF0E0E951F24F998190838F5F809345
:100B2000E60D8093E50D05C061E0CE0101960E94BF
:100B3000930381E090E00F90DF91CF910895FC0145
:100B40001382128248EE53E060E070E044835583E4
:100B50006683778389E392E091838083089510927E
:100B6000090E1092080E1092E60D1092E50D0C94ED
:100B7000D60281E08093E40D6093070E1092E60D9B
:100B80001092E50D08950C94B9050F93062F21E0FE
:100B90004091E50D67EE7DE08091070E0E943C03D9
:100BA0001092E60D1092E50D1092E40D0F9108954C
:100BB0008F929F92AF92BF92CF92DF92EF92FF926D
:100BC0000F931F93CF93DF93EC01F62ED42E4801A1
:100BD0005901EE2019F10E94B9051E2D143008F0BC
:100BE00013E01150B8F0E881F98128E0129FB001BC
:100BF0001124A501940104C0569547953795279572
:100C00006A95D2F7CA01B9010190F081E02DCE01B9
:100C10001995E7CF60E0CE010E94C5054D2D413208
:100C200008F040E22C2D6AE07EE08F2D0E94F40255
:100C30001092090E8093080EDF91CF911F910F91B2
:100C4000FF90EF90DF90CF90BF90AF909F908F90EC
:100C50000895CF92EF920F931F93C22EE12C00E0E4
:100C600010E098010E94D8051F910F91EF90CF904E
:100C7000089521E00C94290621E00C94290661E0F6
:100C80000C94C50588ED9DE00C949F05ECE7F0E021
:100C900090819F739083208130E4839FC001112451
:100CA000282B20830895EAE7F0E09081987F9083D5
:100CB0009081982B9083089580917A00877090E0BE
:100CC0000895E1E8F0E08081887F808308950E94A4
:100CD00061061092850010928400E1E8F0E08081C6
:100CE00090912A0E892B80830895882321F080918A
:100CF0007C00806203C080917C008F7D80937C00AB
:100D00000895EBE7F0E09081987F90839081982B95
:100D100090830895CF92DF92EF92FF92CF936B0171
:100D20007C0180E18093810010928000A7019601F0
:100D300060E074E284E799E40E94F93520E030E055
:100D400040E051E40E94CD370E946636611571057E
:100D500021E08207910528F421E020932A0ECB019F
:100D60004CC06115710528E08207910568F422E006
:100D700020932A0EDC01CB0153E0B695A7959795F9
:100D800087955A95D1F739C06115710520E482071E
:100D9000910568F423E020932A0EDC01CB0146E0A4
:100DA000B695A795979587954A95D1F726C0611571
:100DB0007105810521E0920740F424E020932A0E7A
:100DC000BB27A92F982F872F18C0611571058105A2
:100DD00024E0920768F425E020932A0EDC01CB0181
:100DE0002AE0B695A795979587952A95D1F705C0DE
:100DF00085E080932A0E8FEF9FEF9093870080937A
:100E00008600C1E0C0936F0086E00E948106C09317
:100E1000400E80917A00806280937A00C092330EF7
:100E2000D092340EE092350EF092360ECF91FF90B4
:100E3000EF90DF90CF9008958093400E882321F0AB
:100E400080917A00806203C080917A008F7D8093C8
:100E50007A000895EAE7F0E0808180648083089555
:100E6000CF93DF93D0917800C09179004091430EE9
:100E70005091440E2091410E3091420E421753077B
:100E8000A8F58091400E811102C00E942A078D2F83
:100E900090E09C2B20917C0025FF13C0E091470E31
:100EA000F091480E2091430E3091440EA9014F5FFE
:100EB0005F4F5093440E4093430EE20FF31F908315
:100EC00015C0E091450EF091460E2091430E3091F1
:100ED000440EA9014F5F5F4F5093440E4093430E61
:100EE000220F331FE20FF31F91838083DF91CF9195
:100EF00008951092440E1092430E8091400E0E946D
:100F00001C070E94582D60932B0E70932C0E80931B
:100F10002D0E90932E0E80917A00886C80937A002B
:100F200080917B008770863011F40C9467060895D9
:100F30008F929F92AF92BF92CF92DF92EF92FF92E9
:100F40000E94582D4B015C0180917A00877D80932F
:100F50007A0080917B008770863011F40E946106D0
:100F60006091410E7091420E80E090E00E949236B6
:100F700020E034E244E759E40E94CD376B017C0164
:100F800080912B0E90912C0EA0912D0EB0912E0ED3
:100F9000A5019401281B390B4A0B5B0BCA01B9014F
:100FA0000E9492369B01AC01C701B6010E94F9353F
:100FB00060932F0E7093300E8093310E9093320E0B
:100FC000FF90EF90DF90CF90BF90AF909F908F9069
:100FD000089580933D0E90917C00907F90937C00CB
:100FE00020917C00982F9770922B90937C008830F2
:100FF00020F080917B00886003C080917B00877F18
:1010000080937B00089591E090933C0E10923F0EE8
:1010100010923E0E10923B0E20E337E030933A0ED2
:101020002093390E0C94E90780913B0E8F5F8093DB
:101030003B0E90913C0E891302C010923B0E8091A2
:101040003B0EE0913E0EF0913F0EE80FF11D8081C6
:101050000E94E9070C9430071F93CF93DF93C09150
:101060003B0E90913C0E9230A0F081E08C0F8917DE
:1010700019F080933B0E02C010923B0E80913B0E04
:10108000E0913E0EF0913F0EE80FF11D80810E942D
:10109000E90710917800D09179004091430E50916A
:1010A000440E2091410E3091420E42175307F0F446
:1010B0008091400E811102C00E942A07612F70E0CA
:1010C0007D2B80917C0085FF02C0672F7727E09100
:1010D000370EF091380E8C2F19958091430E909118
:1010E000440E01969093440E8093430EDF91CF916E
:1010F0001F910895CF93DF93D0917C00C0917B0026
:1011000080917C00807E80937C0080917C008E6149
:1011100080937C0080917B00877F80937B0063E0DD
:1011200070E080E090E00E947B2D80917A008064E6
:1011300080937A0080917A0086FDFCCF60917800E0
:1011400080917900D0937C00C0937B0070E0782B75
:10115000882777FD8095982F0E9494369B01AC01DB
:1011600060E070E889E894E40E94F935DF91CF915E
:1011700008951F920F920FB60F9211240BB60F9283
:101180002F933F934F935F936F937F938F939F938F
:10119000AF93BF93EF93FF93E091390EF0913A0E26
:1011A0001995FF91EF91BF91AF919F918F917F9191
:1011B0006F915F914F913F912F910F900BBE0F90C8
:1011C0000FBE0F901F9018951F920F920FB60F929F
:1011D00011240F900FBE0F901F90189581E00C9472
:1011E0004606FF920F931F93CF93DF93FC0100817C
:1011F000C181D281F8948981F02EF0948F21898366
:1012000078941DE7115029F182E090E00E94A32D0F
:1012100088818023B9F3F8948A818F218A83898118
:10122000802B8983789480EE91E00E94A32DF8941E
:1012300089818F21898386E490E00E94A32D888193
:10124000802311E009F010E078948AE991E00E948F
:10125000A32D812FDF91CF911F910F91FF900895C2
:101260001F93CF93DF93FC011081C181D281912F15
:10127000909560FF12C0F8948A8189238A838981BE
:10128000812B89838AE090E00E94A32D8A81812BA3
:101290008A83789487E390E011C0F8948A81892347
:1012A0008A838981812B898381E490E00E94A32D28
:1012B0008A81812B8A83789485E090E0DF91CF91B9
:1012C0001F910C94A32D0F931F93CF93DF93FC01D9
:1012D0001081C181D281F8948981812B89838A818F
:1012E000012F009580238A8383E090E00E94A32D44
:1012F0008981802389838AE090E00E94A32DC881A0
:10130000789485E390E00E94A32D1C2381E009F4EA
:1013100080E0DF91CF911F910F910895CF92DF92DE
:10132000EF92FF920F931F93CF93DF931F92CDB74E
:10133000DEB76C01E62E08E010E0FF24F39461E0D4
:101340009F2D9E2109F460E0C60149830E94300967
:10135000FF0C0150110949810115110581F7411157
:1013600015C0F894D6011196ED91FC9112979181D8
:101370008C918095892381831196ED91FC91129730
:1013800092818C9180958923828378940F90DF914C
:10139000CF911F910F91FF90EF90DF90CF90089524
:1013A000EF92FF920F931F93CF93DF938C01C8E0CE
:1013B000D0E0F12CEE24E394C8010E94630981116E
:1013C000FE28EE0C2197C1F78F2DDF91CF911F9151
:1013D0000F91FF90EF900895CF92DF92FF920F93BD
:1013E0001F93CF93DF931F92CDB7DEB78C01F62EFC
:1013F00040E065E579830E948E09CF2C7981D72E54
:1014000088E0F82EF60161916F0140E0C8010E946A
:101410008E09FA94B9F70F90DF91CF911F910F9138
:10142000FF90DF90CF900895FC01138615861486F7
:1014300027E030E0DF01A20FB31F13961C922115A5
:10144000310519F021503109F5CF08951F93CF933D
:10145000DF93EC01162F60E0812F0E942D2F612F6A
:1014600070E0FB01EE5CFD4FE491E883FB01E8587E
:10147000FD4FE491F0E0EE0FFF1FE254FD4F859128
:1014800094919A838983CE01DF91CF911F910C941F
:10149000140AAF92BF92CF92DF92EF92FF920F9316
:1014A0001F93CF93DF931F92CDB7DEB75C01E62E7B
:1014B000D72EFC01858581115DC0C5010E94F10810
:1014C000811105C0F5011386158614866EC040E0B3
:1014D00060EFC5010E948E0901E0F12CC12C11E0E2
:1014E000C5010E946309682FC50169830E946309D1
:1014F0006981613019F48130B9F433C02F2D30E0A7
:1015000068131BC0F5018385181730F4E20FF31F31
:101510008381802349F402C0181731F060E019304C
:1015200058F4F501148708C0F501EF0DF11D838112
:10153000802B838361E009C0C12EF501E20FF31F08
:101540008381902F909589238383C5010E94300960
:101550001F5F000F11F4F39401E0F7E0FF1508F0AE
:10156000BFCF113438F0F501C386C11018C081E037
:10157000858715C0F50113861586148680E0EE2D4B
:10158000FD2D20E030E0D501A20FB31F13969C91F2
:1015900091932F5F3F4F28303105A9F706C0F50121
:1015A0008381882339F381E0EACF0F90DF91CF91D7
:1015B0001F910F91FF90EF90DF90CF90BF90AF9071
:1015C000089586E294E0089582E294E008958BE025
:1015D00094E0089581EF93E008958BEE93E00895F1
:1015E00088EB93E008958C5A974FFC011082089580
:1015F00085E492E00895DC01ED91FC910190F08189
:10160000E02D19948EBD00000DB407FEFDCF8EB500
:101610000895CF93DF93EC0161E00E94C41A80EA41
:1016200093E099838883CE5AD74F18821982DF912D
:10163000CF91089520EA33E0FC01318320830C949C
:10164000341B1F93CF93DF931F921F92CDB7DEB74A
:10165000162F60E0812F2A8349830E94662F4981DB
:10166000842F0E94020B2A81822F0E94020B61E0CC
:10167000812F0F900F90DF91CF911F910C94662FC7
:10168000643040F4242F2095462F65E30E94210BFF
:1016900080E0089585E00895AF92BF92CF92DF92E7
:1016A000EF92FF920F931F93CF93DF931F921F929E
:1016B000CDB7DEB78C01D12C7C018BEBE81A87EF1C
:1016C000F80A5801E4E9AE1AE7EFBE0A2D2D30E022
:1016D000F801EB5AF74F8081918168E270E00E9437
:1016E0008F3926173707E0F588E0C82EC982F70141
:1016F0002081318180E090E040E0B801620F731FEB
:10170000E42FF0E0DB01A80FB91FA259BF4F41E061
:1017100050E0AC91AA2311F040E050E0082E02C046
:10172000440F551F0A94E2F74E0F5F1F0196883051
:10173000910531F74A83285F3F4FF70131832083BA
:10174000F50160816D0D22E0AE014F5F5F4FC80172
:101750000E941623C394FDE0CF12C8CFD394B6CF16
:101760000F900F90DF91CF911F910F91FF90EF900D
:10177000DF90CF90BF90AF9008958F929F92AF92DD
:10178000BF92CF92DF92EF92FF920F931F93CF936E
:10179000DF9300D0CDB7DEB78C01912C7C018BEAB2
:1017A000E81A87EFF80A98E2C92ED12C5801E4E92B
:1017B000AE1AE7EFBE0A88248A94292D30E0F7019B
:1017C00080819181B6010E948F3926173707A0F4D6
:1017D00038E039838A82F5016081690D22E0AE012B
:1017E0004F5F5F4FC8013B830E9416233B813F5FE1
:1017F0003D3079F79394E1CF0F900F900F90DF91E8
:10180000CF911F910F91FF90EF90DF90CF90BF90FD
:10181000AF909F908F900895EF92FF920F931F9338
:10182000CF93DF938C017C018BE9E81A87EFF80AEC
:10183000C4E6D0E0F70141917F01BE01C8010E94DA
:10184000BF1A2196C33BD105A9F760E0C801DF911B
:10185000CF911F910F91FF90EF900C942F0C7F92DE
:101860008F929F92AF92BF92CF92DF92EF92FF92B0
:101870000F931F93CF93DF93EC01762E7C012BE91E
:10188000E21A27EFF20A04E610E04701E881F98145
:101890000088F189E02DB801CE011995F7018193F7
:1018A0007F010F5F1F4F033B110581F7F40180811A
:1018B00091819E012959374F5901FE01E759F74F90
:1018C0006F01285C3F4F7901892BE1F4F50180819C
:1018D0009181892BB9F4F60180819181892B91F452
:1018E000399780819181A281B381F90180839183AD
:1018F000A283B38381E090E0F60191838083CE01DF
:101900000E940C0CF40180819181892BB9F4F501BE
:1019100080819181892B91F4F601808191810197D9
:1019200069F480E2FE01E459F74F808382E090E0A1
:10193000F60191838083CE010E940C0CF40180811A
:101940009181892BE9F4F50180819181892BC1F482
:10195000F60180819181029799F480E090E0A0EAFD
:10196000B0E4FE01ED55F74F80839183A283B383EA
:1019700083E090E0F60191838083CE010E940C0CFD
:10198000F401808191818E010955174F892BA1F4B3
:10199000F50180819181892B79F4F6018081918113
:1019A000039751F4F801108284E090E0F6019183EE
:1019B0008083CE010E940C0CF40180819181892BDF
:1019C00079F5F50180819181892B51F5F6018081AE
:1019D0009181049729F580E090E0A8ECB2E4FE0143
:1019E000E855F74F80839183A283B38380E090E42E
:1019F000ACE9B6E4349680839183A283B38380E01C
:101A000090E0A8E4B3E4349680839183A283B38307
:101A100085E090E0F60191838083CE010E940C0C5A
:101A2000F40180819181892B69F4F5018081918194
:101A3000892B41F4F60180819181059719F4772073
:101A400009F4A8C0F40111821082F50111821082FC
:101A500085E090E0F601918380838FEFFE01E559E8
:101A6000F74F80838CE73396808380E731978083BC
:101A700080E09CE7A2E9B8E4329680839183A28358
:101A8000B38380E092E2A1EAB8E434968083918344
:101A9000A283B38380E090E0AAE7B4E43C9680831D
:101AA0009183A283B38380E090E4ACE1B6E4349602
:101AB00080839183A283B38380E090E5A3ECB7E4B5
:101AC000349680839183A283B38380E094E2A4E779
:101AD000B9E4349680839183A283B3837497108290
:101AE0001182128213823496108211821282138222
:101AF0004FEF56EE6BE57EE274964083518362832E
:101B00007383349640835183628373833496408316
:101B100051836283738334964083518362837383DA
:101B2000FB9780819181A281B381F70180839183AA
:101B3000A283B38380E2FE01E459F74F808380E003
:101B400090E0A0EAB0E4F79680839183A283B38308
:101B5000F801108280E090E0A8ECB2E4FE01E855C4
:101B6000F74F80839183A283B38380E090E4ACE954
:101B7000B6E4349680839183A283B38380E090E0BF
:101B8000A8E4B3E4349680839183A283B383CE0127
:101B90000E940C0CF701C080D180E280F38020E02D
:101BA00030E0A901C701B6010E94F535FE01EC59EC
:101BB000F74F18161CF081E0808309C0DE01A05A9F
:101BC000B74FCD92DD92ED92FC9213971082F801FF
:101BD0008081882311F042E001C041E060E0CE0145
:101BE000DF91CF911F910F91FF90EF90DF90CF90F9
:101BF000BF90AF909F908F907F900C94AF238F9267
:101C00009F92AF92BF92CF92DF92EF92FF92CF93CB
:101C1000DF93EC016A017B01FC01E05AF74F808001
:101C20009180A280B38020E030E0A901C701B60115
:101C30000E94F53587FD45C0FE01E055F74F208134
:101C4000318142815381C701B6010E948437181641
:101C5000C4F1A5019401C701B6010E94F9359B01A9
:101C6000AC010E947E3523EF34E045EB5FE30E9438
:101C7000CD3720E030E040E85EE30E94CD3720E041
:101C800030E04FE753E40E94CD374B015C0120E088
:101C900030E04FE753E40E948437181694F0FE01B9
:101CA000E85AF74FC082D182E282F382C501B401C3
:101CB0000E946636462F63E0CE010E94400B80E012
:101CC00001C088E0DF91CF91FF90EF90DF90CF903F
:101CD000BF90AF909F908F900895FC01E05AF74F0E
:101CE000408351836283738338974081518162813D
:101CF000738120E00C94FF0D5F926F927F928F9220
:101D00009F92AF92BF92CF92DF92EF92FF920F938A
:101D10001F93CF93DF931F921F92CDB7DEB76C0155
:101D2000CB01542E68E270E00E948F397B014C0198
:101D30005C0123E0B694A7942A95E1F73B01772450
:101D400086010459174FF8018081B301680F711D96
:101D500088ED9DE00E94C305B501685F7F4F88ED67
:101D60009DE00E94FB0A88ED9DE00E943F06F8017D
:101D70008081B301680F711D41E050E088ED9DE066
:101D80000E943C0688ED9DE00E941805892B41F1D8
:101D9000F82DF7708F2E88E08A0D898388ED9DE0FD
:101DA0000E94200541E050E060E070E004C0440F74
:101DB000551F661F771F8A94D2F7511002C0482B17
:101DC00002C0409548234A83F80160816E0D22E0ED
:101DD000AE014F5F5F4FC6010E94162380E001C035
:101DE00081E00F900F90DF91CF911F910F91FF90A5
:101DF000EF90DF90CF90BF90AF909F908F907F90AB
:101E00006F905F9008958F929F92AF92BF92CF9202
:101E1000DF92EF92FF920F931F93CF93DF93CDB793
:101E2000DEB762970FB6F894DEBF0FBECDBF8C0150
:101E30000E942F1A61E085E30E942D2F61E089E066
:101E40000E942D2F60E089E00E94662FF801E05A81
:101E5000F74F80E090E0A6E9B3E480839183A2830A
:101E6000B38360E0C8010E942F0C480185E9881AFD
:101E700087EF980AD4014C9160E0C8010E94400BA2
:101E80006801B2E9CB1AB7EFDB0AF601408161E0E5
:101E9000C8010E94400B5801F3E9AF1AF7EFBF0ADF
:101EA000D5014C9162E0C8010E94400B40E063E024
:101EB000C8010E94400BD801ED91FC910680F7818A
:101EC000E02DC8011995BC018EE89EE00E943232D7
:101ED0006BE472E08EE89EE00E943232D801ED9110
:101EE000FC910484F585E02DC8011995BC018EE8AC
:101EF0009EE00E943F326EE472E08EE89EE00E9417
:101F00003232D801ED91FC910284F385E02DC801B5
:101F10001995BC018EE89EE00E943F3261E672E0B6
:101F20008EE89EE00E9432327801BBE9EB1AB7EFEF
:101F3000FB0AF701608171814AE050E08EE89EE083
:101F40000E943F336AE973E08EE89EE00E943232DD
:101F5000F801E959F74F608171814AE050E08EE85D
:101F60009EE00E943F336AE973E08EE89EE00E94A3
:101F70003232F801E759F74F608171814AE050E051
:101F80008EE89EE00E94453368E772E08EE89EE0AE
:101F90000E9432324AE050E0D4016C918EE89EE01B
:101FA0000E9428336EE772E08EE89EE00E94323293
:101FB0004AE050E0F50160818EE89EE00E942833FF
:101FC0006EE872E08EE89EE00E9432324AE050E015
:101FD000D6016C918EE89EE00E942833B12CA12C92
:101FE000F1E0BF1202C084E001C082E0A81608F050
:101FF000B9C04AE06A2DCE0101960E94F6344AE04B
:102000006B2DCE010D960E94F63464E972E0CE018C
:1020100007960E94C834BE01635F7F4FCE010796CA
:102020000E944F3566E972E00E946235BE016F5F23
:102030007F4F0E944F356AEA72E00E946235BC0110
:102040008EE89EE00E942432CE0107960E945A3408
:10205000CE010D960E945A34CE0101960E945A3448
:10206000CA2CD12CB1E0F601EE0FFF1FEE0FFF1FBF
:10207000EE0DFF1DBB1629F04285538564857585DD
:1020800004C0428D538D648D758D22E030E08EE862
:102090009EE00E9448344AE06A2DCE0101960E94DB
:1020A000F6344AE06B2DCE010D960E94F63464E9B9
:1020B00072E0CE0107960E94C834BE01635F7F4F75
:1020C000CE0107960E944F356DEA72E00E9462359C
:1020D000BE016F5F7F4F0E944F356AEA72E00E9437
:1020E0006235BC018EE89EE00E942432CE01079644
:1020F0000E945A34CE010D960E945A34CE010196A8
:102100000E945A34E1E0BE1661F0F601EE0FFF1FA7
:10211000EE0FFF1FEE0DFF1D62897389848995897B
:102120000BC0F601EE0FFF1FEE0FFF1FEE0DFF1DA0
:1021300062A573A584A595A525EA34ED48E653E587
:102140000E94CD37AB01BC0122E030E08EE89EE07A
:102150000E94463462EC72E08EE89EE00E943F32BC
:10216000A3943ECFB39482E0B81239CF66EC72E00C
:102170008EE89EE00E943232F801E459F74F4AE0BF
:1021800050E060818EE89EE00E9428336BE173E0AE
:102190008EE89EE00E943232F801E156F74F40810E
:1021A00051816281738122E030E08EE89EE00E94DE
:1021B000483463EE72E08EE89EE00E943232F8010D
:1021C000ED55F74F408151816281738122E030E00B
:1021D0008EE89EE00E94483466EF72E08EE89EE052
:1021E0000E943232F801E955F74F608170E04AE011
:1021F00050E08EE89EE00E94FC326FE073E08EE8D3
:102200009EE00E943232F801EC59F74F608170E095
:102210004AE050E08EE89EE00E94FC326BE273E000
:102220008EE89EE00E943232F801E855F74F408177
:1022300051816281738122E030E08EE89EE00E944D
:10224000483463E473E08EE89EE00E943232F80185
:10225000E455F74F408151816281738122E030E083
:102260008EE89EE00E9448346BE573E08EE89EE0C5
:102270000E943232F801E055F74F4081518162816E
:10228000738122E030E08EE89EE00E94483462963E
:102290000FB6F894DEBF0FBECDBFDF91CF911F9177
:1022A0000F91FF90EF90DF90CF90BF90AF909F90F5
:1022B0008F9008958F929F92AF92BF92CF92DF92AC
:1022C000EF92FF921F93CF93DF93EC016A017B01A2
:1022D000FC01E855F74F24EA30E74DE75FE3608102
:1022E0007181828193810E94CD379B01AC01C7012E
:1022F000B6010E94843787FDAFC02EEA37E441E87B
:102300005FE3FE01E455F74F608171818281938123
:102310000E94CD379B01AC01C701B6010E94F53583
:1023200018160CF499C020E030E048E452E4C701EC
:10233000B6010E94CD374B015C0120E030E04AE756
:1023400054E40E94F53587FD87C020E233EB41E875
:102350005CE4C501B4010E94843718160CF47CC0FB
:1023600020E030EE41E854E4C501B4010E94F935A3
:102370000E948D3726EA3BE944E550E40E94CD37C0
:102380002EE83DE543E150E40E94F9350E946636AF
:10239000162F70E0665F7F4F882777FD8095982F16
:1023A0000E9494369B01AC0160E070E080E090E414
:1023B0000E94303820E030EE41E055E40E94CD37F5
:1023C000A50194010E94F9359B01AC0160E070E029
:1023D00080E095E40E947D354B015C0120E030E017
:1023E000A9010E94843720E030E040E05FE387FDF0
:1023F00005C0C501B4010E947E3504C0C501B40109
:102400000E947D350E9461365B01CB0166E09695A6
:1024100087956A95E1F71295107F182B67E188ED93
:102420009DE00E94B905612F88ED9DE00E94700536
:102430006A2D660F660F626088ED9DE00E94700550
:1024400088ED9DE00E943F06C45AD74FC882D982CA
:10245000EA82FB8280E001C088E0DF91CF911F918A
:10246000FF90EF90DF90CF90BF90AF909F908F90B4
:1024700008954F925F926F927F928F929F92AF9248
:10248000BF92CF92DF92EF92FF920F931F93CF9361
:10249000DF931F921F92CDB7DEB78C01FC01EC5A7F
:1024A000F74F81E0808348018BEA881A87EF980A0A
:1024B000F40111821082E8E2AE2EB12CE12CF12C55
:1024C000F8E16F2E77247A946801F4E9CF1AF7EFD8
:1024D000DF0A4E2C69827A82F60160816E0D22E05D
:1024E000AE014F5F5F4FC8010E941623F601608165
:1024F0006E0D21E0AE014F5F5F4FC8010E94D31DFA
:1025000089818F3F09F04BC078E1572E59821A829A
:10251000F6016081640D22E0AE014F5F5F4FC8019C
:102520000E941623F6016081640D21E0AE014F5F29
:102530005F4FC8010E94D31D8981811130C080EF97
:10254000850D89837A82F6016081640D22E0AE01F7
:102550004F5F5F4FC8010E9416235394FDE15F1245
:10256000D5CF66E873E08EE89EE00E9432324AE002
:1025700050E0B7018EE89EE00E94F43260E973E01B
:102580008EE89EE00E943F32F40120813181C50136
:1025900088972817390719F4F401B182A082FFEF58
:1025A000EF1AFF0A88E2A80EB11CE8E0EE16F1046B
:1025B00009F08FCFF401608171814AE050E08EE82C
:1025C0009EE00E943F3361E773E08EE89EE00E9448
:1025D0003F3240E050E46CE176E4C8010E945A11B9
:1025E0000F900F90DF91CF911F910F91FF90EF907F
:1025F000DF90CF90BF90AF909F908F907F906F9023
:102600005F904F9008952F923F924F925F926F92FA
:102610007F928F929F92AF92BF92CF92DF92EF9272
:10262000FF920F931F93CF93DF93CDB7DEB7A99798
:102630000FB6F894DEBF0FBECDBF2C0169872DB752
:102640003EB73BA32AA38C010D5A174F81E0D80156
:102650008C93F201EC5AF74F8081811103C0C201C3
:102660000E943912F201E459FF4F1F01F985FF3A28
:1026700009F456C278F5F63A09F499C1A8F4F23A89
:1026800009F4E6C038F4F03A09F457C0F13A09F415
:1026900068C0A5C6F201E05CF74F2985243A09F429
:1026A00052C108F457C078C13985393A09F4CAC112
:1026B00038F4373A09F497C1383A09F4A4C18FC6FF
:1026C00049854D3A09F4ECC108F00FC24A3A09F4C1
:1026D000C9C185C65985563B09F496C3A8F4523B37
:1026E00009F4D9C238F4503B09F450C2513B09F403
:1026F0009CC275C6F201E05CF74F6985643B09F442
:102700002DC308F41EC367C379857B3B09F411C64A
:1027100048F4793B09F441C608F0FCC5783B09F45C
:1027200026C65DC68985853F09F4D6C5863F09F46E
:1027300076C4843F09F053C694C3F201E05CF74FBE
:1027400080819181892B59F442E050E0B2016B5AAB
:10275000774FF3C080819181029709F489C086E0A8
:1027600037C3F201E05CF74F80819181892BB9F783
:10277000D1011C92912C92012B5A374F3B872A870B
:10278000720134E9E31A37EFF30A88248394A92C01
:10279000B12CEA85FB858081918168E270E00E941E
:1027A0008F39A616B70608F01AC608E010E0D70160
:1027B0008C91B501680F711D88ED9DE00E94C305E5
:1027C000B80188ED9DE00E94FB0A88ED9DE00E9423
:1027D0003F06F7018081B501680F711D41E050E0AF
:1027E00088ED9DE00E943C0688ED9DE00E94180562
:1027F000892B51F188ED9DE00E9420056C01612C30
:10280000712CDD24C601062C02C0959587950A948B
:10281000E2F781709927F1E08F27898341E050E04A
:10282000BE016F5F7F4FC2010E943A1B2FEF621AF9
:10283000720A38E06316710429F70F5F1F4F0D30DD
:10284000110509F0B4CF02C0D1018C9293949FCFAF
:10285000F201E05CF74F2081318175968081918192
:102860002817390709F07BCFC2010E944C0B7CC5A9
:10287000D201AB5BB74F2D913C911197F901E25911
:10288000FF4FE40DF51D808191812E5F3F4F2D9309
:102890003C93F201EB5AF74F208131818217930765
:1028A00008F078C068E270E00E948F398C016B01FB
:1028B000DD247201F4E9EF1AF7EFFF0AD7018C91DA
:1028C000B601680F711D88ED9DE00E94C305B80137
:1028D00013E0769567951A95E1F7685F7F4F88ED6D
:1028E0009DE00E94FB0A88ED9DE00E943F06F701F3
:1028F0008081B601680F711D41E050E088ED9DE0D8
:102900000E943C0688ED9DE00E941805892BC9F0C5
:1029100088ED9DE00E9420059927077002C09595DB
:1029200087950A95E2F781709927F1E08F278983CF
:1029300041E050E0BE016F5F7F4FC2010E943A1B31
:1029400013C581E045C280819181039709F007CFCB
:10295000D201AB5BB74F8D919C911197FC01E2596D
:10296000FF4FE40DF51D60817181F201E80FF91F41
:10297000E059FF4F408103968D939C93F201EB5AEF
:10298000F74F808191816817790720F4C2010E9476
:102990007C0E23C585E01CC280819181892B09F0C2
:1029A000DECED1011C9289E00E949C2FECC4F20182
:1029B000E05CF74F80819181019709F0D0CE359688
:1029C00080819181D201A80FB91FA259BF4F6C918C
:1029D000019691838083623020F489E00E94662F03
:1029E000F8C488E0FAC4F201E05CF74F808191817D
:1029F000892B09F0B4CEF101108244E050E0B2011D
:102A0000685A774FC6C4F201E05CF74F808191812C
:102A1000049709F0A4CED201AB5BB74F8D919C9186
:102A20001197FC01E259FF4FE40DF51D40815181E2
:102A30006281738104968D939C9321E0C2010E9470
:102A4000FF0DCBC4F201E05CF74F80819181892BAF
:102A500009F085CEF101108244E050E0B201645AE1
:102A6000774F97C4F201E05CF74F80819181049722
:102A700009F075CED201AB5BB74F8D919C91119748
:102A8000FC01E259FF4FE40DF51D40815181628147
:102A9000738104968D939C93C2010E945A119DC428
:102AA000F201E05CF74F80819181019709F057CEE8
:102AB000D201AB5BB74F8D919C911197F201E80F5A
:102AC000F91FE259FF4FE08101968D939C93E2300C
:102AD00008F035C1BBE1EB9FF0011124E75BF14F3A
:102AE00081818983F10110824FC4F201E05CF74FCC
:102AF00080819181029709F032CE35962081318113
:102B0000A201420F531FDA01A259BF4F8C911196B7
:102B10006C912E5F3F4F318320830E946B2358C1FD
:102B2000F201E05CF74F80819181019709F017CEA7
:102B3000359680819181D201A80FB91FA259BF4F4C
:102B40002C91019691838083223008F0F8C0D10146
:102B50001C92BBE12B9FF0011124E75BF14FE18157
:102B6000C2018B59974FF0E0EE0FFF1FEE0FFF1FD2
:102B7000E80FF91F213029F082859385A485B5855A
:102B800047C2828D938DA48DB58D42C2F201E05C67
:102B9000F74F80819181059709F0E1CD359620812D
:102BA0003181D201A20FB31FA259BF4F8C91B9013D
:102BB0006F5F7F4F71836083D1011C928823E1F0A6
:102BC000813009F0BCC04091650EDB01A259BF4FB6
:102BD000A40DB51D8D919D910D90BC91A02D2B5FE5
:102BE0003F4F31832083F20134E0439FE00DF11D1C
:102BF0001124E158F74F9BC040914A0ED901A159C9
:102C0000BF4FA40DB51D8D919D910D90BC91A02D30
:102C10002B5F3F4F31832083F20124E0429FE00D80
:102C2000F11D1124E159F74F82C0F201E05CF74F2A
:102C300080819181019709F092CD359680819181B3
:102C4000D201A80FB91FA259BF4F2C9101969183B1
:102C50008083223008F073C0F10110823BE1239F92
:102C6000F0011124E75BF14FE181C2018B59974FCD
:102C7000F0E0EE0FFF1FEE0FFF1FE80FF91F2130EE
:102C800029F082899389A489B589C2C182A593A5B7
:102C9000A4A5B5A5BDC1F201E05CF74F808191818B
:102CA000059709F05CCD359620813181D201A20FC4
:102CB000B31FA259BF4F4C91C901019691838083E4
:102CC000D1011C924423D9F04130C9F54091650EE1
:102CD000D901A159BF4FA40DB51D8D919D910D90A6
:102CE000BC91A02D2B5F3F4F31832083F20134E054
:102CF000439FE00DF11D1124E157F74F18C040919B
:102D00004A0ED901A159BF4FA40DB51D8D919D91BA
:102D10000D90BC91A02D2B5F3F4F31832083F2019A
:102D200024E0429FE00DF11D1124E958F74F808304
:102D30009183A283B383C2010E940C0C50C385E02F
:102D40004CC380819181892B09F009CDF10110825A
:102D500044E050E0B201605A774F1BC380819181FB
:102D6000049709F0FCCCD201AB5BB74F8D919C91DD
:102D70001197FC01E259FF4FE40DF51DC080D18091
:102D8000E280F38004968D939C9320E030E0A901CB
:102D9000C701B6010E9484371816CCF4F201EC5931
:102DA000F74F8081882331F03497C082D182E2824C
:102DB000F382DAC2D201A156B74FCD92DD92ED92E5
:102DC000FC9213971082C2010E940C0CCDC288E0C5
:102DD000F101808304C380819181892B09F0BFCCEC
:102DE000D1011C9211E020E030E0A901F201E1568E
:102DF000F74F60817181828193810E94F5351816A9
:102E00000CF410E01983C0C2F201E05CF74F80813E
:102E10009181019709F0A3CC359680819181D201EF
:102E2000A80FB91FA259BF4F2C910196918380839F
:102E3000E65AFF4F222329F0108211821282138258
:102E40000CC0D201A05AB74F8D919D910D90BC91AD
:102E5000A02D80839183A283B383C2010E940C0CB6
:102E6000B8C2F201E05CF74F008111810A30110510
:102E700008F475CC359680819181DC01A259BF4F51
:102E8000A40DB51D2D913D914D915C912A873B87F5
:102E90004C875D879C012C5F3F4F31832083DC0191
:102EA000AE58BF4FA40DB51D6D907C90DC01AC58A1
:102EB000BF4FA40DB51D4D915D916D917C914A8BD5
:102EC0005B8B6C8B7D8BD201A80FB91FA858BF4FAD
:102ED000FC900B96918380830B30110549F070961E
:102EE000808191810B960817190711F086E075C251
:102EF000BBE46B16B1E07B0608F06EC220E030E068
:102F00004AE754E46A857B858C859D850E94F93566
:102F100020E030E44CE157E40E94CD3720E030E07F
:102F200040E855E40E94F53587FF56C2D1011C9256
:102F3000F201EB5AF74F808191810B960817190720
:102F400019F4C2010E944C0B0E94582D6E877F8796
:102F5000888B998B88248394F1FE812CAA24A394D6
:102F6000F0FEA12CF201E45AF74FC080D180E2803C
:102F7000F3800A891B892C893D89A3016A857B8599
:102F80008C859D850E942B28F1018083811127C2A9
:102F90000E94582D2E853F8548895989621B730BE5
:102FA000840B950B0E9492366B017C01B30180E08B
:102FB00090E00E94923620E030E04AE754E40E941C
:102FC000CD379B01AC01C701B6010E94F9356D8375
:102FD0007E838F83988744E050E0BE016B5F7F4F14
:102FE000C2010E943A1B44E050E060E67EE0C2016C
:102FF0000E943A1B44E050E06BE77EE0C2010E9471
:103000003A1BF201E05AF74F80819181A281B3818E
:1030100089839A83AB83BC8344E050E0B7C1F2015B
:10302000EB5AF74F20813181C9010B96759740818A
:1030300051814817590709F092CBEDB7FEB7F98FC8
:10304000E88FD1011C92F201EB5BF74F80819181F7
:10305000DC01A259BF4FA40DB51D4D915D916D913D
:103060007C914A8B5B8B6C8B7D8BAC014C5F5F4F93
:1030700051834083DC01AE58BF4FA40DB51D6D9048
:103080007C90DC01AC58BF4FA40DB51D4D915D91F6
:103090006D917C914E8F5F8F68A379A3D201A80FA9
:1030A000B91FA858BF4F1C910B96918380836DB7B1
:1030B0007EB7621B730B0FB6F8947EBF0FBE6DBF59
:1030C0008DB79EB701969B878A87DC01280F391F31
:1030D00080E090E07F01A217B307A1F0F7014081E3
:1030E0005181B201640F751F62597F4FFB016081EE
:1030F0004F5F5F4FF701518340836D93662359F310
:103100000196E9CF869D9001879D300D969D300DEB
:1031100011242B34314008F0D2C020E030E04AE7DF
:1031200054E46A897B898C899D890E94F93520E065
:1031300030E44CE157E40E94CD3720E030E040E835
:1031400055E40E94F53587FFBAC0C2010E94BD0B4D
:103150000E94582D6A8F7B8F8C8F9D8F212C312C54
:1031600092012B5A374F3DA32CA3A20144595F4F24
:103170005F874E87812F8270682F70E07FA36EA3D8
:1031800011701E8B1F8AC201845A974F99A788A776
:10319000ACA1BDA18D919C9128163906F0F5AE85A4
:1031A000BF858C91811135C0EA85FB85E20DF31D49
:1031B0008081882371F141E0B101C2010E947C0E3F
:1031C00088248394EEA1FFA11E161F060CF0812C0B
:1031D000AA24A3942E893F89121613060CF0A12C61
:1031E000A8A5B9A5CD90DD90ED90FC900E8D1F8D1A
:1031F00028A139A1A3016A897B898C899D890E94B4
:103200002B28EE85FF85808340E0B101C2010E943A
:103210007C0EFFEF2F1A3F0ABBCFEE85FF85808122
:10322000811152C00E94582D2A8D3B8D4C8D5D8D91
:10323000621B730B840B950B0E9492366B017C0111
:10324000B30180E090E00E94923620E030E04AE74F
:1032500054E40E94CD379B01AC01C701B6010E9426
:10326000F9356D837E838F83988744E050E0BE01FB
:103270006B5F7F4FC2010E943A1B44E050E060E662
:103280007EE0C2010E943A1B44E050E06BE77EE022
:10329000C2010E943A1BF201E05AF74F80819181EE
:1032A000A281B38189839A83AB83BC8344E050E0DD
:1032B000BE016F5F7F4FC2010E943A1B05C081E0D3
:1032C000F201E459FF4F8083488D598D0FB6F89471
:1032D0005EBF0FBE4DBF83C0F201E05CF74F80813F
:1032E0009181019709F03BCAD1011C9235968081EA
:1032F0009181D201A80FB91FA259BF4F2C910196FD
:103300009183808361E0211101C060E0C2010E94CD
:103310002F0C65C0F201E05CF74F80819181892B11
:1033200009F01DCAF1011082F201EE5AF74F8081B7
:103330002AC0F201E05CF74F80819181019709F08A
:103340000ECA359680819181D201A80FB91FA2596A
:10335000BF4F2C910196918380833D96222319F0D3
:1033600081E0808301C01082D1011C9238C0F2013B
:10337000E05CF74F80819181892B09F0F0C9F10160
:103380001082D8018C91898341E050E0BE016F5FCB
:103390007F4FC2010E943A1B22C0F201E05CF74F4E
:1033A00080819181019709F0DAC9359680819181F8
:1033B000D201A80FB91FA259BF4F2C91019691833A
:1033C0008083222321F081E0F801808302C0D801AC
:1033D0001C92F101108203C081E0D1018C936985B8
:1033E000C2010E94FA1DF201E459FF4F8081EAA157
:1033F000FBA10FB6F894FEBF0FBEEDBFA9960FB6A6
:10340000F894DEBF0FBECDBFDF91CF911F910F911A
:10341000FF90EF90DF90CF90BF90AF909F908F90F4
:103420007F906F905F904F903F902F9008958627E8
:10343000682F62956827062E669566956025062E8C
:10344000669560256770082E892F669507946795A5
:10345000902D862706946795902586270895CF920C
:10346000DF92EF92FF920F931F93CF93DF9300D0E1
:103470001F92CDB7DEB78C01CE0101966C019FE0A3
:10348000E92EF12CD801ED91FC910088F189E02D15
:10349000B701C8011995F60181936F01FFEFEF1A8B
:1034A000FF0A23E1E216F10469F789819A81AB8171
:1034B000BC818F3F9F4FAF4FBF4FE1F149815A8190
:1034C0006B817C8126E08EE89EE00E94D73088EDFB
:1034D0009DE00E94AF050E94A0020E947A08085950
:1034E0001F4FD8016D937D938D939C9313976BE33E
:1034F00074E08EE89EE00E943232F80140815181F2
:103500006281738122E030E08EE89EE00E944634C2
:103510006DE474E08EE89EE00F900F900F900F9096
:10352000DF91CF911F910F91FF90EF90DF90CF909F
:103530000C943F3280E092ECA1E0B0E089839A8362
:10354000AB83BC83CE0101966C018FE0E82EF12C99
:10355000D6014D916D01D801ED91FC910288F3895E
:10356000E02DB701C8011995BFEFEB1AFB0AE3E1A3
:10357000EE16F10469F7A2CFCB010C94323CCB01DB
:10358000642F0C943A3C08958F929F92AF92BF9211
:10359000CF92DF92EF92FF920F931F93CF93DF931F
:1035A0002FE634E0FC0131832083E45BF74F608336
:1035B00039971182108236961082399711821082C3
:1035C0003596118210823296118210823A961082BC
:1035D000E12CF12C00E010E0C8010E94323CA82E42
:1035E000C80107960E94323C8E2CC0E0D0E0B12C7E
:1035F000A094B094C82ED12CC094D094CE018E0D3E
:103600009F1DC697C4F4B5010C2E02C07595679531
:103610000A94E2F761709C2E980C892D0E942D2F40
:10362000B6010C2E02C0759567950A94E2F7617099
:10363000892D0E94662F2196C830D105F9F60F5FBB
:103640001F4FE8E0EE0EF11C0730110529F6DF915F
:10365000CF911F910F91FF90EF90DF90CF90BF908F
:10366000AF909F908F9008952FE634E0FC01318356
:10367000208308951F93CF93DF93FB0120E030E078
:10368000DC01A95BB74F2417350781F01191BC010C
:10369000620F731FCD91DC9111976C0F7D1FEB01B1
:1036A000C259DF4F18832F5F3F4FEDCF8D919C9113
:1036B0001197820F931F8D939C93DF91CF911F9150
:1036C0000895CF93DF93FC01E359FF4F6081DC0144
:1036D000A459BF4F67FF0EC020E8260F208322E0C9
:1036E0002C93DC01ED91FC910488F589E02DDF91AC
:1036F000CF911994FC01E05CF74F2081318121507A
:103700003109820F931FEC01C259DF4F88818C93DE
:1037100031832083DF91CF9108956F927F928F92B2
:103720009F92AF92BF92CF92DF92EF92FF920F9350
:103730001F93CF93DF93EC019C01275B374F590117
:103740006D3721F481E0F9018083AEC0F9018081F9
:103750009E012D5B374F7901882309F49EC080E2DA
:103760006827F701808191819E01245B374F4901D1
:10377000FE01EE5BF74F6F018E01005C174F009763
:1037800059F4E55DF7406083F90180818823A9F150
:103790008FEF9FEF33961EC08130910581F467FF54
:1037A00008C083E08083862F8F77F80110828183A1
:1037B00024C082E08083862F90E0F8010BC0823025
:1037C000910559F42081233041F4F80180819181E1
:1037D000860F911D9183808310C0F6012081821B8A
:1037E0009109F801208131818217930730F48C0F01
:1037F0009D1FFC01E259FF4F6083F4018081882303
:1038000069F03E01F1EB6F1AF7EF7F0AF301808157
:1038100091810E94171AF30191838083F70120811F
:1038200031812F5F3F4F31832083F4014081F601C6
:103830005081F80180819181850F911D840F911D28
:10384000840F911D2817390711F5F7011182108295
:10385000FE01EB5BF74F11821082329611821082CB
:10386000442329F0389680819181892B19F4CE0167
:103870000E94611BFE01E55BF74F8081882339F0D0
:10388000C359DF4F80589881981301C01082F50109
:103890008081882349F0108207C06E3709F061CF1C
:1038A000F70111821082F3CFDF91CF911F910F9119
:1038B000FF90EF90DF90CF90BF90AF909F908F9050
:1038C0007F906F900895FF920F931F93CF93DF9394
:1038D0001F92CDB7DEB78C01F62E88E0898369810F
:1038E0006837E8F588ED9DE00E94B90588ED9DE018
:1038F0000E943F06811130C0FF2041F041E050E0BE
:10390000BE016F5F7F4FC8010E943A1B60E574E003
:103910008EE89EE00E9432324AE050E069818EE8F3
:103920009EE00E94213364E674E08EE89EE00E94EF
:10393000323240E150E069818EE89EE00E942133FE
:1039400069E674E08EE89EE00E943F3261E070E03C
:1039500080E090E00E947B2D89818F5FBFCF0F9028
:10396000DF91CF911F910F91FF900895CF93C62FB4
:1039700083E8860F823090F46DE78EE89EE00E9427
:103980007230E0918E0EF0918F0E60E26C27019004
:10399000F081E02D8EE89EE0CF9119948EE89EE0B4
:1039A000CF910C9472308F929F92AF92BF92CF9230
:1039B000DF92EF92FF920F931F93CF93DF93EC016F
:1039C0008C017C0120ECE21A27EFF20A845B974F0E
:1039D0006C015E0193EBA91A97EFB90AF701808198
:1039E000918198012C1B3D0BF60128173907C8F46B
:1039F0008081980122593F4F4901882351F0F901F4
:103A00006081F501808191810E94171AF5019183EF
:103A10008083F4016081CE010E94B61C0F5F1F4FAE
:103A2000DDCF8081882369F08E01035B174FF80199
:103A30006081CE010E94B61CF8016181CE010E9416
:103A4000B61CF70111821082C95BD74F1982188208
:103A5000DF91CF911F910F91FF90EF90DF90CF906A
:103A6000BF90AF909F908F900895BF92CF92DF92BA
:103A7000EF92FF920F931F93CF93DF93EC01B62E3B
:103A80008C01005C174FFC01E95BF74F808191814D
:103A9000F801918380836EE78EE89EE00E94723089
:103AA0007E01F4EBEF1AF7EFFF0AF701808188231C
:103AB00081F08FEF9FEF6E01F3EBCF1AF7EFDF0A84
:103AC000F601918380836B2D0E94171AF601918372
:103AD00080836B2DCE010E94B61CF801608171813C
:103AE000F70180816038710580F4882371F17E01CF
:103AF000F3EBEF1AF7EFFF0AF701808191810E9443
:103B0000171AF7019183808320C08823B1F0706871
:103B1000672F7E01F3EBEF1AF7EFFF0AF7018081C1
:103B200091810E94171AF70191838083F8016081C7
:103B30000E94171AF70191838083F8018081918197
:103B40009068692FCE010E94B61CF8016081CE01F9
:103B5000DF91CF911F910F91FF90EF90DF90CF9069
:103B6000BF900C94B61C0F931F93CF93DF931F92BB
:103B7000CDB7DEB78C01698341E050E0BE016F5FD5
:103B80007F4F0E943A1BF801E359FF4F6081C80143
:103B90000E94351DC8010E94D31C0F90DF91CF9168
:103BA0001F910F910895FF920F931F93CF93DF936F
:103BB0008A01422F88ED9DE00E943906C0E088ED21
:103BC0009DE00E941805892B71F0FF24F394FC0EF0
:103BD000C8018C0F911DEC0188ED9DE00E9420052D
:103BE0008883CF2DECCF8C2FDF91CF911F910F9138
:103BF000FF9008956F927F928F929F92AF92BF92A3
:103C0000CF92DF92EF92FF920F931F93CF93DF93A8
:103C1000CDB7DEB769970FB6F894DEBF0FBECDBF44
:103C20008C018DB69EB6862F90E0FC01E058F1091C
:103C3000EF31F10508F0D5C4EE58FF4F9801205C34
:103C4000374F79010C94C539D9018D919C91892BFD
:103C5000F1F4D801ED91FC910280F381E02DC801CF
:103C60001995FC0101900020E9F7AF01415051097D
:103C7000481B590BD801ED91FC910280F381E02D96
:103C800062C0D9018D919C91019709F49FC386E090
:103C9000F801E459FF4F86C4F90180819181892B95
:103CA000B1F7D801ED91FC910480F581E02DC801B8
:103CB0001995FC0101900020E9F7AF01415051092D
:103CC000481B590BD801ED91FC910480F581E02D42
:103CD0003AC0F90180819181892BC9F6D801ED9113
:103CE000FC910680F781E02DC8011995FC01019037
:103CF0000020E9F7AF0141505109481B590BD80189
:103D0000ED91FC910680F781E02D1DC0F9018081C5
:103D10009181892B09F0BBCFD801ED91FC910084F2
:103D2000F185E02DC8011995FC0101900020E9F70B
:103D3000AF0141505109481B590BD801ED91FC913D
:103D40000084F185E02DC801498F588F1995498D60
:103D5000588DBC0134C4F90180819181892B09F00F
:103D600096CFD801ED91FC910284F385E02DC80136
:103D70001995FC0101900020E9F7AF01415051096C
:103D8000481B590BD801ED91FC910284F385E02D7D
:103D9000DACFF90180819181892B09F078CFD801A0
:103DA000ED91FC910484F585E02DC8011995FC0185
:103DB00001900020E9F7AF0141505109481B590B10
:103DC000D801ED91FC910484F585E02DBCCFF9017B
:103DD00080819181892B09F05ACFD801ED91FC9116
:103DE0000684F785E02DC8011995FC01019000209B
:103DF000E9F7AF0141505109481B590BD801ED912A
:103E0000FC910684F785E02D9ECFF9018081918198
:103E1000892B09F03CCF4AE050E065E874E0CFC35D
:103E2000D9018D919C91029709F031CFF801EB5B9C
:103E3000F74F20813181A801420F531FDA01A259A7
:103E4000BF4F8C9111966C912E5F3F4F3183208331
:103E50000E942D2FC2C3F90180819181029709F040
:103E600016CFF801EB5BF74F20813181A801420F9B
:103E7000531FDA01A259BF4F8C9111966C912E5F9E
:103E80003F4F318320830E94662FA7C3D9018D91B4
:103E90009C91019709F0FBCEF801EB5BF74F208175
:103EA0003181D801A20FB31FA259BF4F8C912F5F50
:103EB0003F4F318320830E949C2FF5C2F9018081FE
:103EC0009181029709F0E3CEF801EB5BF74F208177
:103ED0003181D801A20FB31FA259BF4F8C91A90104
:103EE0004F5F5F4F51834083D901A159BF4FA00F4E
:103EF000B11F6D917C912D5F3F4F318320830E94D4
:103F0000132E6BC3C80184599F4F26E0DC012C930C
:103F1000F701208131812230310508F462C3ADB64A
:103F2000BEB6F801EB5BF74F40815181D801A40F79
:103F3000B51FA259BF4F6C914F5F5F4F51834083B4
:103F4000462F50E0ADB7BEB7A41BB50B0FB6F89423
:103F5000BEBF0FBEADBF11966D012230310511F409
:103F6000613031F04D5F5F4F2417350709F07BC09A
:103F70007C2D3601262D271B261788F420813181C0
:103F8000A801420F531F42595F4FDA014C912F5F36
:103F90003F4F31832083D3014D933D01EBCFD701B8
:103FA0002D913C9122303105B1F020813181D90130
:103FB000A259BF4FA00FB11FED90FC902E5F3F4F55
:103FC00031832083B9EEEB16B3E0FB0638F029E02D
:103FD000FC01208348C0EE24E394F12CDC011C9208
:103FE000F092420EE092410EC80182599F4F909389
:103FF000460E8093450E80E0688F0E947506688D9E
:10400000613029F4F60180810E94030812C0D09229
:104010003F0EC0923E0E60933C0E10923B0E84E128
:1040200098E090933A0E8093390ED6018C910E94BD
:10403000E9070E9479078091410E9091420E2091EC
:10404000430E3091440E28173907C9F70E9498078C
:10405000EE0CFF1CF801E95BF74F80819181E80EBF
:10406000F91EF182E0820FB6F894BEBE0FBEADBE5F
:10407000B8C2F90180819181039709F008CED80177
:10408000AB5BB74F8D919C911197FC01E259FF4FAB
:10409000E00FF11F60817181F801E80FF91FE0590D
:1040A000FF4F408103968D939C93D801ED91FC9135
:1040B0000288F389E02DC80119958FC2F90180812A
:1040C0009181029709F0E3CDD801AB5BB74F8D9199
:1040D0009C911197FC01E259FF4FE00FF11F6081A5
:1040E000718102968D939C93D801ED91FC9100888B
:1040F000F189E02DC8011995D6C1F901808191811E
:10410000029709F0C4CDF801EB5BF74F80819181F4
:104110009801280F391FD901A259BF4F6C911196F0
:10412000EC90029691838083CE0101960E94260A2C
:10413000CE0101960E94140AF12CBE01615F7F4FEF
:10414000CE0101960E94490AF394EF14B0F798014A
:1041500024593F4F7901882309F422C248E050E0F6
:10416000BE01615F7F4FC8010E943A1B16C2D90190
:104170008D919C910B9709F08ACDD801AB5BB74F1D
:104180002D913C911197A801420F531FFA01E2595A
:10419000FF4F60816901EFEFCE1ADE0A1196DC92C3
:1041A000CE923E01FFE06F0E711C80E090E0B62CD5
:1041B000A72CC00ED11E7601E80EF91E7EE6E70E92
:1041C000F11CF701F080F301F1923F010196883074
:1041D000910589F7FA01E958FF4FF0803196E080A8
:1041E000255F3F4F2D933C93CE0101960E94260AF6
:1041F000CE0101960E94F1086B2D7A2DCE01019619
:104200000E94EC0940E06F2DCE0101960E948E09BC
:10421000F12CFE1409F4E1C1CE0101960E94D009EF
:104220008F8B41E050E0BE01695E7F4FC8010E9464
:104230003A1BF394EECFD9018D919C910B9709F025
:1042400026CDD801AB5BB74F2D913C911197A801BA
:10425000420F531FFA01E259FF4F60816901EFEFEE
:10426000CE1ADE0A1196DC92CE923E01FFE06F0E6E
:10427000711C80E090E0B62CA72CC00ED11E7601F8
:10428000E80EF91E7EE6E70EF11CF701F080F3015F
:10429000F1923F0101968830910589F7FA01E958BA
:1042A000FF4FF08031964081255F3F4F2D933C9327
:1042B000CE010196498F0E94260ACE0101960E94E6
:1042C000F1086B2D7A2DCE0101960E94EC09498DE3
:1042D0006F2DCE0101960E948E097FC1D9018D916B
:1042E0009C91029709F0D3CCF801EB5BF74F8081EA
:1042F00091819801280F391FD901A259BF4F6C91A4
:104300001196EC900296918380834E2D88ED9DE06E
:104310000E943906F12C88ED9DE00E941805892B3A
:1043200079F088ED9DE00E942005898341E050E00E
:10433000BE016F5F7F4FC8010E943A1BF394EBCF21
:10434000F801E459FF4FFE1409F44AC181E02AC183
:10435000F90180819181892B09F499CC6801FBEBEB
:10436000CF1AF7EFDF0AD6018D919C911197F801D2
:10437000E80FF91FE259FF4F608101968D939C93DE
:1043800088ED9DE00E94B905B12C2B2D30E0F7019E
:104390008081918101972817390798F4F60180816F
:1043A0009181F801E80FF91FE259FF4F60810196F2
:1043B000D6018D939C9388ED9DE00E947005B39487
:1043C000E4CF88ED9DE00E943F0607C1F801EB5B5A
:1043D000F74F80819181D801A80FB91FA259BF4F13
:1043E0002C910196918380838CB5211102C080624B
:1043F00001C08F7D8CBDF1C0F90180819181019751
:1044000009F045CCF801EB5BF74F80819181D80131
:10441000A80FB91FA259BF4F2C9101969183808399
:104420009CB5822F83709C7F892B8CBD8DB522FB20
:10443000222720F98E7F822B8DBD18C0D9018D9146
:104440009C91019709F023CCF801EB5BF74F808139
:104450009181D801A80FB91FA259BF4F2C91019685
:10446000918380838CB5837F282B2CBDE95DF74039
:10447000B7C0F90180819181019709F008CCF8015A
:10448000EB5BF74F80819181D801A80FB91FA2592A
:10449000BF4F2C910196918380832EBD00000DB4F7
:1044A00007FEFDCF8EB5898341E050E0BE016F5F0E
:1044B0007F4F85C0D9018D919C91892B09F0E7CB65
:1044C000F801EA59FF4F40815181B8016E5F7F4F7B
:1044D00076C0F90180819181892B09F0D8CB809138
:1044E000330E9091340EA091350EB091360E898323
:1044F0009A83AB83BC8344E050E0D8CFD9018D913F
:104500009C91049709F0C3CBD801AB5BB74F2D91B9
:104510003C911197F901E259FF4FE00FF11F6081C3
:104520007181828193812C5F3F4F2D933C930E9438
:104530008A0653C0F90180819181892B09F0A7CBAC
:104540000E945C069A83898342E050E0AFCFD90194
:104550008D919C91029709F09ACBD801AB5BB74F34
:104560002D913C911197F901E259FF4FE00FF11F96
:10457000808191812E5F3F4F2D933C939C0122506F
:104580003109F801E459FF4F7F012630310540F42D
:104590000E94530680E00E941C07D7011C9221C094
:1045A00085E0F70180831DC0D9018D919C91892BF5
:1045B00009F06DCB44E050E0B80168597F4FC80165
:1045C0000E943A1B0AC0F90180819181892B09F070
:1045D0005ECB61E0C8010E94631CF801E459FF4F03
:1045E00010827801FCE6EF0EF11CD7016C91C80136
:1045F0000E94B31DF70180810FB6F8949EBE0FBED6
:104600008DBE69960FB6F894DEBF0FBECDBFDF91A9
:10461000CF911F910F91FF90EF90DF90CF90BF90BF
:10462000AF909F908F907F906F900895EF92FF9240
:104630000F931F93CF93DF931F921F92CDB7DEB7D7
:10464000122F88ED9DE049835A830E94B905498164
:10465000042FE42E5A81F52E8E2D801B811740F4F5
:10466000F70161917F0188ED9DE00E947005F4CF14
:1046700088ED9DE00F900F90DF91CF911F910F91EA
:10468000FF90EF900C943F06CF93DF93EC018EE800
:104690009EE00E94C52F181619064CF48EE89EE085
:1046A0000E94DE2F682FCE010E948D1BF0CFDF917C
:1046B000CF9108952091430E3091440E8091410E88
:1046C0009091420E2817390721F40E94980781E043
:1046D000089580E00895CF93DF93D82FC62F8111DE
:1046E00009C0662321F06130B1F560E001C061E0EE
:1046F0008DE01DC0813079F5613049F030F06230D5
:1047000061F0633041F560E01DC061E01BC060E016
:104710008CE00E94662F61E019C060E08CE00E948E
:10472000662F60E08BE00E94662F61E08AE00E94C5
:10473000662F8BE1D89FF0011124E75BF14FC18315
:1047400080E00AC08CE00E94662F60E08BE00E944F
:10475000662F60E0EBCF85E0DF91CF9108959093D5
:10476000820E8093810E6093490E4093640E60E048
:1047700078EB88E097E40E948A0680E00E94102E81
:1047800061E08DE00E942D2F61E08CE00E942D2FD2
:1047900061E08BE00E942D2F61E08AE00E942D2FC6
:1047A00083E00E94530660914A0E80E00E946B23D2
:1047B0006091650E81E00E946B2320E032E030932F
:1047C0005F0E20935E0E80E090E0A0E0B4E4809362
:1047D000600E9093610EA093620EB093630E41E061
:1047E0004093590E30937A0E2093790E80937B0E6E
:1047F00090937C0EA0937D0EB0937E0E4093740E2A
:1048000008950F931F93CF93DF93AB019BE1899F93
:10481000E0011124C75BD14F9B01235331092A3991
:104820003340B0F09B81911110C09A819F5F9A83B1
:104830006981662321F061500E946B2303C081E0EF
:1048400080937F0E83E08B8337C091509B8334C06D
:104850008091800E882309F18D899E89DB01A81B38
:10486000B90B9D010E94CB3909891A892B893C8992
:10487000060F171F281F391F098B1A8B2B8B3C8B98
:1048800088859985AA85BB85840F951FA11DB11DBB
:1048900088879987AA87BB870FC08C819D818617DF
:1048A000970718F47D836C8307C08E819F816817FA
:1048B000790710F47F836E83DF91CF911F910F9161
:1048C000089580E00C94012481E00C9401242F923F
:1048D0003F924F925F926F927F928F929F92AF9290
:1048E000BF92CF92DF92EF92FF920F931F93CF93DD
:1048F000DF93CDB7DEB764970FB6F894DEBF0FBE77
:10490000CDBF29013A01E986FA860B871C8716017B
:10491000BA8AA98A0E94CD3720E030E04AE754E401
:104920000E94F9359B01AC010E947E356B017C0130
:1049300020E030E0A9010E94843720E030E040E030
:104940005FE387FD05C0C701B6010E947E3504C044
:10495000C701B6010E947D350E9461360E949436DF
:1049600020E030E040E05FE30E94CD376D837E833E
:104970008F839887A30192016D817E818F819885B5
:104980000E94F93529853A854B855C850E94CD3793
:104990000E94E2350E9466368B010230110508F450
:1049A0002DC3B80180E090E00E9492362D813E81B7
:1049B0004F8158850E94F935A30192010E94CD379D
:1049C00069837A838B839C83D1016D937D938D93CF
:1049D0009C93139729853A854B855C850E94843783
:1049E00018160CF408C3A301920169817A818B81A6
:1049F0009C810E94F9356B017C019B01AC0160E058
:104A000070E080E090E40E94F9354B015C0120E009
:104A100030E0A9010E94843720E030E040E05FE30D
:104A200087FD05C0C501B4010E947E3504C0C501E3
:104A3000B4010E947D350E9461360E949436A70120
:104A400096010E94CD379B01AC0160E070E080E0F0
:104A500090E40E947D3520E030E0A9010E94843777
:104A600020E030E0A901181664F5C501B4010E94E8
:104A7000843720E030E040E05FE387FD05C0C501FA
:104A8000B4010E947E3504C0C501B4010E947D3589
:104A90000E9461360E949436A70196010E94CD378C
:104AA0009B01AC0160E070E080E090E40E947D3505
:104AB0002DEC3CEC4CEC5DE30E94F53587FD9BC290
:104AC0002CC0C501B4010E94843720E030E040E0F2
:104AD0005FE387FD05C0C501B4010E947E3504C0B7
:104AE000C501B4010E947D350E9461360E94943652
:104AF000A70196010E94CD379B01AC0160E070E0F8
:104B000080E090E40E947D352DEC3CEC4CEC5DEBBC
:104B10000E94843718160CF46EC2A3019201C301DF
:104B2000B2010E947E359B01AC0169817A818B8143
:104B30009C810E94F53587FF61C129813A814B81B3
:104B40005C81C301B2010E94F9356D877E878F8732
:104B5000988B1C8A1B8AEB89FC89BF0180E090E05E
:104B60000E9492364B015C019B01AC016D857E85F4
:104B70008F8598890E947D3520E030E040E05FE33A
:104B80000E94F53518163CF42B893C892F5F3F4F66
:104B90003C8B2B8BE0CF29813A814B815C81C50115
:104BA000B4010E94CD379B01AC01C301B2010E9448
:104BB0007D354B015C0120E030E0A9010E94843783
:104BC000181624F0B7FAB094B7F8B094A501940180
:104BD00069817A818B819C810E94F93569837A830E
:104BE0008B839C839B01AC0160E070E080E090E4EB
:104BF0000E94F9354B015C0120E030E0A9010E94E0
:104C0000843720E030E040E05FE387FD05C0C50168
:104C1000B4010E947E3504C0C501B4010E947D35F7
:104C20000E9461360E94943629813A814B815C81D1
:104C30000E94CD379B01AC0160E070E080E090E421
:104C40000E947D3520E030E0A9010E94843720E0F9
:104C500030E0A901181674F5C501B4010E9484372B
:104C600020E030E040E05FE387FD05C0C501B4010E
:104C70000E947E3504C0C501B4010E947D350E94AA
:104C800061360E94943629813A814B815C810E9471
:104C9000CD379B01AC0160E070E080E090E40E94C1
:104CA0007D352DEC3CEC4CEC5DE30E94F53587FF47
:104CB0002FC0A1C1C501B4010E94843720E030E0BB
:104CC00040E05FE387FD05C0C501B4010E947E3569
:104CD00004C0C501B4010E947D350E9461360E9466
:104CE000943629813A814B815C810E94CD379B01AA
:104CF000AC0160E070E080E090E40E947D352DEC36
:104D00003CEC4CEC5DEB0E94843718160CF473C13C
:104D100020E030E0A901C701B6010E94843720E0FD
:104D200030E040E05FE387FD05C0C701B6010E94A7
:104D30007E3504C0C701B6010E947D350E946136F0
:104D40000E9494369B01AC01C701B6010E947D35DB
:104D500020E030E0A9010E94843720E030E0A90182
:104D6000181634F5C701B6010E94843720E030E000
:104D700040E05FE387FD05C0C701B6010E947E35B4
:104D800004C0C701B6010E947D350E9461360E94B1
:104D900094369B01AC01C701B6010E947D3527E125
:104DA00037EB41ED58E30E94F53587FF27C023C15B
:104DB000C701B6010E94843720E030E040E05FE3A5
:104DC00087FD05C0C701B6010E947E3504C0C7013A
:104DD000B6010E947D350E9461360E9494369B0187
:104DE000AC01C701B6010E947D3527E137EB41EDEB
:104DF00058EB0E94843718160CF4FDC020E030E018
:104E000040E251E4C701B6010E94F53587FF76C044
:104E100020E030E0A901C701B6010E94843720E0FC
:104E200030E040E05FE387FD05C0C701B6010E94A6
:104E30007E3504C0C701B6010E947D350E946136EF
:104E40000E9494369B01AC01C701B6010E947D35DA
:104E500020E030E0A9010E94843720E030E0A90181
:104E6000181634F5C701B6010E94843720E030E0FF
:104E700040E05FE387FD05C0C701B6010E947E35B3
:104E800004C0C701B6010E947D350E9461360E94B0
:104E900094369B01AC01C701B6010E947D3527E124
:104EA00037EB41ED58E30E94F53587FF27C0A3C0DB
:104EB000C701B6010E94843720E030E040E05FE3A4
:104EC00087FD05C0C701B6010E947E3504C0C70139
:104ED000B6010E947D350E9461360E9494369B0186
:104EE000AC01C701B6010E947D3527E137EB41EDEA
:104EF00058EB0E94843718160CF47DC02D813E813A
:104F00004F815885C701B6010E94CD376B017C01E6
:104F100020E030E0A9010E94843720E030E040E04A
:104F20005FE387FD05C0C701B6010E947E3504C05E
:104F3000C701B6010E947D350E9461360E949436F9
:104F40009B01AC01C701B6010E947D3520E030E035
:104F5000A9010E94843720E030E0A901181634F539
:104F6000C701B6010E94843720E030E040E05FE3F3
:104F700087FD05C0C701B6010E947E3504C0C70188
:104F8000B6010E947D350E9461360E9494369B01D5
:104F9000AC01C701B6010E947D3527E137EB41ED39
:104FA00058E30E94F53587FF26C033C0C701B6011C
:104FB0000E94843720E030E040E05FE387FD05C0D9
:104FC000C701B6010E947E3504C0C701B6010E9428
:104FD0007D350E9461360E9494369B01AC01C70169
:104FE000B6010E947D3527E137EB41ED58EB0E9479
:104FF0008437181674F001501109CFCC20E030E04E
:1050000040E05FE36D817E818F8198850E947E35CF
:10501000ADCCA989BA890D931C9364960FB6F89408
:10502000DEBF0FBECDBFDF91CF911F910F91FF90DB
:10503000EF90DF90CF90BF90AF909F908F907F9038
:105040006F905F904F903F902F90089510924A0E6E
:105050001092650E08952F923F924F925F926F9239
:105060007F928F929F92AF92BF92CF92DF92EF92F8
:10507000FF920F931F93CF93DF93CDB7DEB7C85C3A
:10508000D1090FB6F894DEBF0FBECDBFC154DF4FBC
:1050900059834883CF5BD040CF53DF4F08831983B8
:1050A0002A833B83C15CD04026013701CD54DF4FBA
:1050B000A882C35BD0408092800EAA2031F1A3E881
:1050C000AA2EAEE0BA2EAE0149555F4F6A01E12C1F
:1050D00010E4F12E0CE916E4A30192010E9467246A
:1050E000C955DF4F688179818A819B81C75AD04039
:1050F0009B01AC010E947E35C955DF4F68837983DF
:105100008A839B83C75AD04017C020E030E040E03C
:105110005FE30E94CD37E3E8AE2EEEE0BE2EDE0167
:10512000A955BF4F6D01E12C10E4F12E0CE117E4FD
:10513000A30192010E9467248091830E9091840EB6
:10514000880F991F9093840E8093830EC955DF4F6B
:10515000688179818A819B81C75AD0400E948A06E2
:10516000B0914A0EC354DF4FB883CD5BD04081E08D
:10517000C355DF4F8883CD5AD04061E080E00E9464
:105180006B23E091650EC254DF4FE883CE5BD040C5
:1051900083E0C255DF4F8883CE5AD04063E081E080
:1051A0000E946B238091490EFE01E555FF4F8083DD
:1051B0009091640E91832091830E3091840ECD5492
:1051C000DF4F4881C35BD040442311F13093420E3E
:1051D0002093410EF0933F0EE0933E0E92E09093A9
:1051E0003C0E10923B0E24E138E030933A0E2093AF
:1051F000390E0E94E9078CE298E090933A0E809372
:10520000390E81E094E29093380E8093370E06C0F9
:10521000369527953093420E2093410EE090810EF3
:10522000F090820EF701E859FF4F20E030EC4FE795
:1052300054E460817181828193810E94F935C75461
:10524000DF4F688379838A839B83C95BD0401E01CB
:105250005FE9250E311C3E0183E1680E711CCE0111
:10526000805B9F4F2C01AAE04A0E511CF101389639
:10527000C155DF4FF983E883CF5AD040CC54DF4F7C
:105280008883C45BD040C854DF4F9883C85BD0404C
:1052900087010B59174F9701245A374FCF54DF4FCF
:1052A00039832883C15BD0408091490EF801CC54EA
:1052B000DF4FA881C45BD040C854DF4FB881C85BC2
:1052C000D0409FE401900D929A95E1F7882341F038
:1052D000813061F4F201208931894289538909C002
:1052E000D2012D913D914D915C9103C020E030E0C1
:1052F000A901F801DE0111969FE401900D929A95A3
:10530000E1F7882341F0813061F4F301C08CD18C46
:10531000E28CF38C09C0D301CD90DD90ED90FC9030
:1053200003C0C12CD12C760160E876E988E19BE4CA
:105330000E94F93520E030E040E85FE30E947E35CE
:105340004B015C0120E836E948E15BE4C701B601A6
:105350000E94CD379B01AC010E947E352BED3FE0D2
:1053600049E450E40E94CD37CF54DF4FA881B98182
:10537000C15BD0402D913D914D915C910E94CD3704
:105380006B017C01A5019401C501B4010E94CD37D8
:105390004B015C01A7019601C701B6010E94CD3700
:1053A0009B01AC01C501B4010E947E350E9480388A
:1053B0009B01AC01C754DF4F688179818A819B8151
:1053C000C95BD0400E94CD37F10161937193819305
:1053D00091931F01F4E06F0E711C24E0420E511CEA
:1053E000C155DF4F48815981CF5AD0402416350628
:1053F00009F05ACF10927F0ECF54DF4F19821882D6
:10540000C15BD040CF54DF4F88819981C15BD040D0
:10541000C154DF4FA881B981CF5BD0408A179B0769
:1054200009F4D1C28091800E10924B0E10924C0E56
:1054300081110BC0EFEFF3E0F093500EE0934F0EAD
:1054400010924E0E10924D0E10C01092510E1092EE
:10545000520E1092530E1092540E10925A0E109239
:105460005B0E10925C0E10925D0E1092660E109202
:10547000670E882389F010926C0E10926D0E1092B8
:105480006E0E10926F0E1092750E1092760E109294
:10549000770E1092780E0AC08FEF93E090936B0E08
:1054A00080936A0E1092690E1092680ECD54DF4FF1
:1054B0009881C35BD0409923E1F10E9479070E9453
:1054C0005A238823E1F30E94582DCC54DF4F688380
:1054D00079838A839B83C45BD040A091800EC8549B
:1054E000DF4FA883C85BD0408091830E9091840EDB
:1054F000FE01E355FF4FC155DF4FF983E883CF5AD3
:10550000D04009E41EE09E012F5F3F4F2901AE010C
:10551000405B5F4F1A01612C712C9C0140E050E010
:10552000CB53DF4F288339834A835B83C55CD040EC
:105530009AC08091490E0E9403084CE258E05093B3
:105540003A0E4093390E81E694E29093380E8093A0
:10555000370E0E9479070E945A238823E1F3809135
:10556000640E0E940308ACE2B8E0B0933A0EA09338
:10557000390EE4E6F4E2F093380EE093370E0E9421
:1055800079070E945A238823E1F39DCFCB53DF4F45
:10559000688179818A819B81C55CD0400E94923666
:1055A0006B017C01D80151966D917D918D919C91FB
:1055B00054970E9492369B01AC010E947E35A70150
:1055C00096010E94F9350E948038F2016083718350
:1055D0008283938320E030E040E852E40E94CD379C
:1055E0009B01AC010E947E3523EF34E045EB5FE385
:1055F0000E94CD370E946636D1016D937C93F301F2
:10560000E75BF14F82818823B9F1F301E75BF14F4A
:105610008281882309F4B3C08195C155DF4FA881E9
:10562000B981CF5AD0408C93B1E0B08BC155DF4FD8
:10563000E881F981CF5AD0403196C155DF4FF983C7
:10564000E883CF5AD040FBE16F0E711C055E1F4FFF
:1056500022E0220E311C34E0430E511C46E3641656
:10566000710409F496C0C854DF4FF881C85BD0407C
:10567000FF2309F45AC08ACF80898111C6CFF8016F
:1056800080849184A284B38464857585868597859A
:10569000680D791D8A1D9B1D0E9492362AE037ED08
:1056A00043E25CE30E94CD37A70196010E94F935E1
:1056B0006B017C0124EA30E74DE75FE3D8015796A0
:1056C0006D917D918D919C915A970E94CD379B0150
:1056D000AC01C701B6010E947E356B017C01F80167
:1056E000678B708F818F928F20E030E0A9010E943C
:1056F000843720E030E040E05FE387FD05C0C7016C
:10570000B6010E947E3504C0C701B6010E947D35F6
:105710000E946136D80156967C936E935597F80196
:1057200084869586A686B78670CFD80114966D912B
:105730007C91159716968D919C911797681B790B04
:1057400096E0660F771F9A95E1F7F1017183608308
:1057500080E090E00E94923623EF34E045EB5FE377
:105760000E94F93520E030E040E05CE30E94CD3754
:10577000D2016D937D938D939C93139746CF818136
:10578000C155DF4FA881B981CF5AD0408C93108A80
:105790004DCF0091810E1091820EF801EC59F74F18
:1057A0008081882309F470C080914B0E81116CC0F8
:1057B0003C97C080D180E280F38020E030E0A901F6
:1057C000C701B6010E94843718160CF05DC0C3559E
:1057D000DF4F8881CD5AD040EFE9F0E0EC0FFD1F9C
:1057E00024E08202E00DF11D1124208131814281EB
:1057F000538169817A818B819C810E94CD374B01D5
:105800005C018091660E8111B5C02D813E814F8172
:105810005885C754DF4F688179818A819B81C95B34
:10582000D0400E94CD379B01AC01C701B6010E9458
:105830007E352B013C019B01AC01C501B4010E94E6
:105840007D356B017C0120E030E0A9010E948437A6
:10585000181624F0F7FAF094F7F8F09420E030E00E
:1058600040E05FE3F801ED55F74F6081718182817F
:1058700093810E94CD379B01AC01C701B6010E9404
:10588000843718160CF47AC00AE41EE0CE01805B5F
:105890009F4F6C01E12CF12CD6018D919C91893C9C
:1058A0009C4030F4F80160816F5F8E2D0E946B2365
:1058B00042E050E0B6018091810E9091820E0E94EC
:1058C0003A1B6DEA70E06C0F7D1F6E0D7F1D41E08D
:1058D00050E08091810E9091820E0E943A1BFFEF62
:1058E000EF1AFF0A22E0C20ED11C055E1F4F32E004
:1058F000E316F10489F68EE89EE00E94C52F181683
:1059000019060CF460C00E94582DCC54DF4F28813A
:1059100039814A815B81C45BD040621B730B840B6D
:10592000950B0E9492366B017C0120E030E04AE743
:1059300054E4CF53DF4F688179818A819B81C15CB8
:10594000D0400E94CD379B01AC01C701B6010E9437
:10595000F53587FDD8CFCF54DF4F48815981C15BE2
:10596000D0404F5F5F4FCF54DF4F59834883C15BB7
:10597000D04048CD20E030E0A90157CFF801E05AEF
:10598000F74F2081318142815381C501B4010E94CA
:10599000CD37A30192010E94F9356B017C0120E013
:1059A00030E040E85FE30E94F53587FF06C0C12C78
:1059B000D12C80E8E82E8FE3F82EB701A601C801AC
:1059C0000E946D0E61CFC354DF4F6881CD5BD04024
:1059D00080E00E946B23C254DF4F6881CE5BD040D1
:1059E00081E00E946B2380E0C853DF4F0FB6F8942C
:1059F000DEBF0FBECDBFDF91CF911F910F91FF9002
:105A0000EF90DF90CF90BF90AF909F908F907F905E
:105A10006F905F904F903F902F9008951F920F923C
:105A20000FB60F9211242F933F938F939F93AF93B1
:105A3000BF938091860E9091870EA091880EB091B1
:105A4000890E3091850E23E0230F2D3720F4019627
:105A5000A11DB11D05C026E8230F0296A11DB11D91
:105A60002093850E8093860E9093870EA093880EC8
:105A7000B093890E80918A0E90918B0EA0918C0E1E
:105A8000B0918D0E0196A11DB11D80938A0E909349
:105A90008B0EA0938C0EB0938D0EBF91AF919F9102
:105AA0008F913F912F910F900FBE0F901F901895DF
:105AB0003FB7F89480918A0E90918B0EA0918C0E36
:105AC000B0918D0E26B5A89B05C02F3F19F0019609
:105AD000A11DB11D3FBF6627782F892F9A2F620F16
