:100000000C94E3010C9414020C9414020C9414024A
:100010000C9414020C9414020C9414020C94140208
:100020000C9414020C9414020C9414020C941402F8
:100030000C9414020C9414020C9414020C941402E8
:100040000C9414020C9414020C9414020C941402D8
:100050000C9495050C9414020C9414020C94542DD9
:100060000C9414020C947C310C94B2310C94140254
:100070000C9414020C946A050C9414020C9414024F
:100080000C9414020C9414020C9414020C940D0B96
:100090000C9414020C9414020C9414020C94A609EF
:1000A0000C9414020C9414020C9414020C94140278
:1000B0000C9414020C9414020C9414020C94140268
:1000C0000C9414020C9414020C9414020C94140258
:1000D0000C9414020C9414020C9414020C94140248
:1000E0000C9414029513A3131B142B149E14CA14FE
:1000F000D814F414041523153315381A381A511569
:1001000076159115C71515164B16A116B116EF16D3
:100110000A179319D319DF199F19B519FC190E1A6B
:10012000381A381A381A381A381A381A381A381A3F
:10013000381A381A381A381A381A381A381A381A2F
:10014000381A381A381A381A381A381A381A381A1F
:10015000381A381A381A381A381A381A381A381A0F
:10016000381A381A381A381A381A381A381A381AFF
:10017000381A381A381A381A381A381A381A381AEF
:10018000381A381A381A381A381A381A37177519A7
:1001900018186D1E951EB21ECF1E121FF41E301FA2
:1001A000591F8F1F741FCB1FA71FA7208220C62097
:1001B00064210021F121B7218A1E45226722822273
:1001C000A3224E1FB222C722E322F0221D232C239A
:1001D0007C2E812E862E902E9A2E132FA42EAC2E9E
:1001E000B42EBE2EC82ED22EE12EEB2E132FF52EBE
:1001F000FF2E092F352F382F272F2B2F312F6F2F21
:100200003C2F402F462F4A2F4E2F542F582F5C2F14
:100210006F2F622F662F6A2F08000000BE922449BC
:10022000123EABAAAA2ABECDCCCC4C3E0000008028
:10023000BEABAAAAAA3E00000000BF000000803F9B
:100240000000000000084178D3BB4387D1133D195B
:100250000E3CC3BD4282AD2B3E68EC8276BED98F88
:10026000E1A93E4C80EFFFBE01C4FF7F3F000000CC
:10027000000007634236B79BD8A71A39685618AEF4
:10028000BAAB558C1D3CB7CC5763BD6DEDFD753ECB
:10029000F6177231BF000000803F00000A0B020910
:1002A0000C0D0E0807030401000000000000000010
:1002B000000000000000000000000000000000003E
:1002C00000000000000012111000000000000000FB
:1002D000000000000000000000000000000000001E
:1002E0000102102020080810204010204080020148
:1002F000020108040201010204081020408080402D
:10030000201008040201800402018040201008042B
:1003100002010804020101020408102040800102C9
:100320000408102040800505050507050808080891
:10033000020202020A0A080804040404010101017D
:100340000101010103030303030303030407070778
:100350000C0C0C0C0C0C0C0C02020202060606061D
:10036000060606060B0B0B0B0B0B0B0B00002000FD
:100370002300260029002C002F003200000100007D
:1003800003010601090100002200250028002B00BE
:100390002E003100340002010000050108010B01AC
:1003A00000002100240027002A002D003000330027
:1003B00001010000040107010A014B029F05CC0660
:1003C0006C28E6314F0211241FBECFEFD1E2DEBF11
:1003D000CDBF00E00CBF14E0A0E0B2E0EAE5F9E731
:1003E00000E00BBF02C007900D92A83AB107D9F701
:1003F0002FE0A8EAB4E001C01D92A632B207E1F7EF
:1004000013E0C4ECD3E000E006C022970109FE012E
:100410000BBF0E942C3ACA3BD10780E00807A9F71E
:100420000E94E8020C949B3C0C9400008091060210
:100430009091070201969093070280930602089517
:10044000089588EA94E00E948D238091060290919D
:10045000070269E170E00E94D239892BD9F48091BA
:10046000FA0C882389F08091FB0C81110BC0E0917C
:10047000A804F091A9040688F789E02D88EA94E0A1
:10048000199502C01092FB0C81E090E09093070256
:1004900080930602089588EA94E00C94680B88EA39
:1004A00094E00C94790B80E180939100109290007D
:1004B00085E080933D0E86E998E990933F0E809306
:1004C0003E0E909397008093960085E18093910073
:1004D00086E192E090933C0E80933B0E81E0809306
:1004E000710088EA94E00E945F0F68E072E085E89E
:1004F0009EE00E9475326FEF71E2605072404AE0F8
:1005000050E085E89EE00E943F336DE072E085E8B0
:100510009EE00E94753268EA74E0605072404AE0E2
:1005200050E085E89EE00E943F3364E172E085E898
:100530009EE00E94753266E27FE0685A74404AE0AD
:1005400050E085E89EE00E943F336AE172E085E872
:100550009EE00E9475326091220F7091230F611509
:10056000710519F066527F4002C060E070E04AE019
:1005700050E085E89EE00E943F3360E272E085E84B
:100580009EE00E9475328DB79EB76FEF71E2681BD7
:10059000790B4AE050E085E89EE00E943F3367E235
:1005A00072E085E89EE00E9475328091220F909162
:1005B000230F6DB77EB7009719F466527F4002C0D3
:1005C000681B790B4AE050E085E89EE00C943F33CD
:1005D0000E94F42D0E9420020E945302C5E3D0E342
:1005E0000E9421022097E1F30E943530F9CFECE719
:1005F000F0E090819F739083208130E4839FC0015D
:100600001124282B20830895EAE7F0E09081987F59
:1006100090839081982B9083089580917A008770C1
:1006200090E00895E1E8F0E08081887F808308957C
:100630000E9412031092850010928400E1E8F0E01D
:10064000808190915B0D892B80830895882321F010
:1006500080917C00806203C080917C008F7D8093BC
:100660007C000895EBE7F0E09081987F9083908183
:10067000982B90830895CF92DF92EF92FF92CF93C1
:100680006B017C0180E18093810010928000A701C2
:10069000960160E074E284E799E40E943C3620E031
:1006A00030E040E051E40E9410380E94A936611504
:1006B000710521E08207910528F421E020935B0D6C
:1006C000CB014CC06115710528E08207910568F4E3
:1006D00022E020935B0DDC01CB0153E0B695A7959A
:1006E000979587955A95D1F739C06115710520E422
:1006F0008207910568F423E020935B0DDC01CB01B8
:1007000046E0B695A795979587954A95D1F726C067
:1007100061157105810521E0920740F424E02093E2
:100720005B0DBB27A92F982F872F18C06115710566
:10073000810524E0920768F425E020935B0DDC013D
:10074000CB012AE0B695A795979587952A95D1F77D
:1007500005C085E080935B0D8FEF9FEF909387003E
:1007600080938600C1E0C0936F0086E00E94320350
:10077000C093710D80917A00806280937A00C0925C
:10078000640DD092650DE092660DF092670DCF91E9
:10079000FF90EF90DF90CF9008958093710D8823A4
:1007A00021F080917A00806203C080917A008F7D71
:1007B00080937A000895EAE7F0E080818064808386
:1007C0000895CF93DF93D0917800C0917900409144
:1007D000740D5091750D2091720D3091730D42176B
:1007E0005307A8F58091710D811102C00E94DB03AF
:1007F0008D2F90E09C2B20917C0025FF13C0E09171
:10080000780DF091790D2091740D3091750DA9013D
:100810004F5F5F4F5093750D4093740DE20FF31FC0
:10082000908315C0E091760DF091770D2091740DB5
:100830003091750DA9014F5F5F4F5093750D409337
:10084000740D220F331FE20FF31F91838083DF911A
:10085000CF9108951092750D1092740D8091710DC5
:100860000E94CD030E949E2D60935C0D70935D0DE0
:1008700080935E0D90935F0D80917A00886C8093D9
:100880007A0080917B008770863011F40C941803F5
:1008900008958F929F92AF92BF92CF92DF92EF9284
:1008A000FF920E949E2D4B015C0180917A00877D12
:1008B00080937A0080917B008770863011F40E94CB
:1008C00012036091720D7091730D80E090E00E94B0
:1008D000D53620E034E244E759E40E9410386B0139
:1008E0007C0180915C0D90915D0DA0915E0DB091A9
:1008F0005F0DA5019401281B390B4A0B5B0BCA0144
:10090000B9010E94D5369B01AC01C701B6010E9416
:100910003C366093600D7093610D8093620D9093EF
:10092000630DFF90EF90DF90CF90BF90AF909F90BE
:100930008F90089580936E0D90917C00907F90939E
:100940007C0020917C00982F9770922B90937C00D4
:10095000883020F080917B00886003C080917B000C
:10096000877F80937B00089591E090936D0D1092A6
:10097000700D10926F0D10926C0D21EE33E03093DC
:100980006B0D20936A0D0C949A0480916C0D8F5F0F
:1009900080936C0D90916D0D891302C010926C0DB7
:1009A00080916C0DE0916F0DF091700DE80FF11DCD
:1009B00080810E949A040C94E1031F93CF93DF93EC
:1009C000C0916C0D90916D0D9230A0F081E08C0F74
:1009D000891719F080936C0D02C010926C0D8091F4
:1009E0006C0DE0916F0DF091700DE80FF11D80819D
:1009F0000E949A0410917800D09179004091740D72
:100A00005091750D2091720D3091730D421753075F
:100A1000F0F48091710D811102C00E94DB03612FFF
:100A200070E07D2B80917C0085FF02C0672F7727C7
:100A3000E091680DF091690D8C2F19958091740DDE
:100A40009091750D01969093750D8093740DDF91C3
:100A5000CF911F910895CF93DF93D0917C00C091E7
:100A60007B0080917C00807E80937C0080917C0064
:100A70008E6180937C0080917B00877F80937B00D8
:100A800063E070E080E090E00E94C12D80917A00E8
:100A9000806480937A0080917A0086FDFCCF60911B
:100AA000780080917900D0937C00C0937B0070E047
:100AB000782B882777FD8095982F0E94D7369B0149
:100AC000AC0160E070E889E894E40E943C36DF9174
:100AD000CF9108951F920F920FB60F9211240BB66B
:100AE0000F922F933F934F935F936F937F938F93C7
:100AF0009F93AF93BF93EF93FF93E0916A0DF091B3
:100B00006B0D1995FF91EF91BF91AF919F918F91CF
:100B10007F916F915F914F913F912F910F900BBEFD
:100B20000F900FBE0F901F9018951F920F920FB647
:100B30000F9211240F900FBE0F901F90189581E017
:100B40000C94F7028091AA0D90E02091AB0D821BCE
:100B5000910908952091AB0D8091AA0D281750F4AA
:100B6000E22FF0E0E455F24F808190E02F5F209378
:100B7000AB0D08958FEF9FEF0895E091AB0D80913D
:100B8000AA0DE81730F4F0E0E455F24F808190E0D0
:100B900008958FEF9FEF08950895CF92DF92EF921F
:100BA000FF920F931F93CF93DF937C01CB018A01B8
:100BB0002091860D222389F0EB016B01C40ED51E16
:100BC000CC15DD0569F06991D701ED91FC9101909B
:100BD000F081E02DC7011995F3CF642F0E947D09A4
:100BE000C801DF91CF911F910F91FF90EF90DF909F
:100BF000CF900895CF93DF931F92CDB7DEB769836F
:100C00002091860D2223D1F02091870D203240F0D3
:100C100021E030E0FC013383228380E090E015C0C6
:100C20008091880DE82FF0E0E757F24F998190838B
:100C30008F5F8093880D8093870D05C061E0CE01A2
:100C400001960E947D0981E090E00F90DF91CF91A5
:100C50000895FC011382128248EE53E060E070E0D8
:100C6000448355836683778388E392E0918380830E
:100C700008951092AB0D1092AA0D1092880D10924B
:100C8000870D0C94C00881E08093860D6093A90DB8
:100C90001092880D1092870D08950C9443060F93BF
:100CA000062F21E04091870D69E87DE08091A90D34
:100CB0000E9426091092880D1092870D1092860DC1
:100CC0000F9108958F929F92AF92BF92CF92DF9231
:100CD000EF92FF920F931F93CF93DF93EC01F62EC9
:100CE000D42E48015901EE2019F10E9443061E2D11
:100CF000143008F013E01150B8F0E881F98128E0D1
:100D0000129FB0011124A501940104C05695479586
:100D1000379527956A95D2F7CA01B9010190F081FC
:100D2000E02DCE011995E7CF60E0CE010E944F067D
:100D30004D2D413208F040E22C2D6CEA7DE08F2DE4
:100D40000E94DE081092AB0D8093AA0DDF91CF9127
:100D50001F910F91FF90EF90DF90CF90BF90AF90D9
:100D60009F908F900895CF92EF920F931F93C22E72
:100D7000E12C00E010E098010E9462061F910F91A3
:100D8000EF90CF90089521E00C94B30621E00C94ED
:100D9000B30661E00C944F068AE79DE00C942906A7
:100DA000FF920F931F93CF93DF93FC010081C181CA
:100DB000D281F8948981F02EF0948F2189837894E0
:100DC0001DE7115029F182E090E00E94E92D888111
:100DD0008023B9F3F8948A818F218A838981802BBB
:100DE0008983789480EE91E00E94E92DF8948981BE
:100DF0008F21898386E490E00E94E92D88818023F9
:100E000011E009F010E078948AE991E00E94E92D60
:100E1000812FDF91CF911F910F91FF9008951F9324
:100E2000CF93DF93FC011081C181D281912F9095E6
:100E300060FF12C0F8948A8189238A838981812B7B
:100E400089838AE090E00E94E92D8A81812B8A8340
:100E5000789487E390E011C0F8948A8189238A838B
:100E60008981812B898381E490E00E94E92D8A8128
:100E7000812B8A83789485E090E0DF91CF911F9158
:100E80000C94E92D0F931F93CF93DF93FC011081F6
:100E9000C181D281F8948981812B89838A81012F34
:100EA000009580238A8383E090E00E94E92D898168
:100EB000802389838AE090E00E94E92DC88178949C
:100EC00085E390E00E94E92D1C2381E009F480E095
:100ED000DF91CF911F910F910895CF92DF92EF9202
:100EE000FF920F931F93CF93DF931F92CDB7DEB77F
:100EF0006C01E62E08E010E0FF24F39461E09F2DE2
:100F00009E2109F460E0C60149830E940F07FF0C8F
:100F10000150110949810115110581F7411115C0D1
:100F2000F894D6011196ED91FC91129791818C91D4
:100F30008095892381831196ED91FC91129792817E
:100F40008C9180958923828378940F90DF91CF9143
:100F50001F910F91FF90EF90DF90CF900895EF9247
:100F6000FF920F931F93CF93DF938C01C8E0D0E0E3
:100F7000F12CEE24E394C8010E9442078111FE285F
:100F8000EE0C2197C1F78F2DDF91CF911F910F911B
:100F9000FF90EF900895CF92DF92FF920F931F93EF
:100FA000CF93DF931F92CDB7DEB78C01F62E40E0D2
:100FB00065E579830E946D07CF2C7981D72E88E073
:100FC000F82EF60161916F0140E0C8010E946D07A3
:100FD000FA94B9F70F90DF91CF911F910F91FF9085
:100FE000DF90CF900895FC0113861586148627E0C4
:100FF00030E0DF01A20FB31F13961C9221153105BB
:1010000019F021503109F5CF08951F93CF93DF9345
:10101000EC01162F60E0812F0E94702F612F70E08D
:10102000FB01E052FD4FE491E883FB01EA5DFC4FD8
:10103000E491F0E0EE0FFF1FE459FC4F859194918D
:101040009A838983CE01DF91CF911F910C94F3078E
:10105000AF92BF92CF92DF92EF92FF920F931F93C6
:10106000CF93DF931F92CDB7DEB75C01E62ED72E6C
:10107000FC01858581115DC0C5010E94D0068111EA
:1010800005C0F5011386158614866EC040E060EF3A
:10109000C5010E946D0701E0F12CC12C11E0C501D2
:1010A0000E944207682FC50169830E944207698137
:1010B000613019F48130B9F433C02F2D30E068135A
:1010C0001BC0F5018385181730F4E20FF31F8381ED
:1010D000802349F402C0181731F060E0193058F449
:1010E000F501148708C0F501EF0DF11D8381802BF8
:1010F000838361E009C0C12EF501E20FF31F8381F4
:10110000902F909589238383C5010E940F071F5F4D
:10111000000F11F4F39401E0F7E0FF1508F0BFCFE2
:10112000113438F0F501C386C11018C081E08587FD
:1011300015C0F50113861586148680E0EE2DFD2D71
:1011400020E030E0D501A20FB31F13969C9191933C
:101150002F5F3F4F28303105A9F706C0F501838185
:10116000882339F381E0EACF0F90DF91CF911F916F
:101170000F91FF90EF90DF90CF90BF90AF900895C8
:101180001092390E81E08093370E1092360E61E096
:1011900084E10E94A92F61E085E10E94A92FE9EB7B
:1011A000F0E080818E7F808380818D7F808388E4E2
:1011B0008093B80085E48093BC000895413208F024
:1011C00043C09091390E9111FCCF91E09093390E6C
:1011D0002093370E2FEF2093CC0D1092110E240F79
:1011E0002093100E9093380E9091380E880F892B13
:1011F0008093380E8091360E813061F41092360E55
:101200008091380E8093BB008091BC0083FDF8CFA5
:1012100085EC01C085EE8093BC008091390E813051
:10122000E1F38091110E841710F44091110E22E128
:101230003EE0FB01D9018A2F821B841718F48D919F
:101240008193F9CF842F089580E008950F93413260
:1012500008F04AC09091390E9111FCCF92E0909322
:10126000390E0093370E9FEF9093CC0D1092110E14
:101270004093100EFB0162E17EE0DB019A2F961B8A
:10128000941718F491919D93F9CF1092380E909184
:10129000380E880F892B8093380E8091360E81305E
:1012A00061F41092360E8091380E8093BB008091CD
:1012B000BC0083FDF8CF85EC01C085EE8093BC00B7
:1012C000222321F08091390E8230E1F38091CC0D00
:1012D0008F3F61F08091CC0D803251F08091CC0D28
:1012E000803341F483E007C081E005C080E003C0A3
:1012F00082E001C084E00F910895613298F420915A
:10130000390E243089F46093EE0DFC0180EF9DE0EE
:10131000DC012A2F281B261718F421912D93F9CFD1
:1013200080E0089581E0089582E0089585ED80933E
:10133000BC008091BC0084FDFCCF1092390E089552
:1013400085EC8093BC001092390E08951F920F9285
:101350000FB60F9211240BB60F922F933F934F931A
:101360005F936F937F938F939F93AF93BF93EF930D
:10137000FF938091B900887F803609F49EC078F58C
:10138000883209F45DC090F4803109F456C038F415
:10139000882309F4F5C0883009F44FC0F5C08831BE
:1013A00009F44EC0803209F45FC0EEC0803409F405
:1013B0006AC058F4803309F457C0883309F0E4C098
:1013C0008093CC0D0E94A009DFC0803509F44FC086
:1013D000883509F45DC0883409F0D6C0D3C0883997
:1013E00009F4C4C0A8F4883709F467C038F4883613
:1013F00009F463C0803709F460C0C6C0883809F4B6
:10140000B5C0803909F45FC0803809F0BDC05BC049
:10141000803B09F483C038F4803A09F466C0883A06
:1014200009F47CC0B1C0803C09F4A4C0883C09F434
:10143000A1C0883B09F487C0A7C08091380E10C0B6
:101440009091110E8091100E981770F5E091110E89
:1014500081E08E0F8093110EF0E0EE5EF14F8081FF
:101460008093BB0085EC83C08093CC0D8BC0E09152
:10147000110E81E08E0F8093110E8091BB00F0E081
:10148000EE5EF14F80839091110E8091100E6BC033
:10149000E091110E81E08E0F8093110E8091BB00C0
:1014A000F0E0EE5EF14F80838091370E81116AC0CB
:1014B00081E08093360E84EA5EC083E08093390E2B
:1014C0001092CD0DCFCF8091CD0D803208F04EC05F
:1014D000E091CD0D81E08E0F8093CD0D8091BB000A
:1014E000F0E0E253F24F8083BDCF0E94A0098091CB
:1014F000CD0D803230F4E091CD0DF0E0E253F24FAB
:1015000010826091CD0D70E0E091320EF091330EBB
:101510008EEC9DE019951092CD0D36C084E080933D
:10152000390E1092EF0D1092EE0DE091340EF09105
:10153000350E19958091EE0D811105C081E08093E3
:10154000EE0D1092F00DE091EF0D81E08E0F809383
:10155000EF0DF0E0E051F24F80818093BB0090915D
:10156000EF0D8091EE0D981708F47CCF85E88093FD
:10157000BC000AC085EC8093BC001092390E04C0F8
:101580001092CC0D0E949609FF91EF91BF91AF91FF
:101590009F918F917F916F915F914F913F912F918B
:1015A0000F900BBE0F900FBE0F901F901895CF930A
:1015B000CFB7F89480913A0E811127C0EBE5F3E0A4
:1015C0008491E5E1F3E09491E82FF0E0EE0FFF1F46
:1015D000E056FC4FA591B4918C91892321F461E0F0
:1015E00085E30E94A92F61E085E30E94702F8CB5EE
:1015F00080618CBD8CB580648CBD61E084E30E9409
:10160000702F61E083E30E94702F80913A0E8F5F0C
:1016100080933A0ECFBFCF9108951F920F920FB6CD
:101620000F9211240BB60F922F933F934F935F931A
:101630006F937F938F939F93AF93BF93EF93FF939A
:10164000E0913B0EF0913C0E1995FF91EF91BF9107
:10165000AF919F918F917F916F915F914F913F914A
:101660002F910F900BBE0F900FBE0F901F901895EB
:101670008FE194E008958BE194E0089584E094E094
:1016800008958AEE93E0089584EE93E0089581EB47
:1016900093E0089584E492E00895CF93DF93EC0102
:1016A00061E088E00E94A92FCC5AD74F1882DF91C1
:1016B000CF910895DC01ED91FC910190F081E02D36
:1016C00019948EBD00000DB407FEFDCF8EB50895B0
:1016D000CF93DF93EC0161E00E940D1B89E993E059
:1016E00099838883CE5AD74F18821982DF91CF9180
:1016F000089529E933E0FC01318320830C947D1B9C
:101700001F93CF93DF931F921F92CDB7DEB7162F93
:1017100060E0812F2A8349830E94A92F4981842F69
:101720000E94610B2A81822F0E94610B61E0812F50
:101730000F900F90DF91CF911F910C94A92F6430DF
:1017400040F4242F2095462F65E30E94800B80E013
:10175000089585E00895AF92BF92CF92DF92EF9205
:10176000FF920F931F93CF93DF931F921F92CDB7DA
:10177000DEB78C01D12C7C018BEBE81A87EFF80ADD
:101780005801E5E9AE1AE7EFBE0A2D2D30E0F80169
:10179000EB5AF74F8081918168E270E00E94D23964
:1017A00026173707E0F588E0C82EC982F7012081A7
:1017B000318180E090E040E0B801620F731FE42FB8
:1017C000F0E0DB01A80FB91FA259BF4F41E050E084
:1017D000AC91AA2311F040E050E0082E02C0440F63
:1017E000551F0A94E2F74E0F5F1F0196883091054E
:1017F00031F74A83285F3F4FF70131832083F5019A
:1018000060816D0D22E0AE014F5F5F4FC8010E9405
:101810005F23C394FDE0CF12C8CFD394B6CF0F900F
:101820000F90DF91CF911F910F91FF90EF90DF907C
:10183000CF90BF90AF9008958F929F92AF92BF923A
:10184000CF92DF92EF92FF920F931F93CF93DF938C
:1018500000D0CDB7DEB78C01912C7C018BEAE81A61
:1018600087EFF80A98E2C92ED12C5801E5E9AE1AA3
:10187000E7EFBE0A88248A94292D30E0F7018081A1
:101880009181B6010E94D23926173707A0F438E0BB
:1018900039838A82F5016081690D22E0AE014F5FD4
:1018A0005F4FC8013B830E945F233B813F5F3D3018
:1018B00079F79394E1CF0F900F900F90DF91CF9134
:1018C0001F910F91FF90EF90DF90CF90BF90AF905E
:1018D0009F908F900895EF92FF920F931F93CF9355
:1018E000DF938C017C018BE9E81A87EFF80AC4E6E4
:1018F000D0E0F70141917F01BE01C8010E94081BA1
:101900002196C23BD105A9F760E0C801DF91CF91D4
:101910001F910F91FF90EF900C948E0C7F928F92FD
:101920009F92AF92BF92CF92DF92EF92FF920F936E
:101930001F93CF93DF93EC01762E7C012BE9E21A03
:1019400027EFF20A04E610E04701E881F9810088F8
:10195000F189E02DB801CE011995F70181937F013E
:101960000F5F1F4F023B110581F7F40180819181C8
:101970009E012959374F5901FE01E759F74F6F0171
:10198000295C3F4F7901892BE1F4F5018081918138
:10199000892BB9F4F60180819181892B91F43997D3
:1019A00080819181A281B381F90180839183A28397
:1019B000B38381E090E0F60191838083CE010E94A1
:1019C0006B0CF40180819181892BB9F4F501808140
:1019D0009181892B91F4F60180819181019769F4BD
:1019E00080E2FE01E559F74F808382E090E0F60146
:1019F00091838083CE010E946B0CF40180819181E0
:101A0000892BE9F4F50180819181892BC1F4F601DC
:101A100080819181029799F480E090E0A0EAB0E49F
:101A2000FE01EE55F74F80839183A283B38383E059
:101A300090E0F60191838083CE010E946B0CF4014B
:101A4000808191818E010A55174F892BA1F4F501F0
:101A500080819181892B79F4F601808191810397AE
:101A600051F4F801108284E090E0F60191838083C4
:101A7000CE010E946B0CF40180819181892B79F554
:101A8000F50180819181892B51F5F6018081918149
:101A9000049729F580E090E0A8ECB2E4FE01E95556
:101AA000F74F80839183A283B38380E090E4ACE915
:101AB000B6E4349680839183A283B38380E090E080
:101AC000A8E4B3E4349680839183A283B38385E052
:101AD00090E0F60191838083CE010E946B0CF401AB
:101AE00080819181892B69F4F50180819181892B15
:101AF00041F4F60180819181059719F4772009F46A
:101B0000A5C0F40111821082F5011182108285E0D6
:101B100090E0F601918380838CE7FE01E359F74F53
:101B2000808380E73197808380E09CE7A2E9B8E476
:101B3000329680839183A283B38380E092E2A1EA0C
:101B4000B8E4349680839183A283B38380E090E0ED
:101B5000AAE7B4E43C9680839183A283B38380E0B8
:101B600090E4ACE1B6E4349680839183A283B3839E
:101B700080E090E5A3ECB7E4349680839183A28360
:101B8000B38380E094E2A4E7B9E434968083918340
:101B9000A283B383749710821182128213823496C7
:101BA00010821182128213824FEF56EE6BE57EE2B5
:101BB0007496408351836283738334964083518348
:101BC0006283738334964083518362837383349634
:101BD0004083518362837383FA9780819181A281CC
:101BE000B381F70180839183A283B38380E2FE01F6
:101BF000E559F74F808380E090E0A0EAB0E4F796E3
:101C000080839183A283B383F801108280E090E007
:101C1000A8ECB2E4FE01E955F74F80839183A283DB
:101C2000B38380E090E4ACE9B6E43496808391839A
:101C3000A283B38380E090E0A8E4B3E43496808389
:101C40009183A283B383CE010E946B0CF701C08005
:101C5000D180E280F38020E030E0A901C701B60125
:101C60000E943836FE01EC59F74F18161CF081E03F
:101C7000808309C0DE01A05AB74FCD92DD92ED926C
:101C8000FC9213971082F8018081882311F042E0C2
:101C900001C041E060E0CE01DF91CF911F910F9133
:101CA000FF90EF90DF90CF90BF90AF909F908F907C
:101CB0007F900C94F8238F929F92AF92BF92CF9215
:101CC000DF92EF92FF92CF93DF93EC016A017B01E9
:101CD000FC01E05AF74F80809180A280B38020E021
:101CE00030E0A901C701B6010E94383687FD45C022
:101CF000FE01E155F74F2081318142815381C701B7
:101D0000B6010E94C7371816C4F1A5019401C70196
:101D1000B6010E943C369B01AC010E94C13523EF05
:101D200034E045EB5FE30E94103820E030E040E80B
:101D30005EE30E94103820E030E04FE753E40E9459
:101D400010384B015C0120E030E04FE753E40E9483
:101D5000C737181694F0FE01E85AF74FC082D182B7
:101D6000E282F382C501B4010E94A936462F63E0E6
:101D7000CE010E949F0B80E001C088E0DF91CF91EF
:101D8000FF90EF90DF90CF90BF90AF909F908F909B
:101D90000895FC01E05AF74F4083518362837383B7
:101DA0003897408151816281738120E00C945B0EF1
:101DB0005F926F927F928F929F92AF92BF92CF92DB
:101DC000DF92EF92FF920F931F93CF93DF931F92B7
:101DD0001F92CDB7DEB76C01CB01542E68E270E0E4
:101DE0000E94D2397B014C015C0123E0B694A79498
:101DF0002A95E1F73B01772486010559174FF80131
:101E00008081B301680F711D8AE79DE00E944D0635
:101E1000B501685F7F4F8AE79DE00E945A0B8AE711
:101E20009DE00E94C906F8018081B301680F711D11
:101E300041E050E08AE79DE00E94C6068AE79DE007
:101E40000E94A205892B41F1F82DF7708F2E88E0B2
:101E50008A0D89838AE79DE00E94AA0541E050E04F
:101E600060E070E004C0440F551F661F771F8A941E
:101E7000D2F7511002C0482B02C0409548234A8334
:101E8000F80160816E0D22E0AE014F5F5F4FC60129
:101E90000E945F2380E001C081E00F900F90DF91EE
:101EA000CF911F910F91FF90EF90DF90CF90BF9057
:101EB000AF909F908F907F906F905F900895AF92BA
:101EC000BF92CF92DF92EF92FF920F931F93CF9327
:101ED000DF93CDB7DEB762970FB6F894DEBF0FBEC3
:101EE000CDBF8C010E94781A61E088E00E94A92F82
:101EF00061E088E00E94702F61E085E30E94702F0E
:101F000061E089E00E94702F60E089E00E94A92FC3
:101F1000F801E05AF74F80E090E0A6E9B3E480834F
:101F20009183A283B38360E0C8010E948E0C680194
:101F300083E9C81A87EFD80AD6014C9161E0C8013D
:101F40000E949F0B5801B4E9AB1AB7EFBB0AF50129
:101F5000408162E0C8010E949F0B40E063E0C8013D
:101F60000E949F0BD801ED91FC910680F781E02D36
:101F7000C8011995BC0185E89EE00E9475326AE4AB
:101F800072E085E89EE00E947532D801ED91FC91E7
:101F90000484F585E02DC8011995BC0185E89EE013
:101FA0000E9482326DE472E085E89EE00E94753204
:101FB000D801ED91FC910284F385E02DC8011995BB
:101FC000BC0185E89EE00E94823260E672E085E80E
:101FD0009EE00E9475327801BBE9EB1AB7EFFB0A6D
:101FE000F701608171814AE050E085E89EE00E943F
:101FF000823363E973E085E89EE00E947532F80160
:10200000E959F74F608171814AE050E085E89EE030
:102010000E94823363E973E085E89EE00E94753296
:10202000F801E759F74F608171814AE050E085E897
:102030009EE00E94883367E772E085E89EE00E9498
:1020400075324AE050E0D5016C9185E89EE00E942F
:102050006B3367E872E085E89EE00E9475324AE0E3
:1020600050E0F601608185E89EE00E946B33B12C60
:10207000A12CA1E0BA1202C084E001C082E0A8163F
:1020800008F0B9C04AE06A2DCE0101960E943935A8
:102090004AE06B2DCE010D960E9439356DE872E055
:1020A000CE0107960E940B35BE01635F7F4FCE01C4
:1020B00007960E9492356FE872E00E94A535BE0136
:1020C0006F5F7F4F0E94923563EA72E00E94A535F0
:1020D000BC0185E89EE00E946732CE0107960E940F
:1020E0009D34CE010D960E949D34CE0101960E9432
:1020F0009D34CA2CD12CF1E0BF1661F0F601EE0F31
:10210000FF1FEE0FFF1FEE0DFF1D418552856385FA
:1021100074850BC0F601EE0FFF1FEE0FFF1FEE0DD3
:10212000FF1D418D528D638D748D22E030E085E876
:102130009EE00E948B344AE06A2DCE0101960E94F7
:1021400039354AE06B2DCE010D960E9439356DE888
:1021500072E0CE0107960E940B35BE01635F7F4F90
:10216000CE0107960E94923566EA72E00E94A5357C
:10217000BE016F5F7F4F0E94923563EA72E00E945A
:10218000A535BC0185E89EE00E946732CE01079626
:102190000E949D34CE010D960E949D34CE01019681
:1021A0000E949D3481E0F601EE0FFF1FEE0FFF1F2E
:1021B000EE0DFF1DB81629F0618972898389948913
:1021C00004C061A572A583A594A525EA34ED48E66F
:1021D00053E50E941038AB01BC0122E030E085E8F5
:1021E0009EE00E9489346BEB72E085E89EE00E94DD
:1021F0008232A3943ECFB394B2E0BB1239CF6FEBDF
:1022000072E085E89EE00E947532F801E559F74FCB
:102210004AE050E0608185E89EE00E946B3364E113
:1022200073E085E89EE00E947532F801E256F74FB0
:10223000408151816281738122E030E085E89EE037
:102240000E948B346CED72E085E89EE00E9475324E
:10225000F801EE55F74F408151816281738122E090
:1022600030E085E89EE00E948B346FEE72E085E8F6
:102270009EE00E947532F801EA55F74F608170E0E8
:102280004AE050E085E89EE00E943F3368E073E05A
:1022900085E89EE00E947532F801EC59F74F6081A5
:1022A00070E04AE050E085E89EE00E943F3364E23F
:1022B00073E085E89EE00E947532F801E955F74F1A
:1022C000408151816281738122E030E085E89EE0A7
:1022D0000E948B346CE373E085E89EE00E947532C7
:1022E000F801E555F74F408151816281738122E009
:1022F00030E085E89EE00E948B3464E573E085E879
:102300009EE00E947532F801E155F74F40815181FE
:102310006281738122E030E085E89EE00E948B3488
:1023200062960FB6F894DEBF0FBECDBFDF91CF919E
:102330001F910F91FF90EF90DF90CF90BF90AF90E3
:1023400008958F929F92AF92BF92CF92DF92EF92B9
:10235000FF921F93CF93DF93EC016A017B01FC0195
:10236000E955F74F24EA30E74DE75FE3608171817B
:10237000828193810E9410389B01AC01C701B60194
:102380000E94C73787FDAFC02EEA37E441E85FE31C
:10239000FE01E555F74F60817181828193810E9432
:1023A00010389B01AC01C701B6010E9438361816DF
:1023B0000CF499C020E030E048E452E4C701B601D3
:1023C0000E9410384B015C0120E030E04AE754E401
:1023D0000E94383687FD87C020E233EB41E85CE499
:1023E000C501B4010E94C73718160CF47CC020E068
:1023F00030EE41E854E4C501B4010E943C360E942D
:10240000D03726EA3BE944E550E40E9410382EE834
:102410003DE543E150E40E943C360E94A936162F68
:1024200070E0665F7F4F882777FD8095982F0E9428
:10243000D7369B01AC0160E070E080E090E40E9440
:10244000733820E030EE41E055E40E941038A501D9
:1024500094010E943C369B01AC0160E070E080E09A
:1024600095E40E94C0354B015C0120E030E0A901F9
:102470000E94C73720E030E040E05FE387FD05C001
:10248000C501B4010E94C13504C0C501B4010E9458
:10249000C0350E94A4365B01CB0166E09695879516
:1024A0006A95E1F71295107F182B67E18AE79DE0A6
:1024B0000E944306612F8AE79DE00E94FA056A2D7B
:1024C000660F660F62608AE79DE00E94FA058AE760
:1024D0009DE00E94C906C45AD74FC882D982EA82B9
:1024E000FB8280E001C088E0DF91CF911F91FF90D7
:1024F000EF90DF90CF90BF90AF909F908F90089516
:102500004F925F926F927F928F929F92AF92BF9203
:10251000CF92DF92EF92FF920F931F93CF93DF93AF
:102520001F921F92CDB7DEB78C01FC01EC5AF74F1A
:1025300081E0808360E088E00E94A92F64EF71E071
:1025400080E090E00E94C12D48018BEA881A87EF55
:10255000980AF40111821082E8E2AE2EB12CE12C2F
:10256000F12CF8E16F2E77247A946801F5E9CF1AFF
:10257000F7EFDF0A4E2C69827A82F60160816E0DD8
:1025800022E0AE014F5F5F4FC8010E945F23F6015A
:1025900060816E0D21E0AE014F5F5F4FC8010E9468
:1025A0001C1E89818F3F09F04BC078E1572E59825C
:1025B0001A82F6016081640D22E0AE014F5F5F4F29
:1025C000C8010E945F23F6016081640D21E0AE0125
:1025D0004F5F5F4FC8010E941C1E8981811130C06E
:1025E00080EF850D89837A82F6016081640D22E097
:1025F000AE014F5F5F4FC8010E945F235394FDE11E
:102600005F12D5CF6FE773E085E89EE00E947532D8
:102610004AE050E0B70185E89EE00E94373369E860
:1026200073E085E89EE00E948232F40120813181CE
:10263000C50188972817390719F4F401B182A082DF
:10264000FFEFEF1AFF0A88E2A80EB11CE8E0EE16D1
:10265000F10409F08FCFF401608171814AE050E00C
:1026600085E89EE00E9482336AE673E085E89EE09A
:102670000E94823240E050E46CE176E4C8010E949E
:10268000A1110F900F90DF91CF911F910F91FF90AB
:10269000EF90DF90CF90BF90AF909F908F907F9002
:1026A0006F905F904F9008952F923F924F925F925C
:1026B0006F927F928F929F92AF92BF92CF92DF9252
:1026C000EF92FF920F931F93CF93DF93CDB7DEB7B7
:1026D000A9970FB6F894DEBF0FBECDBF2C016D8B4E
:1026E0002DB73EB73BA32AA38C010D5A174F81E0AB
:1026F000D8018C93F201EC5AF74F8081811103C00D
:10270000C2010E948012ED898E2F90E0FC01E05AF8
:10271000F109E735F10508F0ABC6EE58FF4F92011D
:1027200024593F4F19010C94083AF201E05CF74F2D
:1027300080819181892B09F098C642E050E0B20176
:102740006B5A774FF5C0F201E05CF74F80819181C1
:10275000892B09F08AC6D9011C92912C92012B5A1F
:10276000374F3A872987720135E9E31A37EFF30AC1
:1027700088248394A92CB12CE985FA8580819181E4
:1027800068E270E00E94D239A616B70608F070C65B
:1027900008E010E0D7018C91B501680F711D8AE740
:1027A0009DE00E944D06B8018AE79DE00E945A0B09
:1027B0008AE79DE00E94C906F7018081B501680F94
:1027C000711D41E050E08AE79DE00E94C6068AE75D
:1027D0009DE00E94A205892B51F18AE79DE00E94AD
:1027E000AA056C01612C712CDD24C601062C02C0E7
:1027F000959587950A94E2F781709927F1E08F27E4
:10280000898341E050E0BE016F5F7F4FC2010E94AB
:10281000831B2FEF621A720A38E06316710429F7DE
:102820000F5F1F4F0D30110509F0B4CF02C0D10169
:102830008C9293949FCFF201E05CF74F208131811D
:102840007596808191812817390709F00EC6C2015B
:102850000E94AB0B07C6F201E05CF74F80819181CB
:10286000029709F002C6D201AB5BB74F2D913C91A4
:102870001197F901E259FF4FE40DF51D8081918117
:102880002E5F3F4F2D933C93F201EB5AF74F20817F
:1028900031818217930708F07BC068E270E00E94E4
:1028A000D2398C016B01DD247201F5E9EF1AF7EFE3
:1028B000FF0AD7018C91B601680F711D8AE79DE070
:1028C0000E944D06B80113E0769567951A95E1F7D9
:1028D000685F7F4F8AE79DE00E945A0B8AE79DE080
:1028E0000E94C906F7018081B601680F711D41E0A1
:1028F00050E08AE79DE00E94C6068AE79DE00E94BC
:10290000A205892BC9F08AE79DE00E94AA059927B4
:10291000077002C0959587950A95E2F7817099270F
:10292000F1E08F27898341E050E0BE016F5F7F4F68
:10293000C2010E94831B96C581E098C5F201E05C4C
:10294000F74F80819181039709F08FC5D201AB5B6E
:10295000B74F8D919C911197FC01E259FF4FE40D07
:10296000F51D60817181F201E80FF91FE059FF4FF9
:10297000408103968D939C93F201EB5AF74F80812F
:1029800091816817790720F4C2010E94D80E4DC3C7
:1029900085E06CC5F201E05CF74F80819181892B65
:1029A00009F063C5D9011C9289E00E94DF2FD3C4CE
:1029B000F201E05CF74F80819181019709F055C5E4
:1029C000359680819181D201A80FB91FA259BF4FBE
:1029D0006C91019691838083623020F489E00E949B
:1029E000A92FDEC488E021C3F201E05CF74F8081AB
:1029F0009181892B09F039C5F901108244E050E03A
:102A0000B201685A774FADC4F201E05CF74F8081A4
:102A10009181049709F029C5D201AB5BB74F8D9125
:102A20009C911197FC01E259FF4FE40DF51D408187
:102A300051816281738104968D939C9321E0C20140
:102A40000E945B0EF2C2F201E05CF74F808191813F
:102A5000892B09F00AC5F901108244E050E0B20167
:102A6000645A774F7EC4F201E05CF74F8081918118
:102A7000049709F0FAC4D201AB5BB74F8D919C91DA
:102A80001197FC01E259FF4FE40DF51D4081518182
:102A90006281738104968D939C93C2010E94A1115F
:102AA000C4C2F201E05CF74F80819181019709F087
:102AB000DCC4D201AB5BB74F8D919C911197F201B1
:102AC000E80FF91FE259FF4FE08101968D939C9327
:102AD000E23008F034C1BBE1EB9FF0011124E05C6F
:102AE000F14F81818983F901108236C4F201E05CE3
:102AF000F74F80819181029709F0B7C43596208104
:102B00003181A201420F531FDA01A259BF4F8C91AC
:102B100011966C912E5F3F4F318320830E94B42326
:102B2000A5C4F201E05CF74F80819181019709F023
:102B30009CC4359680819181D201A80FB91FA259FA
:102B4000BF4F2C91019691838083223008F0F7C00B
:102B5000D1011C92BBE12B9FF0011124E05CF14FED
:102B6000E181C2018B59974FF0E0EE0FFF1FEE0F8E
:102B7000FF1FE80FF91F213029F081859285A38579
:102B8000B4854BC2818D928DA38DB48D46C2F20166
:102B9000E05CF74F80819181059709F066C4359616
:102BA00020813181D201A20FB31FA259BF4F4C9196
:102BB000C901019691838083D1011C924423E1F0E5
:102BC000413009F0BCC040915C0ED901A159BF4F02
:102BD000A40DB51D8D919D910D90BC91A02D2B5FE5
:102BE0003F4F31832083F20134E0439FE00DF11D1C
:102BF0001124E258F74F9BC04091410ED901A159D1
:102C0000BF4FA40DB51D8D919D910D90BC91A02D30
:102C10002B5F3F4F31832083F20124E0429FE00D80
:102C2000F11D1124E259F74F82C0F201E05CF74F29
:102C300080819181019709F018C435968081918136
:102C4000D201A80FB91FA259BF4F2C9101969183B1
:102C50008083223008F073C0F10110823BE1239F92
:102C6000F0011124E05CF14FE181C2018B59974FD3
:102C7000F0E0EE0FFF1FEE0FFF1FE80FF91F2130EE
:102C800029F081899289A389B489C7C181A592A5B8
:102C9000A3A5B4A5C2C1F201E05CF74F8081918188
:102CA000059709F0E2C3359620813181D201A20F48
:102CB000B31FA259BF4F4C91C901019691838083E4
:102CC000D1011C924423D9F04130C9F540915C0EEA
:102CD000D901A159BF4FA40DB51D8D919D910D90A6
:102CE000BC91A02D2B5F3F4F31832083F20134E054
:102CF000439FE00DF11D1124E257F74F18C040919A
:102D0000410ED901A159BF4FA40DB51D8D919D91C3
:102D10000D90BC91A02D2B5F3F4F31832083F2019A
:102D200024E0429FE00DF11D1124EA58F74F808303
:102D30009183A283B383C2010E946B0C99C385E087
:102D400074C1F201E05CF74F80819181892B09F019
:102D50008CC3F901108244E050E0B201605A774F11
:102D600000C3F201E05CF74F80819181049709F084
:102D70007CC3D201AB5BB74F8D919C911197FC0145
:102D8000E259FF4FE40DF51DC080D180E280F38051
:102D900004968D939C9320E030E0A901C701B60111
:102DA0000E94C7371816CCF4F201EC59F74F808116
:102DB000882331F03497C082D182E282F38252C3F9
:102DC000D201A256B74FCD92DD92ED92FC921397AD
:102DD0001082C2010E946B0C45C388E047C3F20118
:102DE000E05CF74F80819181892B09F03EC3D901C6
:102DF0001C9211E020E030E0A901E25AFF4F60810F
:102E00007181828193810E94383618160CF410E08B
:102E10001983A2C2F201E05CF74F80819181019792
:102E200009F023C3359680819181D201A80FB91F83
:102E3000A259BF4F2C91019691838083E75AFF4F8F
:102E4000222329F010821182128213820CC0D20137
:102E5000A05AB74F8D919D910D90BC91A02D80836C
:102E60009183A283B383C2010E946B0C99C2F201C9
:102E7000E05CF74F008111810A30110508F4F5C2BA
:102E8000359680819181DC01A259BF4FA40DB51DFB
:102E90002D913D914D915C9129873A874B875C87B5
:102EA0009C012C5F3F4F31832083DC01AE58BF4F24
:102EB000A40DB51D6D907C90DC01AC58BF4FA40DE6
:102EC000B51D4D915D916D917C91498B5A8B6B8BAA
:102ED0007C8BD201A80FB91FA858BF4FFC900B964E
:102EE000918380830B30110541F070968081918130
:102EF0000B960817190709F0B8C2FBE46F16F1E04A
:102F00007F0608F091C020E030E04AE754E469858C
:102F10007A858B859C850E943C3620E030E44CE12C
:102F200057E40E94103820E030E040E855E40E9469
:102F3000383687FF79C0D1011C92F201EB5AF74F66
:102F4000808191810B960817190719F4C2010E941C
:102F5000AB0B0E949E2D6D877E878F87988B882470
:102F60008394F1FE812CAA24A394F0FEA12CF201FB
:102F7000E45AF74FC080D180E280F38009891A8932
:102F80002B893C89A30169857A858B859C850E9464
:102F90007128F101808381116BC20E949E2D2D85C5
:102FA0003E854F855889621B730B840B950B0E94DD
:102FB000D5366B017C01B30180E090E00E94D536EC
:102FC00020E030E04AE754E40E9410389B01AC0155
:102FD000C701B6010E943C366D837E838F8398873C
:102FE00044E050E0BE016B5F7F4FC2010E94831B33
:102FF00044E050E067E57EE0C2010E94831B44E0AC
:1030000050E062E77EE0C2010E94831BF201E05AB9
:10301000F74F80819181A281B38189839A83AB83A9
:10302000BC8344E050E09AC181E0D1018C9320C27E
:10303000F201EB5AF74F20813181C9010B96759748
:10304000408151814817590709F00FC2EDB7FEB70B
:10305000F98FE88FD1011C92F201EB5BF74F808171
:103060009181DC01A259BF4FA40DB51D4D915D9119
:103070006D917C91498B5A8B6B8B7C8BAC014C5F37
:103080005F4F51834083DC01AE58BF4FA40DB51D87
:103090006D907C90DC01AC58BF4FA40DB51D4D91D7
:1030A0005D916D917C914E8F5F8F68A379A3D20162
:1030B000A80FB91FA858BF4F1C910B96918380830E
:1030C0006DB77EB7621B730B0FB6F8947EBF0FBE51
:1030D0006DBF8DB79EB701969A878987DC01280F4F
:1030E000391F80E090E07F01A217B307A1F0F7013C
:1030F00040815181B201640F751F62597F4FFB01FE
:1031000060814F5F5F4FF701518340836D9366236A
:1031100059F30196E9CF869D9001879D300D969DCC
:10312000300D11242B34314008F0D2C020E030E0C3
:103130004AE754E469897A898B899C890E943C36E4
:1031400020E030E44CE157E40E94103820E030E009
:1031500040E855E40E94383687FFBAC0C2010E9499
:103160001C0C0E949E2D6A8F7B8F8C8F9D8F212C33
:10317000312C92012B5A374F3DA32CA3A201445965
:103180005F4F5E874D87812F8270682F70E07FA32D
:103190006EA311701E8B1F8AC201845A974F99A784
:1031A00088A7ACA1BDA18D919C9128163906F0F598
:1031B000AD85BE858C91811135C0E985FA85E20D1A
:1031C000F31D8081882371F141E0B101C2010E94A9
:1031D000D80E88248394EEA1FFA11E161F060CF0C2
:1031E000812CAA24A3942E893F89121613060CF071
:1031F000A12CA8A5B9A5CD90DD90ED90FC900E8DE9
:103200001F8D28A139A1A30169897A898B899C899D
:103210000E947128ED85FE85808340E0B101C201E6
:103220000E94D80EFFEF2F1A3F0ABBCFED85FE8517
:103230008081811152C00E949E2D2A8D3B8D4C8D24
:103240005D8D621B730B840B950B0E94D5366B0151
:103250007C01B30180E090E00E94D53620E030E0B0
:103260004AE754E40E9410389B01AC01C701B60143
:103270000E943C366D837E838F83988744E050E0C4
:10328000BE016B5F7F4FC2010E94831B44E050E090
:1032900067E57EE0C2010E94831B44E050E062E7E4
:1032A0007EE0C2010E94831BF201E05AF74F808149
:1032B0009181A281B38189839A83AB83BC8344E0EB
:1032C00050E0BE016F5F7F4FC2010E94831B05C0AB
:1032D00081E0F201E459FF4F8083488D598D0FB68C
:1032E000F8945EBF0FBE4DBFC3C0F201E05CF74F64
:1032F00080819181019709F0B8C0D9011C9235965F
:1033000080819181D201A80FB91FA259BF4F2C9182
:1033100001969183808361E0211101C060E0C201C8
:103320000E948E0CA5C0F201E05CF74F8081918174
:10333000892B09F09AC0F901108288E00CC0F201D3
:10334000E05CF74F80819181892B09F08EC0D90113
:103350001C9272968081898341E050E0BE016F5FCC
:103360007F4FC2010E94831B83C0F201E05CF74FD4
:1033700080819181019709F078C035968081918193
:10338000D201A80FB91FA259BF4F2C91019691836A
:1033900080833D96222319F081E0808301C0108252
:1033A000F101108265C0F201E05CF74F80819181EC
:1033B000892B09F05AC0D9011C92F801CBCFF20138
:1033C000E05CF74F80819181019709F04EC03596FE
:1033D00080819181D201A80FB91FA259BF4F2C91B2
:1033E000019691838083222321F081E0D8018C9380
:1033F00039C0F801108236C0F201E05CF74F8081DD
:103400009181892B91F5F901108288E00E94DF2FCC
:1034100021E0892B09F020E029839ECFF201E05CB6
:10342000F74F80819181019701F5359680819181D7
:10343000D201A80FB91FA259BF4F2C9101969183B9
:103440008083222359F060E088E00E94A92F64EF76
:1034500071E080E090E00E94C12D04C061E088E04E
:103460000E94A92FD1011C9203C086E0F101808344
:103470006D89C2010E94431EF201E459FF4F808111
:103480002AA13BA10FB6F8943EBF0FBE2DBFA9964F
:103490000FB6F894DEBF0FBECDBFDF91CF911F9165
:1034A0000F91FF90EF90DF90CF90BF90AF909F90E3
:1034B0008F907F906F905F904F903F902F900895E6
:1034C0008627682F62956827062E66956695602583
:1034D000062E669560256770082E892F66950794DD
:1034E0006795902D862706946795902586270895E1
:1034F000CF92DF92EF92FF920F931F93CF93DF93C0
:1035000000D01F92CDB7DEB78C01CE0101966C01C1
:103510009FE0E92EF12CD801ED91FC910088F18912
:10352000E02DB701C8011995F60181936F01FFEFF6
:10353000EF1AFF0A23E1E216F10469F789819A8103
:10354000AB81BC818F3F9F4FAF4FBF4FE1F14981AE
:103550005A816B817C8126E085E89EE00E941A31C9
:103560008AE79DE00E9439060E94D70A0E942B0537
:1035700008591F4FD8016D937D938D939C9313979A
:1035800064E374E085E89EE00E947532F8014081B2
:1035900051816281738122E030E085E89EE00E94E3
:1035A000893466E474E085E89EE00F900F900F90F8
:1035B0000F90DF91CF911F910F91FF90EF90DF90CF
:1035C000CF900C94823280E092ECA1E0B0E089834D
:1035D0009A83AB83BC83CE0101966C018FE0E82E09
:1035E000F12CD6014D916D01D801ED91FC9102882D
:1035F000F389E02DB701C8011995BFEFEB1AFB0A5B
:10360000E3E1EE16F10469F7A2CFCB010C94753C0F
:10361000CB01642F0C947D3C08958F929F92AF92C2
:10362000BF92CF92DF92EF92FF920F931F93CF93AF
:10363000DF9328E634E0FC0131832083E45BF74F1D
:1036400060833997118210823696108239971182E1
:1036500010823596118210823296118210823A962B
:103660001082E12CF12C00E010E0C8010E94753CB2
:10367000A82EC80107960E94753C8E2CC0E0D0E0B1
:10368000B12CA094B094C82ED12CC094D094CE016B
:103690008E0D9F1DC697C4F4B5010C2E02C0759502
:1036A00067950A94E2F761709C2E980C892D0E9410
:1036B000702FB6010C2E02C0759567950A94E2F73B
:1036C0006170892D0E94A92F2196C830D105F9F685
:1036D0000F5F1F4FE8E0EE0EF11C0730110529F6D1
:1036E000DF91CF911F910F91FF90EF90DF90CF90DE
:1036F000BF90AF909F908F90089528E634E0FC0132
:103700003183208308951F93CF93DF93FB0120E043
:1037100030E0DC01A95BB74F2417350781F0119128
:10372000BC01620F731FCD91DC9111976C0F7D1F4F
:10373000EB01C259DF4F18832F5F3F4FEDCF8D91C3
:103740009C911197820F931F8D939C93DF91CF9142
:103750001F910895CF93DF93FC01E359FF4F6081E0
:10376000DC01A459BF4F67FF0EC020E8260F20835D
:1037700022E02C93DC01ED91FC910488F589E02D89
:10378000DF91CF911994FC01E05CF74F20813181EA
:1037900021503109820F931FEC01C259DF4F8881FC
:1037A0008C9331832083DF91CF9108956F927F9224
:1037B0008F929F92AF92BF92CF92DF92EF92FF9241
:1037C0000F931F93CF93DF93EC019C01275B374F3F
:1037D00059016D3721F481E0F9018083AEC0F90110
:1037E00080819E012D5B374F7901882309F49EC0AB
:1037F00080E26827F701808191819E01245B374F29
:103800004901FE01EE5BF74F6F018E01005C174F1F
:10381000009759F4E55DF7406083F90180818823C2
:10382000A9F18FEF9FEF33961EC08130910581F48F
:1038300067FF08C083E08083862F8F77F8011082AE
:10384000818324C082E08083862F90E0F8010BC042
:103850008230910559F42081233041F4F8018081B0
:103860009181860F911D9183808310C0F601208184
:10387000821B9109F801208131818217930730F46E
:103880008C0F9D1FFC01E259FF4F6083F401808182
:10389000882369F03E01F1EB6F1AF7EF7F0AF3011D
:1038A000808191810E94601AF30191838083F701E6
:1038B000208131812F5F3F4F31832083F40140818C
:1038C000F6015081F80180819181850F911D840F4F
:1038D000911D840F911D2817390711F5F7011182E9
:1038E0001082FE01EB5BF74F11821082329611823B
:1038F0001082442329F0389680819181892B19F414
:10390000CE010E94AA1BFE01E55BF74F8081882350
:1039100039F0C359DF4F80589881981301C0108245
:10392000F5018081882349F0108207C06E3709F0C5
:1039300061CFF70111821082F3CFDF91CF911F91F8
:103940000F91FF90EF90DF90CF90BF90AF909F903E
:103950008F907F906F900895FF920F931F93CF9356
:10396000DF931F92CDB7DEB78C01F62E88E08983F6
:1039700069816837E8F58AE79DE00E9443068AE797
:103980009DE00E94C906811130C0FF2041F041E056
:1039900050E0BE016F5F7F4FC8010E94831B69E446
:1039A00074E085E89EE00E9475324AE050E069814B
:1039B00085E89EE00E9464336DE574E085E89EE052
:1039C0000E94753240E150E0698185E89EE00E94E6
:1039D000643362E674E085E89EE00E94823261E032
:1039E00070E080E090E00E94C12D89818F5FBFCFA1
:1039F0000F90DF91CF911F910F91FF900895CF937A
:103A0000C62F83E8860F823090F46DE785E89EE04C
:103A10000E94B530E091850EF091860E60E26C2731
:103A20000190F081E02D85E89EE0CF91199485E822
:103A30009EE0CF910C94B5308F929F92AF92BF923F
:103A4000CF92DF92EF92FF920F931F93CF93DF936A
:103A5000EC018C017C0120ECE21A27EFF20A845B76
:103A6000974F6C015E0193EBA91A97EFB90AF70122
:103A70008081918198012C1B3D0BF6012817390795
:103A8000C8F48081980122593F4F4901882351F0A1
:103A9000F9016081F501808191810E94601AF50130
:103AA00091838083F4016081CE010E94FF1C0F5F2F
:103AB0001F4FDDCF8081882369F08E01035B174F94
:103AC000F8016081CE010E94FF1CF8016181CE01E6
:103AD0000E94FF1CF70111821082C95BD74F198227
:103AE0001882DF91CF911F910F91FF90EF90DF909F
:103AF000CF90BF90AF909F908F900895BF92CF923C
:103B0000DF92EF92FF920F931F93CF93DF93EC011D
:103B1000B62E8C01005C174FFC01E95BF74F8081EA
:103B20009181F801918380836EE785E89EE00E9491
:103B3000B5307E01F4EBEF1AF7EFFF0AF701808151
:103B4000882381F08FEF9FEF6E01F3EBCF1AF7EF31
:103B5000DF0AF601918380836B2D0E94601AF601C3
:103B6000918380836B2DCE010E94FF1CF801608140
:103B70007181F70180816038710580F4882371F1CB
:103B80007E01F3EBEF1AF7EFFF0AF70180819181D5
:103B90000E94601AF7019183808320C08823B1F0CE
:103BA0007068672F7E01F3EBEF1AF7EFFF0AF7015A
:103BB000808191810E94601AF70191838083F801CE
:103BC00060810E94601AF70191838083F8018081EF
:103BD00091819068692FCE010E94FF1CF8016081DD
:103BE000CE01DF91CF911F910F91FF90EF90DF9069
:103BF000CF90BF900C94FF1C0F931F93CF93DF9334
:103C00001F92CDB7DEB78C01698341E050E0BE0161
:103C10006F5F7F4F0E94831BF801E359FF4F608164
:103C2000C8010E947E1DC8010E941C1D0F90DF91DB
:103C3000CF911F910F910895FF920F931F93CF93F0
:103C4000DF938A01422F8AE79DE00E94C306C0E00D
:103C50008AE79DE00E94A205892B71F0FF24F3946E
:103C6000FC0EC8018C0F911DEC018AE79DE00E94BB
:103C7000AA058883CF2DECCF8C2FDF91CF911F9198
:103C80000F91FF9008956F927F928F929F92AF92C3
:103C9000BF92CF92DF92EF92FF920F931F93CF9339
:103CA000DF93CDB7DEB769970FB6F894DEBF0FBECE
:103CB000CDBF8C018DB69EB6862F90E0FC01E058FA
:103CC000F109EF31F10508F0D5C4E753FF4F980132
:103CD000205C374F79010C94083AD9018D919C9161
:103CE000892BF1F4D801ED91FC910280F381E02D54
:103CF000C8011995FC0101900020E9F7AF0141507E
:103D00005109481B590BD801ED91FC910280F381B8
:103D1000E02D62C0D9018D919C91019709F49FC358
:103D200086E0F801E459FF4F86C4F9018081918152
:103D3000892BB1F7D801ED91FC910480F581E02D3C
:103D4000C8011995FC0101900020E9F7AF0141502D
:103D50005109481B590BD801ED91FC910480F58164
:103D6000E02D3AC0F90180819181892BC9F6D801F3
:103D7000ED91FC910680F781E02DC8011995FC01B9
:103D800001900020E9F7AF0141505109481B590B40
:103D9000D801ED91FC910680F781E02D1DC0F9015D
:103DA00080819181892B09F0BBCFD801ED91FC91E5
:103DB0000084F185E02DC8011995FC0101900020D7
:103DC000E9F7AF0141505109481B590BD801ED915A
:103DD000FC910084F185E02DC801498F588F199519
:103DE000498D588DBC0134C4F90180819181892BA2
:103DF00009F096CFD801ED91FC910284F385E02D76
:103E0000C8011995FC0101900020E9F7AF0141506C
:103E10005109481B590BD801ED91FC910284F3859F
:103E2000E02DDACFF90180819181892B09F078CFDB
:103E3000D801ED91FC910484F585E02DC801199518
:103E4000FC0101900020E9F7AF0141505109481BE6
:103E5000590BD801ED91FC910484F585E02DBCCF80
:103E6000F90180819181892B09F05ACFD801ED9118
:103E7000FC910684F785E02DC8011995FC0101909D
:103E80000020E9F7AF0141505109481B590BD801F7
:103E9000ED91FC910684F785E02D9ECFF90180819C
:103EA0009181892B09F03CCF4AE050E06EE774E045
:103EB000CFC3D9018D919C91029709F031CFF801C0
:103EC000EB5BF74F20813181A801420F531FDA01CC
:103ED000A259BF4F8C9111966C912E5F3F4F318349
:103EE00020830E94702FC2C3F901808191810297C3
:103EF00009F016CFF801EB5BF74F20813181A80163
:103F0000420F531FDA01A259BF4F8C9111966C9149
:103F10002E5F3F4F318320830E94A92FA7C3D90171
:103F20008D919C91019709F0FBCEF801EB5BF74F67
:103F300020813181D801A20FB31FA259BF4F8C91AC
:103F40002F5F3F4F318320830E94DF2FF5C2F9019D
:103F500080819181029709F0E3CEF801EB5BF74F86
:103F600020813181D801A20FB31FA259BF4F8C917C
:103F7000A9014F5F5F4F51834083D901A159BF4FC2
:103F8000A00FB11F6D917C912D5F3F4F3183208336
:103F90000E94562E6BC3C80184599F4F26E0DC0156
:103FA0002C93F701208131812230310508F462C35E
:103FB000ADB6BEB6F801EB5BF74F40815181D80139
:103FC000A40FB51FA259BF4F6C914F5F5F4F518334
:103FD0004083462F50E0ADB7BEB7A41BB50B0FB65C
:103FE000F894BEBF0FBEADBF11966D0122303105F2
:103FF00011F4613031F04D5F5F4F2417350709F040
:104000007BC07C2D3601262D271B261788F42081A6
:104010003181A801420F531F42595F4FDA014C9181
:104020002F5F3F4F31832083D3014D933D01EBCF71
:10403000D7012D913C9122303105B1F020813181A1
:10404000D901A259BF4FA00FB11FED90FC902E5F78
:104050003F4F31832083B9EEEB16B3E0FB0638F017
:1040600029E0FC01208348C0EE24E394F12CDC011C
:104070001C92F092730DE092720DC80182599F4F0D
:104080009093770D8093760D80E0688F0E942603D1
:10409000688D613029F4F60180810E94B40412C059
:1040A000D092700DC0926F0D60936D0D10926C0DDB
:1040B00085EC94E090936B0D80936A0DD6018C9102
:1040C0000E949A040E942A048091720D9091730DAF
:1040D0002091740D3091750D28173907C9F70E948A
:1040E0004904EE0CFF1CF801E95BF74F80819181D8
:1040F000E80EF91EF182E0820FB6F894BEBE0FBE44
:10410000ADBEB8C2F90180819181039709F008CE54
:10411000D801AB5BB74F8D919C911197FC01E2598F
:10412000FF4FE00FF11F60817181F801E80FF91F67
:10413000E059FF4F408103968D939C93D801ED91F8
:10414000FC910288F389E02DC80119958FC2F9010D
:1041500080819181029709F0E3CDD801AB5BB74F25
:104160008D919C911197FC01E259FF4FE00FF11FD7
:104170006081718102968D939C93D801ED91FC91A1
:104180000088F189E02DC8011995D6C1F901808117
:104190009181029709F0C4CDF801EB5BF74F808164
:1041A00091819801280F391FD901A259BF4F6C91F5
:1041B0001196EC90029691838083CE0101960E9425
:1041C0000508CE0101960E94F307F12CBE01615F44
:1041D0007F4FCE0101960E942808F394EF14B0F7A8
:1041E000980124593F4F7901882309F422C248E0FD
:1041F00050E0BE01615F7F4FC8010E94831B16C261
:10420000D9018D919C910B9709F08ACDD801AB5BB8
:10421000B74F2D913C911197A801420F531FFA01FE
:10422000E259FF4F60816901EFEFCE1ADE0A119665
:10423000DC92CE923E01FFE06F0E711C80E090E0B8
:10424000B62CA72CC00ED11E7601E80EF91E7EE614
:10425000E70EF11CF701F080F301F1923F010196A6
:104260008830910589F7FA01E958FF4FF0803196BF
:10427000E080255F3F4F2D933C93CE0101960E9435
:104280000508CE0101960E94D0066B2D7A2DCE0135
:1042900001960E94CB0740E06F2DCE0101960E944F
:1042A0006D07F12CFE1409F4E1C1CE0101960E94C4
:1042B000AF078F8B41E050E0BE01695E7F4FC801C0
:1042C0000E94831BF394EECFD9018D919C910B97A3
:1042D00009F026CDD801AB5BB74F2D913C911197DA
:1042E000A801420F531FFA01E259FF4F6081690193
:1042F000EFEFCE1ADE0A1196DC92CE923E01FFE07D
:104300006F0E711C80E090E0B62CA72CC00ED11E61
:104310007601E80EF91E7EE6E70EF11CF701F0804B
:10432000F301F1923F0101968830910589F7FA0176
:10433000E958FF4FF08031964081255F3F4F2D9324
:104340003C93CE010196498F0E940508CE0101964B
:104350000E94D0066B2D7A2DCE0101960E94CB07CC
:10436000498D6F2DCE0101960E946D077FC1D90145
:104370008D919C91029709F0D3CCF801EB5BF74F3C
:10438000808191819801280F391FD901A259BF4F0F
:104390006C911196EC900296918380834E2D8AE762
:1043A0009DE00E94C306F12C8AE79DE00E94A205D1
:1043B000892B79F08AE79DE00E94AA05898341E074
:1043C00050E0BE016F5F7F4FC8010E94831BF394D2
:1043D000EBCFF801E459FF4FFE1409F44AC181E024
:1043E0002AC1F90180819181892B09F499CC680156
:1043F000FBEBCF1AF7EFDF0AD6018D919C91119755
:10440000F801E80FF91FE259FF4F608101968D9383
:104410009C938AE79DE00E944306B12C2B2D30E04F
:10442000F7018081918101972817390798F4F601E7
:1044300080819181F801E80FF91FE259FF4F6081F7
:104440000196D6018D939C938AE79DE00E94FA0520
:10445000B394E4CF8AE79DE00E94C90607C1F80142
:10446000EB5BF74F80819181D801A80FB91FA2594A
:10447000BF4F2C910196918380838CB5211102C08E
:10448000806201C08F7D8CBDF1C0F9018081918176
:10449000019709F045CCF801EB5BF74F80819181E2
:1044A000D801A80FB91FA259BF4F2C910196918333
:1044B00080839CB5822F83709C7F892B8CBD8DB5AA
:1044C00022FB222720F98E7F822B8DBD18C0D901B7
:1044D0008D919C91019709F023CCF801EB5BF74F8C
:1044E00080819181D801A80FB91FA259BF4F2C918B
:1044F0000196918380838CB5837F282B2CBDE95D49
:10450000F740B7C0F90180819181019709F008CC8B
:10451000F801EB5BF74F80819181D801A80FB91F9B
:10452000A259BF4F2C910196918380832EBD00002C
:104530000DB407FEFDCF8EB5898341E050E0BE018A
:104540006F5F7F4F85C0D9018D919C91892B09F0B8
:10455000E7CBF801EA59FF4F40815181B8016E5F06
:104560007F4F76C0F90180819181892B09F0D8CBEA
:104570008091640D9091650DA091660DB091670DCD
:1045800089839A83AB83BC8344E050E0D8CFD901C0
:104590008D919C91049709F0C3CBD801AB5BB74FC9
:1045A0002D913C911197F901E259FF4FE00FF11F56
:1045B00060817181828193812C5F3F4F2D933C9369
:1045C0000E943B0353C0F90180819181892B09F03E
:1045D000A7CB0E940D039A83898342E050E0AFCFBE
:1045E000D9018D919C91029709F09ACBD801AB5BD0
:1045F000B74F2D913C911197F901E259FF4FE00F10
:10460000F11F808191812E5F3F4F2D933C939C0140
:1046100022503109F801E459FF4F7F01263031055E
:1046200040F40E94040380E00E94CD03D7011C9255
:1046300021C085E0F70180831DC0D9018D919C9137
:10464000892B09F06DCB44E050E0B80168597F4FE9
:10465000C8010E94831B0AC0F90180819181892BC6
:1046600009F05ECB61E0C8010E94AC1CF801E4597E
:10467000FF4F10827801FCE6EF0EF11CD7016C9120
:10468000C8010E94FC1DF70180810FB6F8949EBE00
:104690000FBE8DBE69960FB6F894DEBF0FBECDBFBC
:1046A000DF91CF911F910F91FF90EF90DF90CF900E
:1046B000BF90AF909F908F907F906F900895EF92F2
:1046C000FF920F931F93CF93DF931F921F92CDB74B
:1046D000DEB7122F8AE79DE049835A830E94430682
:1046E0004981042FE42E5A81F52E8E2D801B8117CF
:1046F00040F4F70161917F018AE79DE00E94FA058D
:10470000F4CF8AE79DE00F900F90DF91CF911F913A
:104710000F91FF90EF900C94C906CF93DF93EC01BB
:1047200085E89EE00E940830181619064CF485E8CA
:104730009EE00E942130682FCE010E94D61BF0CF50
:10474000DF91CF9108952091740D3091750D809176
:10475000720D9091730D2817390721F40E944904B6
:1047600081E0089580E00895CF93DF93D82FC62F7E
:10477000811109C0662321F06130B1F560E001C00C
:1047800061E08DE01DC0813079F5613049F030F095
:10479000623061F0633041F560E01DC061E01BC034
:1047A00060E08CE00E94A92F61E019C060E08CE01D
:1047B0000E94A92F60E08BE00E94A92F61E08AE0AF
:1047C0000E94A92F8BE1D89FF0011124E05CF14FEA
:1047D000C18380E00AC08CE00E94A92F60E08BE0DA
:1047E0000E94A92F60E0EBCF85E0DF91CF91089583
:1047F0009093790E8093780E6093400E40935B0EF9
:1048000060E078EB88E097E40E943B0361E08DE094
:104810000E94702F61E08CE00E94702F61E08BE0BD
:104820000E94702F61E08AE00E94702F83E00E9456
:1048300004036091410E80E00E94B42360915C0EFD
:1048400081E00E94B42320E032E03093560E2093A2
:10485000550E80E090E0A0E0B4E48093570E909372
:10486000580EA093590EB0935A0E41E04093500E4B
:104870003093710E2093700E8093720E9093730E8E
:10488000A093740EB093750E40936B0E08950F9322
:104890001F93CF93DF93AB019BE1899FE00111242C
:1048A000C05CD14F9B01235331092A393340B0F00A
:1048B0009B81911110C09A819F5F9A8369816623C1
:1048C00021F061500E94B42303C081E08093760EF2
:1048D00083E08B8337C091509B8334C08091770EE7
:1048E000882309F18D899E89DB01A81BB90B9D01E5
:1048F0000E940E3A09891A892B893C89060F171FD5
:10490000281F391F098B1A8B2B8B3C8B8885998527
:10491000AA85BB85840F951FA11DB11D8887998726
:10492000AA87BB870FC08C819D818617970718F4D3
:104930007D836C8307C08E819F816817790710F48F
:104940007F836E83DF91CF911F910F91089580E057
:104950000C94472481E00C9447242F923F924F926D
:104960005F926F927F928F929F92AF92BF92CF92FF
:10497000DF92EF92FF920F931F93CF93DF93CDB708
:10498000DEB764970FB6F894DEBF0FBECDBF290126
:104990003A01E986FA860B871C871601BA8AA98A2A
:1049A0000E94103820E030E04AE754E40E943C3690
:1049B0009B01AC010E94C1356B017C0120E030E01D
:1049C000A9010E94C73720E030E040E05FE387FDA7
:1049D00005C0C701B6010E94C13504C0C701B601B8
:1049E0000E94C0350E94A4360E94D73620E030E0F5
:1049F00040E05FE30E9410386D837E838F83988749
:104A0000A30192016D817E818F8198850E943C3641
:104A100029853A854B855C850E9410380E94253691
:104A20000E94A9368B010230110508F42DC3B8018C
:104A300080E090E00E94D5362D813E814F815885DF
:104A40000E943C36A30192010E94103869837A8348
:104A50008B839C83D1016D937D938D939C9313974E
:104A600029853A854B855C850E94C73718160CF45A
:104A700008C3A301920169817A818B819C810E9484
:104A80003C366B017C019B01AC0160E070E080E092
:104A900090E40E943C364B015C0120E030E0A9012B
:104AA0000E94C73720E030E040E05FE387FD05C0AB
:104AB000C501B4010E94C13504C0C501B4010E9402
:104AC000C0350E94A4360E94D736A70196010E94E5
:104AD00010389B01AC0160E070E080E090E40E943F
:104AE000C03520E030E0A9010E94C73720E030E067
:104AF000A901181664F5C501B4010E94C73720E06A
:104B000030E040E05FE387FD05C0C501B4010E94CD
:104B1000C13504C0C501B4010E94C0350E94A4364D
:104B20000E94D736A70196010E9410389B01AC0164
:104B300060E070E080E090E40E94C0352DEC3CEC39
:104B40004CEC5DE30E94383687FD9BC22CC0C5014A
:104B5000B4010E94C73720E030E040E05FE387FD0A
:104B600005C0C501B4010E94C13504C0C501B4012E
:104B70000E94C0350E94A4360E94D736A701960134
:104B80000E9410389B01AC0160E070E080E090E48E
:104B90000E94C0352DEC3CEC4CEC5DEB0E94C7371D
:104BA00018160CF46EC2A3019201C301B2010E9457
:104BB000C1359B01AC0169817A818B819C810E9406
:104BC000383687FF61C129813A814B815C81C301FD
:104BD000B2010E943C366D877E878F87988B1C8A36
:104BE0001B8AEB89FC89BF0180E090E00E94D536EA
:104BF0004B015C019B01AC016D857E858F85988999
:104C00000E94C03520E030E040E05FE30E9438368B
:104C100018163CF42B893C892F5F3F4F3C8B2B8B24
:104C2000E0CF29813A814B815C81C501B4010E94AA
:104C300010389B01AC01C301B2010E94C0354B0189
:104C40005C0120E030E0A9010E94C737181624F06B
:104C5000B7FAB094B7F8B094A501940169817A814C
:104C60008B819C810E943C3669837A838B839C83F1
:104C70009B01AC0160E070E080E090E40E943C3673
:104C80004B015C0120E030E0A9010E94C73720E021
:104C900030E040E05FE387FD05C0C501B4010E943C
:104CA000C13504C0C501B4010E94C0350E94A436BC
:104CB0000E94D73629813A814B815C810E9410384D
:104CC0009B01AC0160E070E080E090E40E94C035A0
:104CD00020E030E0A9010E94C73720E030E0A901C0
:104CE000181674F5C501B4010E94C73720E030E002
:104CF00040E05FE387FD05C0C501B4010E94C135F6
:104D000004C0C501B4010E94C0350E94A4360E94AF
:104D1000D73629813A814B815C810E9410389B01F2
:104D2000AC0160E070E080E090E40E94C0352DECC2
:104D30003CEC4CEC5DE30E94383687FF2FC0A1C1EC
:104D4000C501B4010E94C73720E030E040E05FE3D6
:104D500087FD05C0C501B4010E94C13504C0C5016D
:104D6000B4010E94C0350E94A4360E94D736298122
:104D70003A814B815C810E9410389B01AC0160E05C
:104D800070E080E090E40E94C0352DEC3CEC4CECEF
:104D90005DEB0E94C73718160CF473C120E030E0B9
:104DA000A901C701B6010E94C73720E030E040E00A
:104DB0005FE387FD05C0C701B6010E94C13504C08D
:104DC000C701B6010E94C0350E94A4360E94D736A2
:104DD0009B01AC01C701B6010E94C03520E030E064
:104DE000A9010E94C73720E030E0A901181634F568
:104DF000C701B6010E94C73720E030E040E05FE322
:104E000087FD05C0C701B6010E94C13504C0C701B6
:104E1000B6010E94C0350E94A4360E94D7369B017D
:104E2000AC01C701B6010E94C03527E137EB41ED67
:104E300058E30E94383687FF27C023C1C701B60157
:104E40000E94C73720E030E040E05FE387FD05C007
:104E5000C701B6010E94C13504C0C701B6010E9456
:104E6000C0350E94A4360E94D7369B01AC01C70111
:104E7000B6010E94C03527E137EB41ED58EB0E94A7
:104E8000C73718160CF4FDC020E030E040E251E4D2
:104E9000C701B6010E94383687FF76C020E030E0B7
:104EA000A901C701B6010E94C73720E030E040E009
:104EB0005FE387FD05C0C701B6010E94C13504C08C
:104EC000C701B6010E94C0350E94A4360E94D736A1
:104ED0009B01AC01C701B6010E94C03520E030E063
:104EE000A9010E94C73720E030E0A901181634F567
:104EF000C701B6010E94C73720E030E040E05FE321
:104F000087FD05C0C701B6010E94C13504C0C701B5
:104F1000B6010E94C0350E94A4360E94D7369B017C
:104F2000AC01C701B6010E94C03527E137EB41ED66
:104F300058E30E94383687FF27C0A3C0C701B601D7
:104F40000E94C73720E030E040E05FE387FD05C006
:104F5000C701B6010E94C13504C0C701B6010E9455
:104F6000C0350E94A4360E94D7369B01AC01C70110
:104F7000B6010E94C03527E137EB41ED58EB0E94A6
:104F8000C73718160CF47DC02D813E814F8158859E
:104F9000C701B6010E9410386B017C0120E030E0AF
:104FA000A9010E94C73720E030E040E05FE387FDC1
:104FB00005C0C701B6010E94C13504C0C701B601D2
:104FC0000E94C0350E94A4360E94D7369B01AC01D6
:104FD000C701B6010E94C03520E030E0A9010E945F
:104FE000C73720E030E0A901181634F5C701B60133
:104FF0000E94C73720E030E040E05FE387FD05C056
:10500000C701B6010E94C13504C0C701B6010E94A4
:10501000C0350E94A4360E94D7369B01AC01C7015F
:10502000B6010E94C03527E137EB41ED58E30E94FD
:10503000383687FF26C033C0C701B6010E94C73784
:1050400020E030E040E05FE387FD05C0C701B60126
:105050000E94C13504C0C701B6010E94C0350E943C
:10506000A4360E94D7369B01AC01C701B6010E944D
:10507000C03527E137EB41ED58EB0E94C7371816D2
:1050800074F001501109CFCC20E030E040E05FE344
:105090006D817E818F8198850E94C135ADCCA989B3
:1050A000BA890D931C9364960FB6F894DEBF0FBEB9
:1050B000CDBFDF91CF911F910F91FF90EF90DF90C7
:1050C000CF90BF90AF909F908F907F906F905F90A8
:1050D0004F903F902F9008951092410E10925C0EC9
:1050E00008952F923F924F925F926F927F928F928C
:1050F0009F92AF92BF92CF92DF92EF92FF920F9367
:105100001F93CF93DF93CDB7DEB7C65CD1090FB63F
:10511000F894DEBF0FBECDBFC354DF4F5983488321
:10512000CD5BD040C154DF4F088319832A833B8372
:10513000CF5BD04026013701CF54DF4FA882C15B3F
:10514000D0408092770EAA2031F1AAE7AA2EAEE0D5
:10515000BA2EAE014B555F4F6A01E12C10E4F12EDF
:105160000CE916E4A30192010E94AD24CB55DF4F58
:10517000688179818A819B81C55AD0409B01AC01AD
:105180000E94C135CB55DF4F688379838A839B8327
:10519000C55AD04017C020E030E040E05FE30E94F5
:1051A0001038EAE7AE2EEEE0BE2EDE01AB55BF4F63
:1051B0006D01E12C10E4F12E0CE117E4A301920142
:1051C0000E94AD2480917A0E90917B0E880F991FDA
:1051D00090937B0E80937A0ECB55DF4F6881798157
:1051E0008A819B81C55AD0400E943B03B091410EF9
:1051F000C554DF4FB883CB5BD04081E0C555DF4F4E
:105200008883CB5AD04061E080E00E94B423E091D3
:105210005C0EC454DF4FE883CC5BD04083E0C455C0
:10522000DF4F8883CC5AD04063E081E00E94B423F2
:105230008091400EFE01E755FF4F808390915B0EF9
:10524000918320917A0E30917B0ECF54DF4F4881AD
:10525000C15BD040442311F13093730D2093720D44
:10526000F093700DE0936F0D92E090936D0D10929E
:105270006C0D25EC34E030936B0D20936A0D0E9489
:105280009A048DED94E090936B0D80936A0D87E402
:1052900094E29093690D8093680D06C0369527952A
:1052A0003093730D2093720DE090780EF090790E8C
:1052B000F701E859FF4F20E030EC4FE754E46081FC
:1052C0007181828193810E943C36C954DF4F68838B
:1052D00079838A839B83C75BD0401E015DE9250EDD
:1052E000311C3E0182E1680E711CCE01815B9F4F33
:1052F0002C01A9E04A0E511CF1013896C355DF4F2D
:10530000F983E883CD5AD040CE54DF4F8883C25B07
:10531000D040CA54DF4F9883C65BD04087010B59F9
:10532000174F9701245A374FC155DF4F39832883D0
:10533000CF5AD0408091400EF801CE54DF4FA88163
:10534000C25BD040CA54DF4FB881C65BD0409EE4F8
:1053500001900D929A95E1F7882341F0813061F434
:10536000F201208931894289538909C0D2012D91E6
:105370003D914D915C9103C020E030E0A901F8011E
:10538000DE0111969EE401900D929A95E1F7882333
:1053900041F0813061F4F301C08CD18CE28CF38C4C
:1053A00009C0D301CD90DD90ED90FC9003C0C12CDD
:1053B000D12C760160E876E988E19BE40E943C36D6
:1053C00020E030E040E85FE30E94C1354B015C0122
:1053D00020E836E948E15BE4C701B6010E941038D5
:1053E0009B01AC010E94C1352BED3FE049E450E444
:1053F0000E941038C155DF4FA881B981CF5AD040E3
:105400002D913D914D915C910E9410386B017C0172
:10541000A5019401C501B4010E9410384B015C0143
:10542000A7019601C701B6010E9410389B01AC018B
:10543000C501B4010E94C1350E94C3389B01AC0173
:10544000C954DF4F688179818A819B81C75BD040D5
:105450000E941038F10161937193819391931F0120
:10546000F4E06F0E711C24E0420E511CC355DF4F57
:1054700048815981CD5AD0402416350609F05ACFBB
:105480001092760EC155DF4F19821882CF5AD04044
:10549000C155DF4F88819981CF5AD040C354DF4F27
:1054A000A881B981CD5BD0408A179B0709F4D1C28E
:1054B0008091770E1092420E1092430E81110BC014
:1054C000EFEFF3E0F093470EE093460E1092450E97
:1054D0001092440E10C01092480E1092490E109275
:1054E0004A0E10924B0E1092510E1092520E1092C4
:1054F000530E1092540E10925D0E10925E0E882381
:1055000089F01092630E1092640E1092650E109244
:10551000660E10926C0E10926D0E10926E0E10921E
:105520006F0E0AC08FEF93E09093620E8093610E2E
:105530001092600E10925F0ECF54DF4F9881C15BC6
:10554000D0409923E1F10E942A040E94A3238823DA
:10555000E1F30E949E2DCE54DF4F688379838A83C6
:105560009B83C25BD040A091770ECA54DF4FA883C3
:10557000C65BD04080917A0E90917B0EFE01E5557E
:10558000FF4FC355DF4FF983E883CD5AD04000E485
:105590001EE09E012F5F3F4F2901AE01415B5F4F2F
:1055A0001A01612C712C9C0140E050E0CD53DF4F7B
:1055B000288339834A835B83C35CD0409AC080913F
:1055C000400E0E94B4044DED54E050936B0D409397
:1055D0006A0D87EA94E29093690D8093680D0E94AA
:1055E0002A040E94A3238823E1F380915B0E0E948A
:1055F000B404ADEDB4E0B0936B0DA0936A0DEAEA8C
:10560000F4E2F093690DE093680D0E942A040E9471
:10561000A3238823E1F39DCFCD53DF4F68817981A8
:105620008A819B81C35CD0400E94D5366B017C018E
:10563000D80151966D917D918D919C9154970E94C6
:10564000D5369B01AC010E94C135A70196010E948D
:105650003C360E94C338F201608371838283938356
:1056600020E030E040E852E40E9410389B01AC0199
:105670000E94C13523EF34E045EB5FE30E94103810
:105680000E94A936D1016D937C93F301E05CF14F48
:1056900082818823B9F1F301E05CF14F8281882394
:1056A00009F4B3C08195C355DF4FA881B981CD5AA4
:1056B000D0408C93B1E0B08BC355DF4FE881F981C6
:1056C000CD5AD0403196C355DF4FF983E883CD5A88
:1056D000D040FBE16F0E711C055E1F4F22E0220ED1
:1056E000311C34E0430E511C46E36416710409F486
:1056F00096C0CA54DF4FF881C65BD040FF2309F43F
:105700005AC08ACF80898111C6CFF80180849184E4
:10571000A284B3846485758586859785680D791D17
:105720008A1D9B1D0E94D5362AE037ED43E25CE3DB
:105730000E941038A70196010E943C366B017C0143
:1057400024EA30E74DE75FE3D80157966D917D91EC
:105750008D919C915A970E9410389B01AC01C70112
:10576000B6010E94C1356B017C01F801678B708F17
:10577000818F928F20E030E0A9010E94C73720E09E
:1057800030E040E05FE387FD05C0C701B6010E943D
:10579000C13504C0C701B6010E94C0350E94A436BD
:1057A000D80156967C936E935597F801848695861A
:1057B000A686B78670CFD80114966D917C91159707
:1057C00016968D919C911797681B790B96E0660F42
:1057D000771F9A95E1F7F1017183608380E090E093
:1057E0000E94D53623EF34E045EB5FE30E943C3660
:1057F00020E030E040E05CE30E941038D2016D937D
:105800007D938D939C93139746CF8181C355DF4F32
:10581000A881B981CD5AD0408C93108A4DCF009188
:10582000780E1091790EF801EC59F74F808188239A
:1058300009F470C08091420E81116CC03C97C08009
:10584000D180E280F38020E030E0A901C701B601F9
:105850000E94C73718160CF05DC0C555DF4F888110
:10586000CB5AD040EDE9F0E0EC0FFD1F24E08202BE
:10587000E00DF11D11242081318142815381698124
:105880007A818B819C810E9410384B015C01809150
:105890005D0E8111B5C02D813E814F815885C9545F
:1058A000DF4F688179818A819B81C75BD0400E94EC
:1058B00010389B01AC01C701B6010E94C1352B0114
:1058C0003C019B01AC01C501B4010E94C0356B01D4
:1058D0007C0120E030E0A9010E94C737181624F0AF
:1058E000F7FAF094F7F8F09420E030E040E05FE35E
:1058F000F801EE55F74F60817181828193810E949A
:1059000010389B01AC01C701B6010E94C7371816B9
:105910000CF47AC001E41EE0CE01815B9F4F6C0164
:10592000E12CF12CD6018D919C91893C9C4030F466
:10593000F80160816F5F8E2D0E94B42342E050E039
:10594000B6018091780E9091790E0E94831B6BEACC
:1059500070E06C0F7D1F6E0D7F1D41E050E0809167
:10596000780E9091790E0E94831BFFEFEF1AFF0AC9
:1059700022E0C20ED11C055E1F4F32E0E316F10497
:1059800089F685E89EE00E940830181619060CF486
:1059900060C00E949E2DCE54DF4F288139814A81FC
:1059A0005B81C25BD040621B730B840B950B0E9422
:1059B000D5366B017C0120E030E04AE754E4C15465
:1059C000DF4F688179818A819B81CF5BD0400E94C3
:1059D00010389B01AC01C701B6010E94383687FD23
:1059E000D8CFC155DF4F48815981CF5AD0404F5F42
:1059F0005F4FC155DF4F59834883CF5AD04048CDC0
:105A000020E030E0A90157CFF801E05AF74F20819C
:105A1000318142815381C501B4010E941038A30134
:105A200092010E943C366B017C0120E030E040E8AE
:105A30005FE30E94383687FF06C0C12CD12C80E876
:105A4000E82E8FE3F82EB701A601C8010E94C90E07
:105A500061CFC554DF4F6881CB5BD04080E00E94AE
:105A6000B423C454DF4F6881CC5BD04081E00E94F6
:105A7000B42380E0CA53DF4F0FB6F894DEBF0FBEE9
:105A8000CDBFDF91CF911F910F91FF90EF90DF90ED
:105A9000CF90BF90AF909F908F907F906F905F90CE
:105AA0004F903F902F9008951F920F920FB60F9234
:105AB00011242F933F938F939F93AF93BF93809124
:105AC0007D0E90917E0EA0917F0EB091800E309150
:105AD0007C0E23E0230F2D3720F40196A11DB11D6C
