:10000000B3C00000CDC00000CBC00000C9C00000DC
:10001000C7C00000C5C00000C3C00000C1C00000D0
:10002000BFC00000BDC00000A5C4000067C500003F
:10003000B7C00000B5C00000B3C00000B1C00000F0
:10004000AFC00000ADC00000ABC00000A9C0000000
:10005000A7C00000A5C00000A3C00000A1C0000010
:100060009FC00000B6C200009BC0000099C0000005
:1000700097C0000095C0000093C0000091C0000030
:100080008FC000008DC000008BC0000089C0000040
:1000900087C0000085C0000083C0000081C0000050
:1000A0007FC000007DC000007BC0000038065A06FB
:1000B0000B075A060B079C06BE060B07DE06F0066A
:1000C00036034C0069006E006B0062006F00740024
:1000D00020005500530042002D00530065007200BF
:1000E000690061006C002000410064006100700044
:1000F00074006500720000001A0342006100720083
:100100006F0062006F002C00200049006E00630049
:100110002E0000000403090409023E00020100C091
:10012000FA09040000010202010005240010010484
:100130002402060524060001070582030800FF09C2
:10014000040100020A000000070504021000050770
:100150000583021000051201100102000008EB03E4
:100160004B2001000102000111241FBECFEFD5E09A
:10017000DEBFCDBF11E0A0E0B1E0E0E8F2E102C0F7
:1001800005900D92A832B107D9F712E0A8E2B1E0CC
:1001900001C01D92A235B107E1F761D00C943E0970
:1001A0002FCFFC01A081B1816C9380819181019658
:1001B00091838083268137818217930721F484817C
:1001C0009581918380832FB7F894828593850196DA
:1001D000938782872FBF0895FC01A281B3818D91FF
:1001E000B383A28326813781A217B30721F4248128
:1001F0003581338322839FB7F8942285338521503C
:100200003109338722879FBF089580917C00807ECB
:1002100080937C0080917A00806480937A00809142
:100220007A0086FDFCCF809178002091790090E0E3
:10023000922B089584B7877F84BF88E10FB6F89426
:1002400080936000109260000FBE91E080E80FB6CE
:10025000F89480936100909361000FBE6EC3CF92BB
:10026000DF92EF92FF92CF93DF9380E8809361005B
:1002700081E08093610090EE95B994B92F9A90E453
:100280009EB998E19AB992E091BB90BB90917C00A5
:10029000906490937C0090917A00976890937A0094
:1002A000109245028093430280934202C1E0D5E060
:1002B000ACDFBC0180E090E07CD723E934EF47E17C
:1002C00054E473D72D9887FF02C02E9AF1CF2E9851
:1002D0008091450281110AC0669908C0C093450209
:1002E0001092850010928400D09381008091450285
:1002F0008130F1F6669941C080918400909185002B
:1003000085389E41A8F2109281005C9A2F98109235
:10031000430290DFE4E3F2E02FB7F89484EB91E03E
:1003200091838083938382839583848384E392E0A3
:100330009783868380E890E0918780871386128672
:100340002FBFE8EAF1E02FB7F89488E291E09183BB
:100350008083938382839583848388EA91E0978363
:10036000868380E890E091878087138612862FBF6E
:10037000789410924102C5E00FC01092450298CFC8
:1003800080914502813009F0FFC0809142028111C5
:10039000FBC085B18F7985B980914302811105C178
:1003A0008FB7F89420913E0230913F028FBF809129
:1003B0003C0290913D022817390709F440C080E0C3
:1003C00091E0E7D57C0197FD3AC020914002E22FF1
:1003D000F0E0E35EFE4F808190E0E816F90649F513
:1003E000293020F42F5F2093400225C08EB3843043
:1003F00021F461E088EA91E0D4DE1092400283E0CB
:100400002D982E9A3FEF90E722E031509040204007
:10041000E1F700C000002D9A2E983FEF90E722E010
:10042000315090402040E1F700C00000815041F77A
:1004300002C0109240026E2D84E392E0B2DE2FB72C
:10044000F8948091B2019091B3012FBF009769F4A5
:100450002FB7F89480913E0290913F022FBF892BD5
:1004600071F184E392E0B8DE24C0209101012F7085
:100470002093E9002091E80020FFEACF8031910528
:1004800010F08FE090E0D82EE12CF12CDE1401F377
:10049000E091AA01F091AB01608180E091E011D57B
:1004A0003FEFE31AF30A8111D3CF88EA91E094DE9B
:1004B000EDCF9091C80095FFFCCF8093CE0080E0F7
:1004C00091E052D5BED48091420281111FC080912B
:1004D000450281110CC066990AC081E080934502F3
:1004E0001092850010928400C093810015C0669B15
:1004F00005C010924502109281000EC080918400C8
:100500009091850089309D4338F04BC0669B04C0B4
:10051000109242021092450278DE6C0180914402F2
:10052000E12CF12C81110EC0C701B60142D62FE695
:100530003BEE41E254E439D687FF12C081E080935C
:1005400044020EC0813061F4C701B60132D62FE6F5
:100550003BE543E354E48ED6181614F4109244029B
:10056000C701B60126D62CED36E745E154E41DD689
:1005700087FF03C081E08093430280914302813072
:1005800009F0FECE2D9A0BC080914402811103C068
:100590002D9A2E9801CF813009F0FECE2D982E9AFB
:1005A000FBCE81E080934302B7CF70D12F9A5C9845
:1005B00080E090E0DF91CF91FF90EF90DF90CF90BF
:1005C00008950895089580E091E056C480E091E098
:1005D00015C51F920F920FB60F9211242F933F93C0
:1005E0004F935F936F937F938F939F93AF93BF933B
:1005F000EF93FF936091CE008EB3843019F488EAB4
:1006000091E0CFDDFF91EF91BF91AF919F918F91DD
:100610007F916F915F914F913F912F910F900FBEFE
:100620000F901F901895CF93FC01818D813031F090
:10063000823011F0C0E003C0C0E201C0C0E3808D91
:10064000823009F4C860828D873031F0883031F013
:10065000863029F4C26003C0C46001C0C660109235
:10066000C9001092C8001092CA00248935894689B1
:100670005789CA01B9019695879577956795605C0A
:100680007D4B804F9F4F69D5215031093093CD006C
:100690002093CC00C093CA0082E08093C80088E910
:1006A0008093C900CF910895292F33272230310537
:1006B00059F02330310569F021303105F9F482E138
:1006C00090E026E531E01EC08EE390E028E131E0C5
:1006D00019C099278130910541F08230910541F090
:1006E000892B61F4E4E1F1E005C0E8EFF0E002C03D
:1006F000E0ECF0E0849190E09F0104C080E090E0A5
:1007000020E030E0FA01318320830895982F97305C
:1007100058F59093E900981739F07091EC0020910A
:10072000ED005091F00003C0242F762F50E021FF00
:1007300019C03091EB003E7F3093EB003091ED001B
:100740003D7F3093ED003091EB0031603093EB0052
:100750007093EC002093ED005093F0002091EE0098
:1007600027FF07C09F5FD3CF8F708093E90081E0A0
:10077000089580E008950F931F93CF93DF93062F82
:10078000EC0110E0101771F19881992341F12C814F
:10079000E981FA817B81892F8F70873010F080E0AA
:1007A00022C0223010F056E001C052E028E030E0D4
:1007B00040E02E173F0720F44F5F220F331FF9CF81
:1007C0004295407F452B692F661F6627661F90E480
:1007D000799F90011124622B99DF882301F31F5F19
:1007E0002596D0CF81E0DF91CF911F910F91089591
:1007F00080914A0287FD05C08091E80080FF0DC00E
:1008000010C08091E80082FD04C08EB38111F9CF41
:1008100008958091E8008B7707C08EB38111ECCFEB
:1008200008958091E8008E778093E8000895809184
:10083000E4009091E50045E62091EC0020FF20C007
:100840002091E80020FD20C02EB3222389F025301E
:1008500089F02091EB0025FD0FC02091E40030913C
:10086000E5002817390741F3415041F0C901E4CFB1
:1008700082E0089583E0089581E0089584E008957A
:100880002091E80022FFE0CF80E0089566D06DD08F
:10089000E0EEF0E0808181608083E8EDF0E080812F
:1008A0008F77808319BCA7EDB0E08C918E7F8C93FD
:1008B00080818F7E80831092490208950F931F9349
:1008C000CF93DF934AD051D0C8EDD0E088818F77A5
:1008D000888388818068888388818F7D888319BC1C
:1008E0001EBA10924602109248021092470200EE81
:1008F00010E0F80180818B7F80838881816088830C
:1009000042E060E080E002DFE1EEF0E080818E7F97
:100910008083E2EEF0E08081816080838081886066
:100920008083F80180818E7F8083888180618883C5
:10093000DF91CF911F910F910895E8EDF0E0808154
:100940008F7E8083E7EDF0E080818160808384E0AA
:1009500082BF81E080934902B1CFE8EDF0E0808171
:100960008E7F80831092E20008951092DA00109238
:10097000E10008951F920F920FB60F9211242F934A
:100980003F934F935F936F937F938F939F93AF9317
:10099000BF93EF93FF938091E10082FF0AC08091A3
:1009A000E20082FF06C08091E1008B7F8093E1002E
:1009B00047D28091DA0080FF1BC08091D80080FF71
:1009C00017C08091DA008E7F8093DA008091D90081
:1009D00080FF0BC080E189BD82E189BD09B400FEC2
:1009E000FDCF81E08EBBEDDD03C019BC1EBAEADD90
:1009F0008091E10080FF17C08091E20080FF13C06A
:100A00008091E2008E7F8093E2008091E20080611D
:100A10008093E2008091D80080628093D80019BC56
:100A200085E08EBB0DD28091E10084FF2CC08091C7
:100A3000E20084FF28C080E189BD82E189BD09B45C
:100A400000FEFDCF8091D8008F7D8093D8008091EB
:100A5000E1008F7E8093E1008091E2008F7E8093A1
:100A6000E2008091E20081608093E2008091460282
:100A7000811104C08091E30087FF02C084E001C0BF
:100A800081E08EBBDDD18091E10083FF26C08091A3
:100A9000E20083FF22C08091E100877F8093E10024
:100AA00082E08EBB109246028091E1008E7F80939F
:100AB000E1008091E2008E7F8093E2008091E2006D
:100AC00080618093E20042E060E080E01FDE809180
:100AD000F00088608093F000B3D1FF91EF91BF9157
:100AE000AF919F918F917F916F915F914F913F91C6
:100AF0002F910F900FBE0F901F9018951F920F927D
:100B00000FB60F9211242F933F934F935F936F93E0
:100B10007F938F939F93AF93BF93CF93EF93FF9365
:100B2000C091E900CF708091EC001092E9008091B3
:100B3000F000877F8093F000789477D01092E900DE
:100B40008091F00088608093F000C093E900FF91ED
:100B5000EF91CF91BF91AF919F918F917F916F91C5
:100B60005F914F913F912F910F900FBE0F901F906B
:100B7000189520915002309151022617370748F0FE
:100B80006115710539F42091E8002E772093E80073
:100B900001C0B901FC0120E061157105B9F18EB306
:100BA000882309F43EC0853009F43DC08091E800F7
:100BB00083FD35C08091E80082FF06C08091E80087
:100BC00082FF27C080E008958091E80080FFE4CF95
:100BD0002091F3008091F20090E0922B6115710555
:100BE00059F08830910540F424912093F10031961A
:100BF000615071090196F2CF21E0089709F020E0D9
:100C00008091E8008E778093E800C6CF2111C7CF8E
:100C1000D5CF8EB3882329F0853081F604C081E0DA
:100C2000089582E0089583E008950F931F93CF9372
:100C3000DF9300D0CDB7DEB7EAE4F2E08091F100B7
:100C4000819382E0E235F807C9F7C0DC8091E800C3
:100C500083FFE1C020914A0230914B02832F90E044
:100C60008A30910508F0D7C0FC01EA5AFF4F97C2BD
:100C7000203881F0223809F0CEC080914E028F706A
:100C80008093E9008091EB0085FB882780F9109222
:100C9000E90006C08091470290914802911182605C
:100CA0009091E800977F9093E8008093F100109274
:100CB000F1008FC0822F8D7F09F0ADC0222319F083
:100CC000223061F0A8C080914C02813009F0A3C0AD
:100CD000333009F080E08093480228C080914C02B4
:100CE000811124C020914E022F7009F494C02093EA
:100CF000E9008091EB0080FF19C08091EB00333058
:100D000011F4806211C080618093EB0081E090E07B
:100D1000022E01C0880F0A94EAF78093EA0010922D
:100D2000EA008091EB0088608093EB001092E9006C
:100D30008091E800877F50C021116DC010914C0256
:100D40001F770FB7F8948091E800877F8093E800C1
:100D50004FDD8091E80080FFFCCF8091E300807838
:100D6000812B8093E30080688093E300112311F0CE
:100D700083E001C082E08EBB0FBF4DC020582230FF
:100D800008F049C0AE014F5F5F4F60914E02809105
:100D90004C0290914D0288DC009709F43CC02091F0
:100DA000E800277F2093E800BC0189819A81E1DE79
:100DB0008091E8008B778093E8002DC0203859F5AA
:100DC0008091E800877F8093E800809146028093BD
:100DD000F1008091E8008E778093E80009DD1BC068
:100DE000211119C090914C029230A8F48091E80032
:100DF000877F8093E80090934602FADC8091460258
:100E0000811104C08091E30087FF02C084E001C02B
:100E100081E08EBBD8DB8091E80083FF0AC080911F
:100E2000EB0080628093EB008091E800877F8093E5
:100E3000E8000F900F90DF91CF911F910F910895CF
:100E40000895CF938EB38823A9F08091E9008F7025
:100E50009091EC0090FF02C090E801C090E0C92F93
:100E6000C82B1092E9008091E80083FDDEDECF7090
:100E7000C093E900CF910895CF93DF93EC01FC017B
:100E800070968BE0DF011D928A95E9F782E08C83F2
:100E9000898783E08E8761E0CE0101966CDC882330
:100EA00061F061E0CE01069666DC882331F061E0F6
:100EB000CE010B96DF91CF915ECC80E0DF91CF9198
:100EC0000895CF93C62F2EB32430F1F4FC0144894A
:100ED000558966897789452B462B472BA9F0818157
:100EE0008F708093E9008091E80085FF04C0C09373
:100EF000F10080E00AC08091E8008E778093E800DE
:100F000096DC8823A1F301C082E0CF9108952EB32F
:100F1000243041F5FC014489558966897789452B40
:100F2000462B472BF9F081818F708093E900209147
:100F3000F3008091F20090E0922B892B89F0909140
:100F4000E8008091E8008E778093E80095FD08C066
:100F50006EDC811108C08091E8008E778093E800F4
:100F600080E0089582E008952EB3243089F4FC01D6
:100F70004489558966897789452B462B472B41F053
:100F800021812F702093E9002091E80020FDBFCF40
:100F900008952EB3243019F08FEF9FEF0895FC01D0
:100FA0004489558966897789452B462B472BA1F3C0
:100FB00086818F708093E9008091E80082FFECCFFA
:100FC0002091F3008091F20090E0922B892B21F088
:100FD0002091F10030E002C02FEF3FEF4091F3008D
:100FE0008091F20090E0942B892B29F48091E80005
:100FF0008B778093E800C90108950895CF93DF931C
:10100000EC018091E80083FFA5C0888190E02091E9
:101010004E0230914F022817390709F09BC080918A
:101020004B02813261F020F4803209F43EC092C05C
:10103000823209F46BC0833209F47CC08BC080918A
:101040004A02813A09F086C08091E800877F809348
:10105000E8008091E80080FFFCCF4C895D896E89B3
:101060007F894093F100BB27A72F962F852F809370
:10107000F100CB01AA27BB278093F100472F55270A
:10108000662777274093F100888D8093F100898D42
:101090008093F1008A8D8093F1008091E8008E7733
:1010A0008093E800DF91CF91A3CB80914A028132F7
:1010B00009F050C08091E800877F8093E80080911C
:1010C000E80082FD04C08EB38111F9CF43C0309196
:1010D000F1002091F1009091F1008091F1003C8BA2
:1010E0002D8B9E8B8F8B8091F100888F8091F100EA
:1010F000898F8091F1008A8F8091E8008B778093AF
:10110000E80076DBCE01DF91CF918DCA80914A0253
:10111000813201F58091E800877F8093E80068DBE9
:1011200080914C0290914D02998B888BCE01DF917A
:10113000CF9163CF80914A02813261F48091E800BF
:10114000877F8093E80054DB60914C02CE01DF91F1
:10115000CF9153CFDF91CF910895A1E21A2EAA1B10
:10116000BB1BFD010DC0AA1FBB1FEE1FFF1FA21757
:10117000B307E407F50720F0A21BB30BE40BF50B54
:10118000661F771F881F991F1A9469F760957095DD
:10119000809590959B01AC01BD01CF010895EE0FA4
:1011A000FF1F0590F491E02D099440D008F481E0F0
:1011B0000895E89409C097FB3EF49095809570954A
:1011C00061957F4F8F4F9F4F9923A9F0F92F96E993
:1011D000BB279395F695879577956795B795F11108
:1011E000F8CFFAF4BB0F11F460FF1BC06F5F7F4FA5
:1011F0008F4F9F4F16C0882311F096E911C07723B7
:1012000021F09EE8872F762F05C0662371F096E8BF
:10121000862F70E060E02AF09A95660F771F881F8E
:10122000DAF7880F9695879597F90895990F000832
:10123000550FAA0BE0E8FEEF16161706E807F907A8
:10124000C0F012161306E407F50798F0621B730B43
:10125000840B950B39F40A2661F0232B242B252BC4
:1012600021F408950A2609F4A140A6958FEF811D67
:10127000811D0895DBDF08F48FEF0895F894FFCF08
:10128000008310000001041000000182080000012A
:10129000000000000000000000000000702112109B
:0812A0000130121609122100B1
:00000001FF
