:1000000096C00000AFC00000ADC00000ABC0000053
:10001000A9C00000A7C00000A5C00000A3C0000048
:10002000A1C000009FC000009DC0000020C30000D0
:10003000C2C3000097C0000095C0000093C000003C
:1000400091C000008FC000008DC000008BC0000078
:1000500089C0000087C0000085C0000065C10000A5
:1000600081C000007FC000007DC000007BC0000098
:1000700079C000009704B9046A05B9046A05FB0455
:100080001D056A053D054F053403420061007200FD
:100090006F0062006F0020005500530042002D00E9
:1000A000530065007200690061006C00200041008F
:1000B00064006100700074006500720000001A03A3
:1000C0004200610072006F0062006F002C0020008F
:1000D00049006E0063002E000000040309040902B9
:1000E0003E00020100C0FA09040000010202010002
:1000F000052400100104240206052406000107055A
:1001000082030800FF09040100020A00000007053D
:1001100004021000050705830210000512011001FA
:1001200002000008EB034B20010001020001112432
:100130001FBECFEFD4E0DEBFCDBF11E0A0E0B1E045
:10014000E4E5FEE002C005900D92AC31B107D9F7AD
:1001500012E0ACE1B1E001C01D92A034B107E1F7BB
:1001600051D076C64DCFFC01A081B1816C938081C6
:10017000918101969183808326813781821793072D
:1001800021F484819581918380832FB7F8948285AF
:1001900093850196938782872FBF0895FC01A281E2
:1001A000B3818D91B383A28326813781A217B307D0
:1001B00021F424813581338322839FB7F8942285EB
:1001C000338521503109338722879FBF0895E1E6A7
:1001D000F0E080E8808381E0808384B7877F84BFFC
:1001E00088E10FB6F89480936000109260000FBE13
:1001F00091E080E80FB6F8948093610090936100DD
:100200000FBE26C2E4DFE8E2F2E02FB7F89488EAF6
:1002100091E091838083938382839583848388E2B2
:1002200092E09783868380E890E0918780871386A9
:1002300012862FBFECE9F1E02FB7F8948CE191E042
:100240009183808393838283958384838CE991E077
:100250009783868380E890E0918780871386128653
:100260002FBF78948FB7F8942091320230913302E7
:100270008FBF80913002909131022817390749F0E1
:1002800080E091E0E1D497FD04C0682F88E292E01D
:100290006ADF2FB7F8948091A6019091A7012FBF34
:1002A000009769F42FB7F89480913202909133024D
:1002B0002FBF892B61F188E292E070DF22C020918C
:1002C00001012F702093E9002091E80020FFEACF80
:1002D0008031910510F08FE090E0182FC0E0D0E061
:1002E0001C1701F3E0919E01F0919F01608180E075
:1002F00091E046D421968111D5CF8CE991E04EDF73
:10030000EFCF9091C80095FFFCCF8093CE0080E0A6
:1003100091E085D4F5D3A6CF0895089580E091E0CB
:100320000AC480E091E0BDC41F920F920FB60F92F5
:1003300011242F933F934F935F936F937F938F93EA
:100340009F93AF93BF93EF93FF936091CE008EB3D3
:10035000843019F48CE991E006DFFF91EF91BF91B1
:10036000AF919F918F917F916F915F914F913F914D
:100370002F910F900FBE0F901F901895CF93FC01F7
:10038000818D813031F0823011F0C0E003C0C0E2D5
:1003900001C0C0E3808D823009F4C860828D87304F
:1003A00031F0883031F0863029F4C26003C0C46077
:1003B00001C0C6601092C9001092C8001092CA0015
:1003C0002489358946895789CA01B9019695879547
:1003D00077956795605C7D4B804F9F4F11D521507D
:1003E00031093093CD002093CC00C093CA0082E045
:1003F0008093C80088E98093C900CF910895292F80
:1004000033272230310559F02330310569F021308E
:100410003105F9F482E190E02CE131E01EC08EE379
:1004200090E02EED30E019C099278130910541F020
:100430008230910541F0892B61F4EAEDF0E005C0CE
:10044000EEEBF0E002C0E8E8F0E0849190E09F017C
:1004500004C080E090E020E030E0FA0131832083A6
:100460000895982F953058F59093E900981739F032
:100470007091EC002091ED005091F00003C0242F0A
:10048000762F50E021FF19C03091EB003E7F309372
:10049000EB003091ED003D7F3093ED003091EB00AB
:1004A00031603093EB007093EC002093ED0050939B
:1004B000F0002091EE0027FF07C09F5FD3CF8F7021
:1004C0008093E90081E0089580E008950F931F93E1
:1004D000CF93DF93062FEC0110E0101769F198819C
:1004E000992339F12C81E981FA816B81892F8F70F1
:1004F000853010F080E021C0223010F056E001C0BD
:1005000052E028E030E040E02E173F0720F44F5F34
:10051000220F331FF9CF4295407F452B991F992712
:10052000991F6295660F660F607C692B9ADF88239E
:1005300009F31F5F2596D1CF81E0DF91CF911F9105
:100540000F9108958091380287FD05C08091E800E1
:1005500080FF0DC010C08091E80082FD04C08EB302
:100560008111F9CF08958091E8008B7707C08EB391
:100570008111ECCF08958091E8008E778093E80098
:1005800008958091E4009091E50045E62091EC000B
:1005900020FF20C02091E80020FD20C02EB32223A0
:1005A00089F0253089F02091EB0025FD0FC02091C6
:1005B000E4003091E5002817390741F3415041F03C
:1005C000C901E4CF82E0089583E0089581E00895B1
:1005D00084E008952091E80022FFE0CF80E00895B4
:1005E00040D042D08091D8008F778093D8008091FE
:1005F000D80080688093D8008091D8008F7D809348
:10060000D80084E089BD86E089BD09B400FEFDCF35
:100610001EBA10923402109236021092350242E055
:1006200060E080E01EDF8091E1008E7F8093E1003A
:100630008091E20081608093E2008091E200886016
:100640008093E2008091E0008E7F8093E000089527
:10065000E3E6F0E080818E7F808381E08093370243
:10066000BFCF1092E20008951092E10008951F920A
:100670000F920FB60F9211242F933F934F935F93D6
:100680006F937F938F939F93AF93BF93EF93FF935A
:100690008091E10082FF0AC08091E20082FF06C0E3
:1006A0008091E1008B7F8093E10029D28091E1006D
:1006B00080FF16C08091E20080FF12C08091E200AE
:1006C0008E7F8093E2008091E20080618093E2005F
:1006D0008091D80080628093D80019BC1EBA1DDEBC
:1006E0008091E10084FF2CC08091E20084FF28C04B
:1006F00084E089BD86E089BD09B400FEFDCF80910C
:10070000D8008F7D8093D8008091E1008F7E809308
:10071000E1008091E2008F7E8093E2008091E20010
:1007200081608093E20080913402811104C0809145
:10073000E30087FF02C084E001C081E08EBBECDDF6
:100740008091E10083FF26C08091E20083FF22C0F8
:100750008091E100877F8093E10082E08EBB109260
:1007600034028091E1008E7F8093E1008091E2006D
:100770008E7F8093E2008091E20080618093E200AE
:1007800042E060E080E06DDE8091F0008860809360
:10079000F000B5D1FF91EF91BF91AF919F918F91F3
:1007A0007F916F915F914F913F912F910F900FBE6D
:1007B0000F901F9018951F920F920FB60F92112451
:1007C0002F933F934F935F936F937F938F939F9359
:1007D000AF93BF93CF93EF93FF93C091E900CF7096
:1007E0008091EC001092E9008091F000877F809367
:1007F000F000789479D01092E9008091F000886040
:100800008093F000C093E900FF91EF91CF91BF91E9
:10081000AF919F918F917F916F915F914F913F9198
:100820002F910F900FBE0F901F90189520913E02B0
:1008300030913F022617370748F06115710539F4EA
:100840002091E8002E772093E80001C0B90120E054
:1008500061157105D1F13EB3332309F441C0353040
:1008600009F440C03091E80033FD38C03091E80011
:1008700032FF06C08091E80082FF2AC080E0089520
:100880003091E80030FFE4CF2091F20030E0FC012D
:10089000281B390BC9018E0F9F1F6115710551F07F
:1008A0008830910538F484918093F100319661503D
:1008B0007109F0CF21E0089709F020E08091E8006D
:1008C0008E778093E800CF01C3CF2111C4CFD2CF60
:1008D0008EB3882329F0853069F604C081E008953D
:1008E00082E0089583E008950F931F93CF93DF93E1
:1008F00000D0CDB7DEB7E8E3F2E08091F10081935C
:1009000082E0E034F807C9F70CDD8091E80083FF4E
:10091000E1C02091380230913902832F90E08A3073
:10092000910508F0D7C0FC01E65CFF4F8BC2203870
:1009300081F0223809F0CEC080913C028F70809304
:10094000E9008091EB0085FB882780F91092E9008F
:1009500006C080913502909136029111826090918B
:10096000E800977F9093E8008093F1001092F100E7
:100970008FC0822F8D7F09F0ADC0222319F0223065
:1009800061F0A8C080913A02813009F0A3C03330F1
:1009900009F080E08093360228C080913A028111EC
:1009A00024C020913C022F7009F494C02093E900E8
:1009B0008091EB0080FF19C08091EB00333011F47F
:1009C000806211C080618093EB0081E090E0022E94
:1009D00001C0880F0A94EAF78093EA001092EA00B7
:1009E0008091EB0088608093EB001092E900809189
:1009F000E800877F50C021116DC010913A021F7727
:100A00000FB7F8948091E800877F8093E8009ADD23
:100A10008091E80080FFFCCF8091E3008078812BFB
:100A20008093E30080688093E300112311F083E05A
:100A300001C082E08EBB0FBF4DC02058223008F0AD
:100A400049C0AE014F5F5F4F60913C0280913A0216
:100A500090913B02D4DC009709F43CC02091E8005F
:100A6000277F2093E800BC0189819A81DFDE809195
:100A7000E8008B778093E8002DC0203859F58091ED
:100A8000E800877F8093E800809134028093F10032
:100A90008091E8008E778093E80054DD1BC021111F
:100AA00019C090913A029230A8F48091E800877FB3
:100AB0008093E8009093340245DD809134028111E7
:100AC00004C08091E30087FF02C084E001C081E0A0
:100AD0008EBB24DC8091E80083FF0AC08091EB008C
:100AE00080628093EB008091E800877F8093E8002C
:100AF0000F900F90DF91CF911F910F91089508955E
:100B0000CF938EB38823A9F08091E9008F709091E4
:100B1000EC0090FF02C090E801C090E0C92FC82B04
:100B20001092E9008091E80083FDDEDECF70C09373
:100B3000E900CF910895CF93DF93EC01FC0170960B
:100B40008BE0DF011D928A95E9F782E08C8389872B
:100B500083E08E8761E0CE010196B8DC882361F0E6
:100B600061E0CE010696B2DC882331F061E0CE016F
:100B70000B96DF91CF91AACC80E0DF91CF910895C1
:100B8000CF93C62F2EB32430F1F4FC01448955894C
:100B900066897789452B462B472BA9F081818F7079
:100BA0008093E9008091E80085FF04C0C093F100C4
:100BB00080E00AC08091E8008E778093E800E1DC55
:100BC0008823A1F301C082E0CF9108952EB3243091
:100BD00021F5FC014489558966897789452B462B87
:100BE000472BD9F081818F708093E9008091F200CA
:100BF000882389F09091E8008091E8008E778093B7
:100C0000E80095FD08C0BDDC811108C08091E800B6
:100C10008E778093E80080E0089582E008952EB3F7
:100C2000243089F4FC014489558966897789452BEC
:100C3000462B472B41F021812F702093E900209112
:100C4000E80020FDC3CF08952EB3243019F08FEFB4
:100C50009FEF0895FC014489558966897789452B62
:100C6000462B472BA1F386818F708093E9008091FA
:100C7000E80082FFECCF8091F200882321F02091E0
:100C8000F10030E002C02FEF3FEF8091F2008111C0
:100C900005C08091E8008B778093E800C901089532
:100CA0000895CF93DF93EC018091E80083FFA5C006
:100CB000888190E020913C0230913D02281739074D
:100CC00009F09BC080913902813261F020F48032BA
:100CD00009F43EC092C0823209F46BC0833209F439
:100CE0007CC08BC080913802813A09F086C0809127
:100CF000E800877F8093E8008091E80080FFFCCFC8
:100D00004C895D896E897F894093F100BB27A72FAD
:100D1000962F852F8093F100CB01AA27BB278093C4
:100D2000F100472F5527662777274093F100888DDC
:100D30008093F100898D8093F1008A8D8093F1007A
:100D40008091E8008E778093E800DF91CF91FACB15
:100D500080913802813209F050C08091E800877F8D
:100D60008093E8008091E80082FD04C08EB3811179
:100D7000F9CF43C03091F1002091F1009091F10042
:100D80008091F1003C8B2D8B9E8B8F8B8091F1009D
:100D9000888F8091F100898F8091F1008A8F8091F6
:100DA000E8008B778093E800CDDBCE01DF91CF9117
:100DB000E5CA80913802813201F58091E800877F91
:100DC0008093E800BFDB80913A0290913B02998BBF
:100DD000888BCE01DF91CF9163CF80913802813231
:100DE00061F48091E800877F8093E800ABDB60913D
:100DF0003A02CE01DF91CF9153CFDF91CF91089589
:100E0000A1E21A2EAA1BBB1BFD010DC0AA1FBB1F0E
:100E1000EE1FFF1FA217B307E407F50720F0A21B80
:100E2000B30BE40BF50B661F771F881F991F1A94ED
:100E300069F760957095809590959B01AC01BD0117
:100E4000CF010895EE0FFF1F0590F491E02D099456
:040E5000F894FFCF44
:100E5400008310000001041000000182080000015A
:0C0E640000000000000000000000000082
:00000001FF
