:100000000C94A2010C94D3010C94D3010C94D30151
:100010000C94D3010C94D3010C94D3010C94D30110
:100020000C94D3010C94D3010C94D3010C94D30100
:100030000C94D3010C94D3010C94D3010C94D301F0
:100040000C94D3010C94D3010C94D3010C94D301E0
:100050000C94EA0A0C94D3010C94D3010C94C22C96
:100060000C94D3010C94EA300C9420310C94D301FD
:100070000C94D3010C94BF0A0C94D3010C94D301BB
:100080000C94D3010C94D3010C94D3010C94E4038D
:100090000C94D3010C94D3010C94D3010C94F5046B
:1000A0000C94D3010C94D3010C94D3010C94D30180
:1000B0000C94D3010C94D3010C94D3010C94D30170
:1000C0000C94D3010C94D3010C94D3010C94D30160
:1000D0000C94D3010C94D3010C94D3010C94D30150
:1000E0000C94D301B110BF1037114711BA11521738
:1000F0005217E611F61115125E12521752177C12A2
:10010000A112BC12E61234136E13C413D4131214CA
:100110002D143C1672168016481654169D16B816E5
:100120005217521752175217521752175217521787
:100130005217521752175217521752175217521777
:100140005217521752175217521752175217521767
:100150005217521752175217521752175217521757
:100160005217521752175217521752175217521747
:100170005217521752175217521752175217521737
:100180005217521752175217521752175A141E1657
:10019000C1148C1DB41DD11DEE1D311E131E4F1E2A
:1001A000781EAE1E931EEA1EC61EC61FA11FE51FA7
:1001B00083201F201021D620A91D64218621A12182
:1001C000C2216D1ED121E62102220F223C224B22A8
:1001D000EA2DEF2DF42DFE2D082E812E122E1A2E33
:1001E000222E2C2E362E402E4F2E592E812E632E4F
:1001F0006D2E772EA32EA62E952E992E9F2EDD2EB8
:10020000AA2EAE2EB42EB82EBC2EC22EC62ECA2EAC
:10021000DD2ED02ED42ED82E00000A0B02090C0D94
:100220000E080703040100000000000000000000A9
:1002300000000000000000000000000000000000BE
:10024000000000001211100000000000000000007B
:10025000000000000000000000000000000001029B
:1002600010202008081020401020408002010201C8
:100270000804020101020408102040808040201080
:1002800008040201800402018040201008040201D9
:100290000804020101020408102040800102040841
:1002A000102040800505050507050808080802021A
:1002B00002020A0A08080404040401010101010100
:1002C00001010303030303030303040707070C0CE3
:1002D0000C0C0C0C0C0C02020202060606060606AA
:1002E00006060B0B0B0B0B0B0B0B00002000230067
:1002F000260029002C002F0032000001000003011D
:100300000601090100002200250028002B002E0014
:100310003100340002010000050108010B0100005A
:100320002100240027002A002D00300033000101A5
:100330000000040107010A010A02E003F40ACE27C3
:1003400054310E0211241FBECFEFD1E2DEBFCDBF6C
:1003500000E00CBF14E0A0E0B2E0E8E8F5E700E060
:100360000BBF02C007900D92A63BB107D9F72FE053
:10037000A6EBB4E001C01D92A334B207E1F713E08D
:10038000C2E4D3E000E006C022970109FE010BBFE2
:100390000E944338C833D10780E00807A9F70E94BC
:1003A000A7020C94B23A0C9400008091060290913E
:1003B000070201969093070280930602089508951C
:1003C00086EB94E00E94C32280910602909107027E
:1003D00069E170E00E94E937892BD9F48091080D1A
:1003E000882389F08091090D81110BC0E091B6043A
:1003F000F091B7040688F789E02D86EB94E0199513
:1004000002C01092090D81E090E090930702809362
:100410000602089586EB94E00C94200B86EB94E0A2
:100420000C94310B80E1809391001092900085E054
:100430008093CC0D86E998E99093CE0D8093CD0DF5
:10044000909397008093960085E18093910085EDCD
:1004500091E09093CB0D8093CA0D81E08093710061
:1004600086EB94E00E947A1768E072E082EA9EE0F0
:100470000E94E3316FEF71E2605072404AE050E059
:1004800082EA9EE00E94AD326DE072E082EA9EE078
:100490000E94E33166EB74E0605072404AE050E045
:1004A00082EA9EE00E94AD3264E172E082EA9EE060
:1004B0000E94E33163E47FE0665B74404AE050E011
:1004C00082EA9EE00E94AD326AE172E082EA9EE03A
:1004D0000E94E33160913F0F7091400F61157105EB
:1004E00019F063547F4002C060E070E04AE050E0E1
:1004F00082EA9EE00E94AD3260E272E082EA9EE013
:100500000E94E3318DB79EB76FEF71E2681B790BE4
:100510004AE050E082EA9EE00E94AD3267E272E07B
:1005200082EA9EE00E94E33180913F0F9091400F5C
:100530006DB77EB7009719F463547F4002C0681B03
:10054000790B4AE050E082EA9EE00C94AD320E94C2
:10055000622D0E94DF010E941202C3EADFE20E94C4
:10056000E0012097E1F30E94A32FF9CF8091A80D1D
:1005700090E02091A90D821B910908952091A90D69
:100580008091A80D281750F4E22FF0E0E655F24FC5
:10059000808190E02F5F2093A90D08958FEF9FEF4A
:1005A0000895E091A90D8091A80DE81730F4F0E0CE
:1005B000E655F24F808190E008958FEF9FEF089508
:1005C0000895CF92DF92EF92FF920F931F93CF93F4
:1005D000DF937C01CB018A012091840D222389F0D5
:1005E000EB016B01C40ED51ECC15DD0569F06991D8
:1005F000D701ED91FC910190F081E02DC701199593
:10060000F3CF642F0E94CC04C801DF91CF911F91DA
:100610000F91FF90EF90DF90CF900895CF93DF93ED
:100620001F92CDB7DEB769832091840D2223D1F0CC
:100630002091850D203240F021E030E0FC01338331
:10064000228380E090E015C08091860DE82FF0E0D5
:10065000E957F24F998190838F5F8093860D809345
:10066000850D05C061E0CE0101960E94CC0481E0B9
:1006700090E00F90DF91CF910895FC0113821282D8
:1006800048EE53E060E070E04483558366837783EF
:1006900088E392E09183808308951092A90D1092CF
:1006A000A80D1092860D1092850D0C940F0481E018
:1006B0008093840D6093A70D1092860D1092850D86
:1006C00008950C9457030F93062F21E04091850D58
:1006D00067E87DE08091A70D0E9475041092860D59
:1006E0001092850D1092840D0F9108958F929F9214
:1006F000AF92BF92CF92DF92EF92FF920F931F9330
:10070000CF93DF93EC01F62ED42E48015901EE2051
:1007100019F10E9457031E2D143008F013E01150F8
:10072000B8F0E881F98128E0129FB0011124A501F9
:10073000940104C056954795379527956A95D2F749
:10074000CA01B9010190F081E02DCE011995E7CFE2
:1007500060E0CE010E9463034D2D413208F040E27B
:100760002C2D6AEA7DE08F2D0E942D041092A90D98
:100770008093A80DDF91CF911F910F91FF90EF9083
:10078000DF90CF90BF90AF909F908F900895CF92C1
:10079000EF920F931F93C22EE12C00E010E098011E
:1007A0000E9476031F910F91EF90CF90089521E062
:1007B0000C94C70321E00C94C70361E00C9463031D
:1007C00088E79DE00C943D031F920F920FB60F92A5
:1007D00011240BB60F922F933F934F935F936F9318
:1007E0007F938F939F93AF93BF93EF93FF93E0918A
:1007F000CA0DF091CB0D1995FF91EF91BF91AF917B
:100800009F918F917F916F915F914F913F912F9128
:100810000F900BBE0F900FBE0F901F901895109267
:100820003C0E81E080933A0E1092390E61E084E133
:100830000E94172F61E085E10E94172FE9EBF0E09D
:1008400080818E7F808380818D7F808388E4809308
:10085000B80085E48093BC000895413208F043C09D
:1008600090913C0E9111FCCF91E090933C0E20931F
:100870003A0E2FEF2093CF0D1092140E240F2093D9
:10088000130E90933B0E90913B0E880F892B809313
:100890003B0E8091390E813061F41092390E8091B7
:1008A0003B0E8093BB008091BC0083FDF8CF85ECAC
:1008B00001C085EE8093BC0080913C0E8130E1F355
:1008C0008091140E841710F44091140E25E13EE03F
:1008D000FB01D9018A2F821B841718F48D91819313
:1008E000F9CF842F089580E008950F93413208F0E6
:1008F0004AC090913C0E9111FCCF92E090933C0E37
:1009000000933A0E9FEF9093CF0D1092140E4093E8
:10091000130EFB0165E17EE0DB019A2F961B941715
:1009200018F491919D93F9CF10923B0E90913B0E4C
:10093000880F892B80933B0E8091390E813061F4B2
:100940001092390E80913B0E8093BB008091BC00C9
:1009500083FDF8CF85EC01C085EE8093BC00222397
:1009600021F080913C0E8230E1F38091CF0D8F3FDA
:1009700061F08091CF0D803251F08091CF0D8033A6
:1009800041F483E007C081E005C080E003C082E05D
:1009900001C084E00F910895613298F420913C0EDB
:1009A000243089F46093F10DFC0183EF9DE0DC01BC
:1009B0002A2F281B261718F421912D93F9CF80E0B8
:1009C000089581E0089582E0089585ED8093BC004C
:1009D0008091BC0084FDFCCF10923C0E089585EC04
:1009E0008093BC0010923C0E08951F920F920FB698
:1009F0000F9211240BB60F922F933F934F935F9357
:100A00006F937F938F939F93AF93BF93EF93FF93D6
:100A10008091B900887F803609F49EC078F58832CD
:100A200009F45DC090F4803109F456C038F488238D
:100A300009F4F5C0883009F44FC0F5C0883109F4D5
:100A40004EC0803209F45FC0EEC0803409F46AC041
:100A500058F4803309F457C0883309F0E4C0809318
:100A6000CF0D0E94EF04DFC0803509F44FC08835F8
:100A700009F45DC0883409F0D6C0D3C0883909F4C0
:100A8000C4C0A8F4883709F467C038F4883609F47C
:100A900063C0803709F460C0C6C0883809F4B5C0A7
:100AA000803909F45FC0803809F0BDC05BC0803B6D
:100AB00009F483C038F4803A09F466C0883A09F42E
:100AC0007CC0B1C0803C09F4A4C0883C09F4A1C03A
:100AD000883B09F487C0A7C080913B0E10C090915D
:100AE000140E8091130E981770F5E091140E81E0AA
:100AF0008E0F8093140EF0E0EB5EF14F80818093B7
:100B0000BB0085EC83C08093CF0D8BC0E091140EA9
:100B100081E08E0F8093140E8091BB00F0E0EB5EBD
:100B2000F14F80839091140E8091130E6BC0E09171
:100B3000140E81E08E0F8093140E8091BB00F0E0C4
:100B4000EB5EF14F808380913A0E81116AC081E0A3
:100B50008093390E84EA5EC083E080933C0E10924D
:100B6000D00DCFCF8091D00D803208F04EC0E091F3
:100B7000D00D81E08E0F8093D00D8091BB00F0E00E
:100B8000EF52F24F8083BDCF0E94EF048091D00DD1
:100B9000803230F4E091D00DF0E0EF52F24F10824D
:100BA0006091D00D70E0E091350EF091360E81ED40
:100BB0009DE019951092D00D36C084E080933C0ED4
:100BC0001092F20D1092F10DE091370EF091380E67
:100BD00019958091F10D811105C081E08093F10D8F
:100BE0001092F30DE091F20D81E08E0F8093F20DE3
:100BF000F0E0ED50F24F80818093BB009091F20DB8
:100C00008091F10D981708F47CCF85E88093BC00A3
:100C10000AC085EC8093BC0010923C0E04C0109278
:100C2000CF0D0E94E504FF91EF91BF91AF919F918D
:100C30008F917F916F915F914F913F912F910F9085
:100C40000BBE0F900FBE0F901F901895CF93CFB78C
:100C5000F89480913D0E811127C0E9EDF2E0849176
:100C6000E3E9F2E09491E82FF0E0EE0FFF1FE25E7F
:100C7000FC4FA591B4918C91892321F461E085E327
:100C80000E94172F61E085E30E94DE2E8CB5806103
:100C90008CBD8CB580648CBD61E084E30E94DE2E47
:100CA00061E083E30E94DE2E80913D0E8F5F809392
:100CB0003D0ECFBFCF910895FF920F931F93CF9317
:100CC000DF93FC010081C181D281F8948981F02EEB
:100CD000F0948F21898378941DE7115029F182E0E7
:100CE00090E00E94572D88818023B9F3F8948A817F
:100CF0008F218A838981802B8983789480EE91E08B
:100D00000E94572DF89489818F21898386E490E091
:100D10000E94572D8881802311E009F010E078941B
:100D20008AE991E00E94572D812FDF91CF911F9189
:100D30000F91FF9008951F93CF93DF93FC011081D3
:100D4000C181D281912F909560FF12C0F8948A8161
:100D500089238A838981812B89838AE090E00E949C
:100D6000572D8A81812B8A83789487E390E011C084
:100D7000F8948A8189238A838981812B898381E4FC
:100D800090E00E94572D8A81812B8A83789485E098
:100D900090E0DF91CF911F910C94572D0F931F93EB
:100DA000CF93DF93FC011081C181D281F8948981B6
:100DB000812B89838A81012F009580238A8383E098
:100DC00090E00E94572D8981802389838AE090E0FA
:100DD0000E94572DC881789485E390E00E94572D9A
:100DE0001C2381E009F480E0DF91CF911F910F91E6
:100DF0000895CF92DF92EF92FF920F931F93CF93BC
:100E0000DF931F92CDB7DEB76C01E62E08E010E04D
:100E1000FF24F39461E09F2D9E2109F460E0C60158
:100E200049830E949B06FF0C01501109498101155D
:100E3000110581F7411115C0F894D6011196ED9175
:100E4000FC91129791818C918095892381831196D1
:100E5000ED91FC91129792818C91809589238283E8
:100E600078940F90DF91CF911F910F91FF90EF90A9
:100E7000DF90CF900895EF92FF920F931F93CF933F
:100E8000DF938C01C8E0D0E0F12CEE24E394C8019C
:100E90000E94CE068111FE28EE0C2197C1F78F2DFE
:100EA000DF91CF911F910F91FF90EF900895CF9216
:100EB000DF92FF920F931F93CF93DF931F92CDB7D3
:100EC000DEB78C01F62E40E065E579830E94F906D5
:100ED000CF2C7981D72E88E0F82EF60161916F0131
:100EE00040E0C8010E94F906FA94B9F70F90DF912B
:100EF000CF911F910F91FF90DF90CF900895FC014B
:100F000013861586148627E030E0DF01A20FB31F99
:100F100013961C922115310519F021503109F5CF96
:100F200008951F93CF93DF93EC01162F60E0812F7C
:100F30000E94DE2E612F70E0FB01E25AFD4FE4912A
:100F4000E883FB01EC55FD4FE491F0E0EE0FFF1F4D
:100F5000E651FD4F859194919A838983CE01DF916B
:100F6000CF911F910C947F07AF92BF92CF92DF92E7
:100F7000EF92FF920F931F93CF93DF931F92CDB702
:100F8000DEB75C01E62ED72EFC01858581115DC0A0
:100F9000C5010E945C06811105C0F5011386158606
:100FA00014866EC040E060EFC5010E94F90601E0C2
:100FB000F12CC12C11E0C5010E94CE06682FC5019D
:100FC00069830E94CE066981613019F48130B9F4D9
:100FD00033C02F2D30E068131BC0F501838518172F
:100FE00030F4E20FF31F8381802349F402C0181705
:100FF00031F060E0193058F4F501148708C0F501AC
:10100000EF0DF11D8381802B838361E009C0C12E28
:10101000F501E20FF31F8381902F9095892383833D
:10102000C5010E949B061F5F000F11F4F39401E0BD
:10103000F7E0FF1508F0BFCF113438F0F501C38693
:10104000C11018C081E0858715C0F501138615868B
:10105000148680E0EE2DFD2D20E030E0D501A20FBA
:10106000B31F13969C9191932F5F3F4F283031050A
:10107000A9F706C0F5018381882339F381E0EACF1F
:101080000F90DF91CF911F910F91FF90EF90DF9024
:10109000CF90BF90AF900895ECE7F0E090819F7300
:1010A0009083208130E4839FC0011124282B20836A
:1010B0000895EAE7F0E09081987F90839081982BE3
:1010C0009083089580917A00877090E00895E1E818
:1010D000F0E08081887F808308950E9467081092E5
:1010E000850010928400E1E8F0E0808190913E0E4E
:1010F000892B80830895882321F080917C00806271
:1011000003C080917C008F7D80937C000895EBE785
:10111000F0E09081987F90839081982B9083089540
:10112000CF92DF92EF92FF92CF936B017C0180E12F
:101130008093810010928000A701960160E074E224
:1011400084E799E40E94AA3520E030E040E051E4D1
:101150000E9439370E9417366115710521E0820718
:10116000910528F421E020933E0ECB014CC061157F
:10117000710528E08207910568F422E020933E0E75
:10118000DC01CB0153E0B695A795979587955A95C5
:10119000D1F739C06115710520E48207910568F423
:1011A00023E020933E0EDC01CB0146E0B695A795E7
:1011B000979587954A95D1F726C0611571058105E8
:1011C00021E0920740F424E020933E0EBB27A92F94
:1011D000982F872F18C061157105810524E09207AB
:1011E00068F425E020933E0EDC01CB012AE0B695A1
:1011F000A795979587952A95D1F705C085E08093A7
:101200003E0E8FEF9FEF9093870080938600C1E0A2
:10121000C0936F0086E00E948708C093540E8091AF
:101220007A00806280937A00C092470ED092480E76
:10123000E092490EF0924A0ECF91FF90EF90DF902E
:10124000CF9008958093540E882321F080917A00E6
:10125000806203C080917A008F7D80937A00089528
:10126000EAE7F0E08081806480830895CF93DF9384
:10127000D0917800C09179004091570E5091580E4E
:101280002091550E3091560E42175307A8F58091C4
:10129000540E811102C00E9430098D2F90E09C2BCA
:1012A00020917C0025FF13C0E0915B0EF0915C0E55
:1012B0002091570E3091580EA9014F5F5F4F509308
:1012C000580E4093570EE20FF31F908315C0E09124
:1012D000590EF0915A0E2091570E3091580EA901D7
:1012E0004F5F5F4F5093580E4093570E220F331F9E
:1012F000E20FF31F91838083DF91CF9108951092C5
:10130000580E1092570E8091540E0E9422090E948E
:101310000C2D60933F0E7093400E8093410E90937E
:10132000420E80917A00886C80937A0080917B00D5
:101330008770863011F40C946D0808958F929F92F7
:10134000AF92BF92CF92DF92EF92FF920E940C2D4C
:101350004B015C0180917A00877D80937A008091B7
:101360007B008770863011F40E9467086091550EEB
:101370007091560E80E090E00E94433620E034E207
:1013800044E759E40E9439376B017C0180913F0E9C
:101390009091400EA091410EB091420EA501940192
:1013A000281B390B4A0B5B0BCA01B9010E9443365B
:1013B0009B01AC01C701B6010E94AA356093430EA0
:1013C0007093440E8093450E9093460EFF90EF90DD
:1013D000DF90CF90BF90AF909F908F9008958093B3
:1013E000510E90917C00907F90937C0020917C0026
:1013F000982F9770922B90937C00883020F08091EA
:101400007B00886003C080917B00877F80937B0096
:10141000089591E09093500E1092530E1092520E38
:1014200010924F0E26E339E030934E0E20934D0E6E
:101430000C94EF0980914F0E8F5F80934F0E909127
:10144000500E891302C010924F0E80914F0EE09102
:10145000520EF091530EE80FF11D80810E94EF09AA
:101460000C9436091F93CF93DF93C0914F0E909148
:10147000500E9230A0F081E08C0F891719F0809304
:101480004F0E02C010924F0E80914F0EE091520EFF
:10149000F091530EE80FF11D80810E94EF09109129
:1014A0007800D09179004091570E5091580E2091BC
:1014B000550E3091560E42175307F0F48091540E9A
:1014C000811102C00E943009612F70E07D2B809154
:1014D0007C0085FF02C0672F7727E0914B0EF091CB
:1014E0004C0E8C2F19958091570E9091580E0196A5
:1014F0009093580E8093570EDF91CF911F910895CE
:10150000CF93DF93D0917C00C0917B0080917C00D1
:10151000807E80937C0080917C008E6180937C0033
:1015200080917B00877F80937B0063E070E080E0A8
:1015300090E00E942F2D80917A00806480937A0041
:1015400080917A0086FDFCCF6091780080917900CF
:10155000D0937C00C0937B0070E0782B882777FDC8
:101560008095982F0E9445369B01AC0160E070E8A1
:1015700089E894E40E94AA35DF91CF9108951F92E3
:101580000F920FB60F9211240BB60F922F933F9329
:101590004F935F936F937F938F939F93AF93BF937B
:1015A000EF93FF93E0914D0EF0914E0E1995FF9140
:1015B000EF91BF91AF919F918F917F916F915F91CB
:1015C0004F913F912F910F900BBE0F900FBE0F9038
:1015D0001F9018951F920F920FB60F9211240F9023
:1015E0000FBE0F901F90189581E00C944C088DE26F
:1015F00094E0089589E294E0089582E194E00895EA
:1016000088EF93E0089582EF93E008958FEB93E0E5
:10161000089584E492E00895CF93DF93EC0161E0B4
:1016200082E00E94172FCC5AD74F1882DF91CF91BA
:101630000895DC01ED91FC910190F081E02D199469
:10164000CF93DF93EC0161E00E942C1A87EA93E0CC
:1016500099838883CE5AD74F18821982DF91CF9110
:10166000089527EA33E0FC01318320830C949C1A0F
:10167000AF92BF92CF92DF92EF92FF920F931F93A0
:10168000CF93DF931F921F92CDB7DEB78C01D12C81
:101690007C018BEBE81A87EFF80A5801E5E9AE1AEE
:1016A000E7EFBE0A2D2D30E0F801EB5AF74F8081AD
:1016B000918168E270E00E94E93726173707E0F56C
:1016C00088E0C82EC982F7012081318180E090E056
:1016D00040E0B801620F731FE42FF0E0DB01A80FB8
:1016E000B91FA259BF4F41E050E0AC91AA2311F0BD
:1016F00040E050E0082E02C0440F551F0A94E2F764
:101700004E0F5F1F01968830910531F74A83285F9D
:101710003F4FF70131832083F50160816D0D22E099
:10172000AE014F5F5F4FC8010E949522C394FDE058
:10173000CF12C8CFD394B6CF0F900F90DF91CF9137
:101740001F910F91FF90EF90DF90CF90BF90AF90DF
:1017500008958F929F92AF92BF92CF92DF92EF92B5
:10176000FF920F931F93CF93DF9300D0CDB7DEB7D7
:101770008C01912C7C018BEAE81A87EFF80A98E239
:10178000C92ED12C5801E5E9AE1AE7EFBE0A88242C
:101790008A94292D30E0F70180819181B6010E9461
:1017A000E93726173707A0F438E039838A82F50134
:1017B0006081690D22E0AE014F5F5F4FC8013B833E
:1017C0000E9495223B813F5F3D3079F79394E1CFB2
:1017D0000F900F900F90DF91CF911F910F91FF907D
:1017E000EF90DF90CF90BF90AF909F908F90089533
:1017F000EF92FF920F931F93CF93DF938C017C01A5
:101800008BE9E81A87EFF80AC4E6D0E0F7014191C6
:101810007F01BE01C8010E94271A2196C13CD10553
:10182000A9F760E0C801DF91CF911F910F91FF9060
:10183000EF900C941B0C8F929F92AF92BF92CF921D
:10184000DF92EF92FF920F931F93CF93DF93EC0100
:10185000B62E7C012BE9E21A27EFF20A04E610E02B
:101860006701E881F9810088F189E02DB801CE0196
:101870001995F70181937F010F5F1F4F013C1105FF
:1018800081F7F601808191819E012959374F7901B5
:101890008E010759174F892BE9F4F9018081918155
:1018A000892BC1F4F80180819181892B99F43997B2
:1018B00080819181A281B381E35BFF4F808391831B
:1018C000A283B38381E090E0F80191838083CE010D
:1018D0000E94F80BF60180819181892BB9F4F70100
:1018E00080819181892B91F4F80180819181019708
:1018F00069F480E2FE01E559F74F808382E090E0D1
:10190000F80191838083CE010E94F80BF60180815B
:101910009181892BE9F4F70180819181892BC1F4B0
:10192000F80180819181029799F480E090E0A0EA2B
:10193000B0E4FE01EF54F74F80839183A283B38319
:1019400083E090E0F80191838083CE010E94F80B40
:10195000F60180819181892BB1F4F7018081918119
:10196000892B89F4F80180819181039761F4FE014C
:10197000EB54F74F108284E090E0F801918380836C
:10198000CE010E94F80BF60180819181892B79F5B7
:10199000F70180819181892B51F5F8018081918136
:1019A000049729F580E090E0A8ECB2E4FE01EA5447
:1019B000F74F80839183A283B38380E090E4ACE906
:1019C000B6E4349680839183A283B38380E090E071
:1019D000A8E4B3E4349680839183A283B38385E043
:1019E00090E0F80191838083CE010E94F80BF6010C
:1019F00080819181892B69F4F70180819181892B04
:101A000041F4F80180819181059719F4BB2009F414
:101A1000B2C0F60111821082F7011182108285E0B6
:101A200090E0F8019183808300E010E42CE936E433
:101A3000FE01E359F74F008311832283338380E053
:101A400090E5A3E4B8E4349680839183A283B383C2
:101A500040E054E264EF79E434964083518362833A
:101A600073830F2EC12CD12CF8E4EF2EF3E4FF2E5C
:101A7000F02D7096C082D182E282F3820F2E812CEB
:101A8000912CFAEFAF2EF4E4BF2EF02D3496808225
:101A90009182A282B382349600831183228333839E
:101AA000349680839183A283B38334964083518399
:101AB000628373834FEF56EE6BE57EE2749740834B
:101AC000518362837383B8964083518362837383A7
:101AD0008AE0FD9780833D961082118212821382E4
:101AE000349610821182128213827C964083518335
:101AF0006283738334964083518362837383349605
:101B0000408351836283738334964083518362831D
:101B10007383E554F10980819181A281B381E35BF4
:101B2000FF4F80839183A283B38380E2E254F10963
:101B3000808380E090E0A0EAB0E4EA5BFF4F80831E
:101B40009183A283B3833496108280E090E0A8EC66
:101B5000B2E4319680839183A283B3833496008369
:101B60001183228333833496C082D182E282F3824E
:101B7000CE010E94F80BFE01E355F74FC080D180E3
:101B8000E280F38020E030E0A901C701B6010E94A5
:101B9000A635FE01EC59F74F18161CF081E0808342
:101BA00009C0DE01A05AB74FCD92DD92ED92FC92B2
:101BB00013971082FE01EB54F74F8081882311F0B8
:101BC00042E001C041E060E0CE01DF91CF911F9182
:101BD0000F91FF90EF90DF90CF90BF90AF909F90CC
:101BE0008F900C9452235F926F927F928F929F926C
:101BF000AF92BF92CF92DF92EF92FF920F931F931B
:101C0000CF93DF931F921F92CDB7DEB76C01CB014C
:101C1000542E68E270E00E94E9377B014C015C01C0
:101C200083E0B694A7948A95E1F73B017724860177
:101C30000559174FF8018081B301680F711D88E7BE
:101C40009DE00E946103B501685F7F4F88E79DE0DA
:101C50000E94190B88E79DE00E94DD03F801808156
:101C6000B301680F711D41E050E088E79DE00E94DC
:101C7000DA0388E79DE00E94B602892B41F1F82D36
:101C8000F7708F2E88E08A0D898388E79DE00E9497
:101C9000BE0241E050E060E070E004C0440F551F18
:101CA000661F771F8A94D2F7511002C0482B02C0DA
:101CB000409548234A83F80160816E0D22E0AE0111
:101CC0004F5F5F4FC6010E94952280E001C081E016
:101CD0000F900F90DF91CF911F910F91FF90EF9098
:101CE000DF90CF90BF90AF909F908F907F906F903C
:101CF0005F9008959F92AF92BF92CF92DF92EF9242
:101D0000FF920F931F93CF93DF9300D000D0CDB7F6
:101D1000DEB78C016A017B01922E1E82FC01E25427
:101D2000F74F2081318142815381C701B6010E9462
:101D3000A63518160CF444C0F801E05AF74F20817C
:101D4000318142815381C701B6010E94AA3528EA38
:101D500029836A837B838C839D83580184E9A81A35
:101D600087EFB80A25E0AE014F5F5F4FF501608154
:101D7000C8010E949522992029F164E670E080E074
:101D800090E00E942F2D41E0F501608188E79DE001
:101D90000E94D70388E79DE00E94B602892B91F04C
:101DA00088E79DE00E94BE02813061F421E0AE012F
:101DB0004A5F5F4FF5016081C8010E943B1D02C070
:101DC00088E08E838E81811107C0F801E85AF74FB1
:101DD000C082D182E282F38226960FB6F894DEBFEB
:101DE0000FBECDBFDF91CF911F910F91FF90EF906C
:101DF000DF90CF90BF90AF909F900895FC01E05A84
:101E0000F74F4083518362837383389740815181B8
:101E10006281738120E00C947A0EAF92BF92CF92D0
:101E2000DF92EF92FF920F931F93CF93DF9300D037
:101E300000D0CDB7DEB78C016A017B01FC01EA540A
:101E4000F74F24EA30E74DE75FE3608171818281DB
:101E500093810E9439379B01AC01C701B6010E94F2
:101E6000353787FD4CC02EEA37E441E85FE3F801DF
:101E7000E654F74F60817181828193810E943937E6
:101E80009B01AC01C701B6010E94A6351816BCF132
:101E90008AEA8983CA82DB82EC82FD82580184E966
:101EA000A81A87EFB80A25E0AE014F5F5F4FF50132
:101EB0006081C8010E94952264E670E080E090E0B5
:101EC0000E942F2D41E0F501608188E79DE00E948E
:101ED000D70388E79DE00E94B602892B91F088E73E
:101EE0009DE00E94BE02813061F421E0AE014A5FB4
:101EF0005F4FF5016081C8010E943B1D02C088E070
:101F00008E838E81811107C0F801E45AF74FC08299
:101F1000D182E282F38226960FB6F894DEBF0FBE1E
:101F2000CDBFDF91CF911F910F91FF90EF90DF9088
:101F3000CF90BF90AF9008954F925F926F927F9233
:101F40008F929F92AF92BF92CF92DF92EF92FF92C9
:101F50000F931F93CF93DF931F921F92CDB7DEB7DE
:101F60008C01FC01EC5AF74F81E0808360E082E055
:101F70000E94172F64EF71E080E090E00E942F2D07
:101F800048018BEA881A87EF980AF40111821082BF
:101F900028E2A22EB12CE12CF12C38E1632E77241B
:101FA0007A946801F5E9CF1AF7EFDF0A4E2C6982BF
:101FB0007A82F60160816E0D22E0AE014F5F5F4FC5
:101FC000C8010E949522F60160816E0D21E0AE01EC
:101FD0004F5F5F4FC8010E943B1D89818F3F09F011
:101FE0004BC098E1592E59821A82F6016081640D26
:101FF00022E0AE014F5F5F4FC8010E949522F601BB
:102000006081640D21E0AE014F5F5F4FC8010E9407
:102010003B1D8981811130C080EF850D89837A82D3
:10202000F6016081640D22E0AE014F5F5F4FC80191
:102030000E9495225394FDE15F12D5CF6FE572E0C7
:1020400082EA9EE00E94E3314AE050E0B70182EA72
:102050009EE00E94A53269E672E082EA9EE00E945C
:10206000F031F40120813181C501889728173907A3
:1020700019F4F401B182A082FFEFEF1AFF0A88E29F
:10208000A80EB11CE8E0EE16F10409F08FCFF401C0
:10209000608171814AE050E082EA9EE00E94F03265
:1020A0006AE472E082EA9EE00E94F03140E050E48F
:1020B0006CE176E4C8010E940D0F0F900F90DF9144
:1020C000CF911F910F91FF90EF90DF90CF90BF9035
:1020D000AF909F908F907F906F905F904F900895FA
:1020E0002F923F924F925F926F927F928F929F9228
:1020F000AF92BF92CF92DF92EF92FF920F931F9316
:10210000CF93DF93CDB7DEB7AA970FB6F894DEBFB3
:102110000FBECDBF2C016E8B2DB73EB73CA32BA3BA
:102120008C010D5A174F81E0D8018C93F201EC5AC3
:10213000F74F8081811103C0C2010E949C0FEE897C
:102140008E2F90E0FC01E05AF109E735F10508F027
:10215000A9C6EE58FF4F920124593F4F19010C9424
:102160001F38F201E05CF74F80819181892B09F0E3
:1021700096C642E050E0B2016B5A774FF5C0F201CB
:10218000E05CF74F80819181892B09F088C6D901E5
:102190001C92912C92012B5A374F3B872A87720150
:1021A00035E9E31A37EFF30A88248394A92CB12C7C
:1021B000EA85FB858081918168E270E00E94E937C1
:1021C000A616B70608F06EC608E010E0D7018C919D
:1021D000B501680F711D88E79DE00E946103B80199
:1021E00088E79DE00E94190B88E79DE00E94DD03CF
:1021F000F7018081B501680F711D41E050E088E76B
:102200009DE00E94DA0388E79DE00E94B602892BD8
:1022100051F188E79DE00E94BE026C01612C712C97
:10222000DD24C601062C02C0959587950A94E2F735
:1022300081709927F1E08F27898341E050E0BE014A
:102240006F5F7F4FC2010E94A21A2FEF621A720ABB
:1022500038E06316710429F70F5F1F4F0D30110529
:1022600009F0B4CF02C0D1018C9293949FCFF201B8
:10227000E05CF74F2081318175968081918128172C
:10228000390709F00CC6C2010E94380B96C5F2014D
:10229000E05CF74F80819181029709F000C6D2017E
:1022A000AB5BB74F2D913C911197F901E259FF4F6C
:1022B000E40DF51D808191812E5F3F4F2D933C935E
:1022C000F201EB5AF74F208131818217930708F012
:1022D0007BC068E270E00E94E9378C016B01DD246D
:1022E0007201F5E9EF1AF7EFFF0AD7018C91B601F9
:1022F000680F711D88E79DE00E946103B80153E0FB
:10230000769567955A95E1F7685F7F4F88E79DE07E
:102310000E94190B88E79DE00E94DD03F701808190
:10232000B601680F711D41E050E088E79DE00E9412
:10233000DA0388E79DE00E94B602892BC9F088E79E
:102340009DE00E94BE029927077002C0959587956F
:102350000A95E2F781709927F1E08F27898341E0A0
:1023600050E0BE016F5F7F4FC2010E94A21A25C5D7
:1023700081E096C5F201E05CF74F8081918103977F
:1023800009F08DC5D201AB5BB74F8D919C91119730
:10239000FC01E259FF4FE40DF51D60817181F201EE
:1023A000E80FF91FE059FF4F408103968D939C93EE
:1023B000F201EB5AF74F808191816817790720F479
:1023C000C2010E94F30DDAC285E06AC5F201E05C49
:1023D000F74F80819181892B09F061C5D9011C9249
:1023E00044E050E0B201685A774FBEC4F201E05CAD
:1023F000F74F80819181049709F051C5D201AB5B01
:10240000B74F8D919C911197FC01E259FF4FE40D5C
:10241000F51D408151816281738104968D939C9357
:1024200021E0C2010E947A0E3BC5F201E05CF74F49
:1024300080819181892B09F032C582010459174F9F
:1024400049EAD8016C91C2010E947E2264E670E0E4
:1024500080E090E00E942F2D41E0F801608188E744
:102460009DE00E94D70388E79DE00E94B602892B79
:1024700009F418C588E79DE00E94BE02853009F086
:1024800011C525E0AE014F5F5F4FD8016C91C201CD
:102490000E943B1D8D81F1018083811103C58981DB
:1024A0009A81AB81BC81B201645A774FFB01808372
:1024B0009183A283B38344E050E056C4F201E05C10
:1024C000F74F80819181049709F0E9C4D201AB5B99
:1024D000B74F8D919C911197FC01E259FF4FE40D8C
:1024E000F51D408151816281738104968D939C9387
:1024F000C2010E940D0F42C2F201E05CF74F8081E1
:102500009181019709F0CBC4D201AB5BB74F8D919C
:102510009C911197F201E80FF91FE259FF4FE081FA
:1025200001968D939C93E23008F02CC1BBE1EB9FA8
:10253000F0011124E35AF14F81818983F90110825E
:102540000EC4F201E05CF74F80819181029709F09F
:10255000A6C4359620813181A201420F531FDA01B2
:10256000A259BF4F8C9111966C912E5F3F4F3183D2
:1025700020830E94EA2294C4F201E05CF74F80813C
:102580009181019709F08BC4359680819181D201A8
:10259000A80FB91FA259BF4F2C9101969183808338
:1025A000223008F0EFC0D1011C92BBE12B9FF0015B
:1025B0001124E35AF14FE181C2018B59974FF0E0AA
:1025C000213011F0329679C0389677C0F201E05C84
:1025D000F74F80819181059709F061C4359620817C
:1025E0003181D201A20FB31FA259BF4F4C91C90133
:1025F000019691838083D1011C924423E1F0413004
:1026000009F0C0C04091790ED901A159BF4FA40D66
:10261000B51D8D919D910D90BC91A02D2B5F3F4FCD
:1026200031832083F20134E0439FE00DF11D11243A
:10263000EB57F74F9FC040915E0ED901A159BF4F94
:10264000A40DB51D8D919D910D90BC91A02D2B5F7A
:102650003F4F31832083F20124E0429FE00DF11DC2
:102660001124E359F74F86C0F201E05CF74F8081F7
:102670009181019709F013C4359680819181D2012F
:10268000A80FB91FA259BF4F2C9101969183808347
:10269000223008F077C0F10110823BE1239FF00166
:1026A0001124E35AF14FE181C2018B59974FF0E0B9
:1026B000213011F0359601C03D96EE0FFF1FEE0F51
:1026C000FF1FE80FF91F80819181A281B381898367
:1026D0009A83AB83BC8344E050E043C3F201E05CE7
:1026E000F74F80819181059709F0D9C335962081F4
:1026F0003181D201A20FB31FA259BF4F4C91C90122
:10270000019691838083D1011C924423D9F04130FA
:10271000C9F54091790ED901A159BF4FA40DB51D3E
:102720008D919D910D90BC91A02D2B5F3F4F3183DA
:102730002083F20134E0439FE00DF11D1124E756A0
:10274000F74F18C040915E0ED901A159BF4FA40D9B
:10275000B51D8D919D910D90BC91A02D2B5F3F4F8C
:1027600031832083F20124E0429FE00DF11D11240A
:10277000E758F74F80839183A283B383C2010E94FD
:10278000F80B90C385E0FAC0F201E05CF74F80815E
:102790009181892B09F083C3F901108244E050E054
:1027A000B201605A774FE0C2F201E05CF74F8081DE
:1027B0009181049709F073C3D201AB5BB74F8D9140
:1027C0009C911197FC01E259FF4FE40DF51DC0806B
:1027D000D180E280F38004968D939C9320E030E0DA
:1027E000A901C701B6010E9435371816CCF4F201D1
:1027F000EC59F74F8081882331F03497C082D18221
:10280000E282F382DAC2D201A355B74FCD92DD92B4
:10281000ED92FC9213971082C2010E94F80BCDC278
:1028200088E03EC3F201E05CF74F80819181892B03
:1028300009F035C3D9011C9211E020E030E0A90174
:10284000E359FF4F60817181828193810E94A63597
:1028500018160CF410E0198382C2F201E05CF74F05
:1028600080819181019709F01AC335968081918109
:10287000D201A80FB91FA259BF4F2C910196918385
:102880008083E859FF4F222329F01082118212829F
:1028900013820CC0D201A05AB74F8D919D910D901B
:1028A000BC91A02D80839183A283B383C2010E9437
:1028B000F80B15C2F201E05CF74F008111810A307C
:1028C000110508F4ECC2359680819181DC01A25992
:1028D000BF4FA40DB51D2D913D914D915C912A875F
:1028E0003B874C875D879C012C5F3F4F3183208362
:1028F000DC01AE58BF4FA40DB51D6D907C90DC017E
:10290000AC58BF4FA40DB51D4D915D916D917C915B
:102910004A8B5B8B6C8B7D8BD201A80FB91FA8589B
:10292000BF4FFC900B96918380830B30110541F0D3
:102930007096808191810B960817190709F0AFC234
:10294000BBE46B16B1E07B06C0F420E030E04AE760
:1029500054E46A857B858C859D850E94AA3520E09C
:1029600030E44CE157E40E94393720E030E040E8A1
:1029700055E40E94A63587FD23C281E0D1018C93E6
:1029800091C2F201EB5AF74F20813181C9010B96B8
:102990007597408151814817590709F080C2EDB7FA
:1029A000FEB7FA8FE98FD1011C92F201EB5BF74F72
:1029B00080819181DC01A259BF4FA40DB51D4D91BD
:1029C0005D916D917C914A8B5B8B6C8B7D8BAC01A7
:1029D0004C5F5F4F51834083DC01AE58BF4FA40D65
:1029E000B51D6D907C90DC01AC58BF4FA40DB51D9A
:1029F0004D915D916D917C914F8F58A369A37AA3FE
:102A0000D201A80FB91FA858BF4F1C910B969183F4
:102A100080836DB77EB7621B730B0FB6F8947EBFD1
:102A20000FBE6DBF8DB79EB701969B878A87DC016D
:102A3000280F391F80E090E07F01A217B307A1F0B3
:102A4000F70140815181B201640F751F62597F4FB8
:102A5000FB0160814F5F5F4FF701518340836D93AE
:102A6000662359F30196E9CF869D9001879D300D2D
:102A7000969D300D11242B34314008F0D2C020E057
:102A800030E04AE754E46A897B898C899D890E94F9
:102A9000AA3520E030E44CE157E40E94393720E0C9
:102AA00030E040E855E40E94A63587FFBAC0C20175
:102AB0000E94A90B0E940C2D6B8F7C8F8D8F9E8F97
:102AC000212C312C92012B5A374F3EA32DA3A2016A
:102AD00044595F4F5F874E87812F8270682F70E067
:102AE00078A76FA311701F8B188EC201845A974F5D
:102AF0009AA789A7ADA1BEA18D919C9128163906F0
:102B0000F0F5AE85BF858C91811135C0EA85FB85D6
:102B1000E20DF31D8081882371F141E0B101C20112
:102B20000E94F30D88248394EFA1F8A51E161F06BA
:102B30000CF0812CAA24A3942F89388D1216130629
:102B40000CF0A12CA9A5BAA5CD90DD90ED90FC903C
:102B50000F8D18A129A13AA1A3016A897B898C89CB
:102B60009D890E94D327EE85FF85808340E0B101D7
:102B7000C2010E94F30DFFEF2F1A3F0ABBCFEE8573
:102B8000FF858081811152C00E940C2D2B8D3C8DC0
:102B90004D8D5E8D621B730B840B950B0E9443362B
:102BA0006B017C01B30180E090E00E94433620E09D
:102BB00030E04AE754E40E9439379B01AC01C70179
:102BC000B6010E94AA356E837F838887998744E087
:102BD00050E0BE016A5F7F4FC2010E94A21A44E02A
:102BE00050E064E77EE0C2010E94A21A44E050E097
:102BF0006FE87EE0C2010E94A21AF201E05AF74F8C
:102C000080819181A281B38189839A83AB83BC83C4
:102C100044E050E0BE016F5F7F4FC2010E94A21AE4
:102C200005C081E0F201E459FF4F8083498D5A8D40
:102C30000FB6F8945EBF0FBE4DBF34C1F201E05C29
:102C4000F74F80819181019709F029C1D9011C9228
:102C5000359680819181D201A80FB91FA259BF4F2B
:102C60002C9101969183808361E0211101C060E085
:102C7000C2010E941B0C16C1F201E05CF74F80817B
:102C80009181892B09F00BC1F901108282E036C0D5
:102C9000F201E05CF74F80819181892B09F0FFC040
:102CA000D9011C92729629C0F201E05CF74F808135
:102CB0009181019709F0F3C0359680819181D2010D
:102CC000A80FB91FA259BF4F2C9101969183808301
:102CD0003D96222319F081E0808301C01082F1012A
:102CE0001082E0C0F201E05CF74F80819181892B76
:102CF00009F0D5C0D9011C92F801808189832FC0C9
:102D0000F201E05CF74F80819181019709F0C7C023
:102D1000359680819181D201A80FB91FA259BF4F6A
:102D20002C91019691838083222321F081E0D801A8
:102D30008C9343C0F801108240C0F201E05CF74F71
:102D400080819181892B09F0AAC0F901108282E06B
:102D50000E944D2F21E0892B09F020E0298341E0DA
:102D600050E0BE016F5F7F4FC2010E94A21A9AC05D
:102D7000F201E05CF74F80819181019709F08FC0EB
:102D8000359680819181D201A80FB91FA259BF4FFA
:102D90002C91019691838083222359F060E082E098
:102DA0000E94172F64EF71E080E090E00E942F2DC9
:102DB00004C061E082E00E94172FD1011C9272C012
:102DC000D1011C92F201EB5AF74F808191810B9651
:102DD0000817190719F4C2010E94380B0E940C2D24
:102DE0006E877F87888B998B88248394F1FE812C52
:102DF000AA24A394F0FEA12CF201E45AF74FC0805C
:102E0000D180E280F3800A891B892C893D89A30146
:102E10006A857B858C859D850E94D327F1018083FF
:102E2000811140C00E940C2D2E853F85488959890B
:102E3000621B730B840B950B0E9443366B017C0164
:102E4000B30180E090E00E94433620E030E04AE7A2
:102E500054E40E9439379B01AC01C701B6010E94BE
:102E6000AA356E837F838887998744E050E0BE014E
:102E70006A5F7F4FC2010E94A21A44E050E064E7FB
:102E80007EE0C2010E94A21A44E050E06FE87EE0BA
:102E9000C2010E94A21AF201E05AF74F14CC86E058
:102EA000F10180836E89C2010E94621DF201E45922
:102EB000FF4F80812BA13CA10FB6F8943EBF0FBEFF
:102EC0002DBFAA960FB6F894DEBF0FBECDBFDF911F
:102ED000CF911F910F91FF90EF90DF90CF90BF9017
:102EE000AF909F908F907F906F905F904F903F90AA
:102EF0002F900895AF92BF92CF92DF92EF92FF9200
:102F00000F931F93CF93DF93CDB7DEB762970FB6C2
:102F1000F894DEBF0FBECDBF8C010E94971961E00F
:102F200082E00E94172F61E082E00E94DE2EF8010D
:102F3000E05AF74F80E090E0A6E9B3E48083918304
:102F4000A283B38360E0C8010E941B0CD801ED91FD
:102F5000FC910680F781E02DC8011995BC0182EA39
:102F60009EE00E94E33165E772E082EA9EE00E9403
:102F7000E331D801ED91FC910484F585E02DC80181
:102F80001995BC0182EA9EE00E94F03168E772E088
:102F900082EA9EE00E94E331D801ED91FC91028427
:102FA000F385E02DC8011995BC0182EA9EE00E94DC
:102FB000F0316BE872E082EA9EE00E94E331780132
:102FC000BBE9EB1AB7EFFB0AF701608171814AE0B8
:102FD00050E082EA9EE00E94F03263E772E082EA0B
:102FE0009EE00E94E331F801E959F74F6081718159
:102FF0004AE050E082EA9EE00E94F03263E772E02D
:1030000082EA9EE00E94E331F801E759F74F6081C0
:1030100071814AE050E082EA9EE00E94F63262EA64
:1030200072E082EA9EE00E94E331F801E459F74F32
:103030004AE050E0608182EA9EE00E94D932B12CE1
:10304000A12CA1E0BA1202C085E001C083E0A8165D
:1030500008F0AFC04AE06A2DCE0101960E94A73465
:103060004AE06B2DCE010D960E94A73466EC72E00B
:10307000CE0107960E947934BE01635F7F4FCE0177
:1030800007960E94003568EC72E00E941335BE017D
:103090006F5F7F4F0E9400356CED72E00E94133528
:1030A000BC0182EA9EE00E94D531CE0107960E94C3
:1030B0000B34CE010D960E940B34CE0101960E9476
:1030C0000B34CA2CD12CF1E0BF1619F0F601329660
:1030D00002C0F6013896EE0FFF1FEE0FFF1FEE0D38
:1030E000FF1D408151816281738122E030E082EADC
:1030F0009EE00E94F9334AE06A2DCE0101960E94BB
:10310000A7344AE06B2DCE010D960E94A73466ECE1
:1031100072E0CE0107960E947934BE01635F7F4F53
:10312000CE0107960E9400356FED72E00E941335C4
:10313000BE016F5F7F4F0E9400356CED72E00E9410
:103140001335BC0182EA9EE00E94D531CE0107967C
:103150000E940B34CE010D960E940B34CE010196D5
:103160000E940B3481E0F601B81611F0359601C0CB
:103170003D96EE0FFF1FEE0FFF1FEE0DFF1D60814E
:1031800071818281938125EA34ED48E653E50E94FE
:103190003937AB01BC0122E030E082EA9EE00E94B8
:1031A000F73364EF72E082EA9EE00E94F031A3946C
:1031B00048CFB394B2E0BB1243CF68EF72E082EA2B
:1031C0009EE00E94E331F801E559F74F4AE050E0F4
:1031D000608182EA9EE00E94D9326DE473E082EA67
:1031E0009EE00E94E331F801E355F74F40815181A1
:1031F0006281738122E030E082EA9EE00E94F9332E
:1032000065E173E082EA9EE00E94E331F801EF5449
:10321000F74F408151816281738122E030E082EA80
:103220009EE00E94F93368E273E082EA9EE00E9429
:10323000E331F801EB54F74F608170E04AE050E071
:1032400082EA9EE00E94AD3261E473E082EA9EE091
:103250000E94E331F801EC59F74F608170E04AE0D9
:1032600050E082EA9EE00E94AD326DE573E082EAB2
:103270009EE00E94E331F801EA54F74F408151810A
:103280006281738122E030E082EA9EE00E94F9339D
:1032900065E773E082EA9EE00E94E331F801E654BC
:1032A000F74F408151816281738122E030E082EAF0
:1032B0009EE00E94F9336DE873E082EA9EE00E948E
:1032C000E331F801E254F74F40815181628173810B
:1032D00022E030E082EA9EE00E94F93362960FB667
:1032E000F894DEBF0FBECDBFDF91CF911F910F913C
:1032F000FF90EF90DF90CF90BF90AF90089586271A
:10330000682F62956827062E669566956025062EBD
:10331000669560256770082E892F669507946795D6
:10332000902D862706946795902586270895CF923D
:10333000DF92EF92FF920F931F93CF93DF9300D012
:103340001F92CDB7DEB78C01CE0101966C019FE0D4
:10335000E92EF12CD801ED91FC910088F189E02D46
:10336000B701C8011995F60181936F01FFEFEF1ABC
:10337000FF0A23E1E216F10469F789819A81AB81A2
:10338000BC818F3F9F4FAF4FBF4FE1F149815A81C1
:103390006B817C8126E082EA9EE00E94883088E78B
:1033A0009DE00E944D030E9426060E94800A085953
:1033B0001F4FD8016D937D938D939C93139762E477
:1033C00074E082EA9EE00E94E331F801408151817D
:1033D0006281738122E030E082EA9EE00E94F7334E
:1033E00064E574E082EA9EE00F900F900F900F90DA
:1033F000DF91CF911F910F91FF90EF90DF90CF90D1
:103400000C94F03180E092ECA1E0B0E089839A83E3
:10341000AB83BC83CE0101966C018FE0E82EF12CCA
:10342000D6014D916D01D801ED91FC910288F3898F
:10343000E02DB701C8011995BFEFEB1AFB0AE3E1D4
:10344000EE16F10469F7A2CFCB010C948C3ACB01B4
:10345000642F0C94943A08958F929F92AF92BF92EA
:10346000CF92DF92EF92FF920F931F93CF93DF9350
:1034700026E734E0FC0131832083E45BF74F60836F
:1034800039971182108236961082399711821082F4
:103490003596118210823296118210823A961082ED
:1034A000E12CF12C00E010E0C8010E948C3AA82E1B
:1034B000C80107960E948C3A8E2CC0E0D0E0B12C57
:1034C000A094B094C82ED12CC094D094CE018E0D6F
:1034D0009F1DC697C4F4B5010C2E02C07595679563
:1034E0000A94E2F761709C2E980C892D0E94DE2EC2
:1034F000B6010C2E02C0759567950A94E2F76170CB
:10350000892D0E94172F2196C830D105F9F60F5F3B
:103510001F4FE8E0EE0EF11C0730110529F6DF9190
:10352000CF911F910F91FF90EF90DF90CF90BF90C0
:10353000AF909F908F90089526E734E0FC0131838F
:10354000208308951F93CF93DF93FB0120E030E0A9
:10355000DC01A95BB74F2417350781F01191BC013D
:10356000620F731FCD91DC9111976C0F7D1FEB01E2
:10357000C259DF4F18832F5F3F4FEDCF8D919C9144
:103580001197820F931F8D939C93DF91CF911F9181
:103590000895CF93DF93FC01E359FF4F6081DC0175
:1035A000A459BF4F67FF0EC020E8260F208322E0FA
:1035B0002C93DC01ED91FC910488F589E02DDF91DD
:1035C000CF911994FC01E05CF74F208131812150AB
:1035D0003109820F931FEC01C259DF4F88818C9310
:1035E00031832083DF91CF9108956F927F928F92E4
:1035F0009F92AF92BF92CF92DF92EF92FF920F9382
:103600001F93CF93DF93EC019C01275B374F590148
:103610006D3721F481E0F9018083AEC0F90180812A
:103620009E012D5B374F7901882309F49EC080E20B
:103630006827F701808191819E01245B374F490102
:10364000FE01EE5BF74F6F018E01005C174F009794
:1036500059F4E55DF7406083F90180818823A9F181
:103660008FEF9FEF33961EC08130910581F467FF85
:1036700008C083E08083862F8F77F80110828183D2
:1036800024C082E08083862F90E0F8010BC0823056
:10369000910559F42081233041F4F8018081918112
:1036A000860F911D9183808310C0F6012081821BBB
:1036B0009109F801208131818217930730F48C0F32
:1036C0009D1FFC01E259FF4F6083F4018081882334
:1036D00069F03E01F1EB6F1AF7EF7F0AF301808189
:1036E00091810E947F19F30191838083F7012081EA
:1036F00031812F5F3F4F31832083F4014081F601F8
:103700005081F80180819181850F911D840F911D59
:10371000840F911D2817390711F5F70111821082C6
:10372000FE01EB5BF74F11821082329611821082FC
:10373000442329F0389680819181892B19F4CE0198
:103740000E94C91AFE01E55BF74F8081882339F09A
:10375000C359DF4F80589881981301C01082F5013A
:103760008081882349F0108207C06E3709F061CF4D
:10377000F70111821082F3CFDF91CF911F910F914A
:10378000FF90EF90DF90CF90BF90AF909F908F9081
:103790007F906F900895FF920F931F93CF93DF93C5
:1037A0001F92CDB7DEB78C01F62E88E08983698140
:1037B0006837E8F588E79DE00E94570388E79DE0B9
:1037C0000E94DD03811130C0FF2041F041E050E054
:1037D000BE016F5F7F4FC8010E94A21A67E574E0C7
:1037E00082EA9EE00E94E3314AE050E0698182EA89
:1037F0009EE00E94D2326BE674E082EA9EE00E9474
:10380000E33140E150E0698182EA9EE00E94D232D9
:1038100060E774E082EA9EE00E94F03161E070E0CF
:1038200080E090E00E942F2D89818F5FBFCF0F90A5
:10383000DF91CF911F910F91FF900895CF93C62FE5
:1038400083E8860F823090F46DE782EA9EE00E9462
:103850002330E091A20EF091A30E60E26C2701905C
:10386000F081E02D82EA9EE0CF91199482EA9EE0F9
:10387000CF910C9423308F929F92AF92BF92CF92B0
:10388000DF92EF92FF920F931F93CF93DF93EC01A0
:103890008C017C0120ECE21A27EFF20A845B974F3F
:1038A0006C015E0193EBA91A97EFB90AF7018081C9
:1038B000918198012C1B3D0BF60128173907C8F49C
:1038C0008081980122593F4F4901882351F0F90125
:1038D0006081F501808191810E947F19F5019183BA
:1038E0008083F4016081CE010E941E1C0F5F1F4F78
:1038F000DDCF8081882369F08E01035B174FF801CB
:103900006081CE010E941E1CF8016181CE010E94DF
:103910001E1CF70111821082C95BD74F19821882D1
:10392000DF91CF911F910F91FF90EF90DF90CF909B
:10393000BF90AF909F908F900895BF92CF92DF92EB
:10394000EF92FF920F931F93CF93DF93EC01B62E6C
:103950008C01005C174FFC01E95BF74F808191817E
:10396000F801918380836EE782EA9EE00E94233013
:103970007E01F4EBEF1AF7EFFF0AF701808188234D
:1039800081F08FEF9FEF6E01F3EBCF1AF7EFDF0AB5
:10399000F601918380836B2D0E947F19F60191833C
:1039A00080836B2DCE010E941E1CF8016081718105
:1039B000F70180816038710580F4882371F17E0100
:1039C000F3EBEF1AF7EFFF0AF701808191810E9474
:1039D0007F19F7019183808320C08823B1F070683C
:1039E000672F7E01F3EBEF1AF7EFFF0AF7018081F3
:1039F00091810E947F19F70191838083F801608192
:103A00000E947F19F70191838083F8018081918161
:103A10009068692FCE010E941E1CF8016081CE01C2
:103A2000DF91CF911F910F91FF90EF90DF90CF909A
:103A3000BF900C941E1C0F931F93CF93DF931F9284
:103A4000CDB7DEB78C01698341E050E0BE016F5F06
:103A50007F4F0E94A21AF801E359FF4F6081C8010D
:103A60000E949D1CC8010E943B1C0F90DF91CF91CA
:103A70001F910F910895FF920F931F93CF93DF93A0
:103A80008A01422F88E79DE00E94D703C0E088E7C3
:103A90009DE00E94B602892B71F0FF24F394FC0E86
:103AA000C8018C0F911DEC0188E79DE00E94BE02C9
:103AB0008883CF2DECCF8C2FDF91CF911F910F9169
:103AC000FF9008956F927F928F929F92AF92BF92D4
:103AD000CF92DF92EF92FF920F931F93CF93DF93DA
:103AE000CDB7DEB769970FB6F894DEBF0FBECDBF76
:103AF0008C018DB69EB6862F90E0FC01E058F1094E
:103B0000EF31F10508F0D5C4E753FF4F9801205C71
:103B1000374F79010C941F38D9018D919C91892BD5
:103B2000F1F4D801ED91FC910280F381E02DC80100
:103B30001995FC0101900020E9F7AF0141505109AE
:103B4000481B590BD801ED91FC910280F381E02DC7
:103B500062C0D9018D919C91019709F49FC386E0C1
:103B6000F801E459FF4F86C4F90180819181892BC6
:103B7000B1F7D801ED91FC910480F581E02DC801E9
:103B80001995FC0101900020E9F7AF01415051095E
:103B9000481B590BD801ED91FC910480F581E02D73
:103BA0003AC0F90180819181892BC9F6D801ED9144
:103BB000FC910680F781E02DC8011995FC01019068
:103BC0000020E9F7AF0141505109481B590BD801BA
:103BD000ED91FC910680F781E02D1DC0F9018081F7
:103BE0009181892B09F0BBCFD801ED91FC91008424
:103BF000F185E02DC8011995FC0101900020E9F73D
:103C0000AF0141505109481B590BD801ED91FC916E
:103C10000084F185E02DC801498F588F1995498D91
:103C2000588DBC0134C4F90180819181892B09F040
:103C300096CFD801ED91FC910284F385E02DC80167
:103C40001995FC0101900020E9F7AF01415051099D
:103C5000481B590BD801ED91FC910284F385E02DAE
:103C6000DACFF90180819181892B09F078CFD801D1
:103C7000ED91FC910484F585E02DC8011995FC01B6
:103C800001900020E9F7AF0141505109481B590B41
:103C9000D801ED91FC910484F585E02DBCCFF901AC
:103CA00080819181892B09F05ACFD801ED91FC9147
:103CB0000684F785E02DC8011995FC0101900020CC
:103CC000E9F7AF0141505109481B590BD801ED915B
:103CD000FC910684F785E02D9ECFF90180819181CA
:103CE000892B09F03CCF4AE050E06CE874E0CFC388
:103CF000D9018D919C91029709F031CFF801EB5BCE
:103D0000F74F20813181A801420F531FDA01A259D8
:103D1000BF4F8C9111966C912E5F3F4F3183208362
:103D20000E94DE2EC2C3F90180819181029709F0C1
:103D300016CFF801EB5BF74F20813181A801420FCC
:103D4000531FDA01A259BF4F8C9111966C912E5FCF
:103D50003F4F318320830E94172FA7C3D9018D9134
:103D60009C91019709F0FBCEF801EB5BF74F2081A6
:103D70003181D801A20FB31FA259BF4F8C912F5F81
:103D80003F4F318320830E944D2FF5C2F90180817E
:103D90009181029709F0E3CEF801EB5BF74F2081A8
:103DA0003181D801A20FB31FA259BF4F8C91A90135
:103DB0004F5F5F4F51834083D901A159BF4FA00F7F
:103DC000B11F6D917C912D5F3F4F318320830E9405
:103DD000C42D6BC3C80184599F4F26E0DC012C938E
:103DE000F701208131812230310508F462C3ADB67C
:103DF000BEB6F801EB5BF74F40815181D801A40FAB
:103E0000B51FA259BF4F6C914F5F5F4F51834083E5
:103E1000462F50E0ADB7BEB7A41BB50B0FB6F89454
:103E2000BEBF0FBEADBF11966D012230310511F43A
:103E3000613031F04D5F5F4F2417350709F07BC0CB
:103E40007C2D3601262D271B261788F420813181F1
:103E5000A801420F531F42595F4FDA014C912F5F67
:103E60003F4F31832083D3014D933D01EBCFD701E9
:103E70002D913C9122303105B1F020813181D90161
:103E8000A259BF4FA00FB11FED90FC902E5F3F4F86
:103E900031832083B9EEEB16B3E0FB0638F029E05E
:103EA000FC01208348C0EE24E394F12CDC011C9239
:103EB000F092560EE092550EC80182599F4F909392
:103EC0005A0E8093590E80E0688F0E947B08688D9F
:103ED000613029F4F60180810E94090A12C0D09253
:103EE000530EC092520E6093500E10924F0E8AE104
:103EF0009AE090934E0E80934D0ED6018C910E94C5
:103F0000EF090E947F098091550E9091560E2091E5
:103F1000570E3091580E28173907C9F70E949E098D
:103F2000EE0CFF1CF801E95BF74F80819181E80EF0
:103F3000F91EF182E0820FB6F894BEBE0FBEADBE90
:103F4000B8C2F90180819181039709F008CED801A8
:103F5000AB5BB74F8D919C911197FC01E259FF4FDC
:103F6000E00FF11F60817181F801E80FF91FE0593E
:103F7000FF4F408103968D939C93D801ED91FC9166
:103F80000288F389E02DC80119958FC2F90180815B
:103F90009181029709F0E3CDD801AB5BB74F8D91CA
:103FA0009C911197FC01E259FF4FE00FF11F6081D6
:103FB000718102968D939C93D801ED91FC910088BC
:103FC000F189E02DC8011995D6C1F901808191814F
:103FD000029709F0C4CDF801EB5BF74F8081918126
:103FE0009801280F391FD901A259BF4F6C91119622
:103FF000EC90029691838083CE0101960E949107F6
:10400000CE0101960E947F07F12CBE01615F7F4FB8
:10401000CE0101960E94B407F394EF14B0F7980113
:1040200024593F4F7901882309F422C248E050E027
:10403000BE01615F7F4FC8010E94A21A16C2D9015A
:104040008D919C910B9709F08ACDD801AB5BB74F4E
:104050002D913C911197A801420F531FFA01E2598B
:10406000FF4F60816901EFEFCE1ADE0A1196DC92F4
:10407000CE923E01FFE06F0E711C80E090E0B62C06
:10408000A72CC00ED11E7601E80EF91E7EE6E70EC3
:10409000F11CF701F080F301F1923F0101968830A5
:1040A000910589F7FA01E958FF4FF0803196E080D9
:1040B000255F3F4F2D933C93CE0101960E949107BF
:1040C000CE0101960E945C066B2D7A2DCE010196E1
:1040D0000E94570740E06F2DCE0101960E94F9061D
:1040E000F12CFE1409F4E1C1CE0101960E943B07B8
:1040F0008F8B41E050E0BE01695E7F4FC8010E9496
:10410000A21AF394EECFD9018D919C910B9709F0EF
:1041100026CDD801AB5BB74F2D913C911197A801EB
:10412000420F531FFA01E259FF4F60816901EFEF1F
:10413000CE1ADE0A1196DC92CE923E01FFE06F0E9F
:10414000711C80E090E0B62CA72CC00ED11E760129
:10415000E80EF91E7EE6E70EF11CF701F080F30190
:10416000F1923F0101968830910589F7FA01E958EB
:10417000FF4FF08031964081255F3F4F2D933C9358
:10418000CE010196498F0E949107CE0101960E94AF
:104190005C066B2D7A2DCE0101960E945707498D42
:1041A0006F2DCE0101960E94F9067FC1D9018D9134
:1041B0009C91029709F0D3CCF801EB5BF74F80811B
:1041C00091819801280F391FD901A259BF4F6C91D5
:1041D0001196EC900296918380834E2D88E79DE0A6
:1041E0000E94D703F12C88E79DE00E94B602892B3C
:1041F00079F088E79DE00E94BE02898341E050E0AB
:10420000BE016F5F7F4FC8010E94A21AF394EBCFEB
:10421000F801E459FF4FFE1409F44AC181E02AC1B4
:10422000F90180819181892B09F499CC6801FBEB1C
:10423000CF1AF7EFDF0AD6018D919C911197F80103
:10424000E80FF91FE259FF4F608101968D939C930F
:1042500088E79DE00E945703B12C2B2D30E0F70139
:104260008081918101972817390798F4F6018081A0
:104270009181F801E80FF91FE259FF4F6081019623
:10428000D6018D939C9388E79DE00E940E03B39422
:10429000E4CF88E79DE00E94DD0307C1F801EB5BF6
:1042A000F74F80819181D801A80FB91FA259BF4F44
:1042B0002C910196918380838CB5211102C080627C
:1042C00001C08F7D8CBDF1C0F90180819181019782
:1042D00009F045CCF801EB5BF74F80819181D80163
:1042E000A80FB91FA259BF4F2C91019691838083CB
:1042F0009CB5822F83709C7F892B8CBD8DB522FB52
:10430000222720F98E7F822B8DBD18C0D9018D9177
:104310009C91019709F023CCF801EB5BF74F80816A
:104320009181D801A80FB91FA259BF4F2C910196B6
:10433000918380838CB5837F282B2CBDE95DF7406A
:10434000B7C0F90180819181019709F008CCF8018B
:10435000EB5BF74F80819181D801A80FB91FA2595B
:10436000BF4F2C910196918380832EBD00000DB428
:1043700007FEFDCF8EB5898341E050E0BE016F5F3F
:104380007F4F85C0D9018D919C91892B09F0E7CB96
:10439000F801EA59FF4F40815181B8016E5F7F4FAC
:1043A00076C0F90180819181892B09F0D8CB809169
:1043B000470E9091480EA091490EB0914A0E898304
:1043C0009A83AB83BC8344E050E0D8CFD9018D9170
:1043D0009C91049709F0C3CBD801AB5BB74F2D91EB
:1043E0003C911197F901E259FF4FE00FF11F6081F5
:1043F0007181828193812C5F3F4F2D933C930E946A
:10440000900853C0F90180819181892B09F0A7CBD5
:104410000E9462089A83898342E050E0AFCFD901BD
:104420008D919C91029709F09ACBD801AB5BB74F65
:104430002D913C911197F901E259FF4FE00FF11FC7
:10444000808191812E5F3F4F2D933C939C012250A0
:104450003109F801E459FF4F7F012630310540F45E
:104460000E94590880E00E942209D7011C9221C0B5
:1044700085E0F70180831DC0D9018D919C91892B26
:1044800009F06DCB44E050E0B80168597F4FC80196
:104490000E94A21A0AC0F90180819181892B09F03A
:1044A0005ECB61E0C8010E94CB1BF801E459FF4FCD
:1044B00010827801FCE6EF0EF11CD7016C91C80167
:1044C0000E941B1DF70180810FB6F8949EBE0FBE9F
:1044D0008DBE69960FB6F894DEBF0FBECDBFDF91DB
:1044E000CF911F910F91FF90EF90DF90CF90BF90F1
:1044F000AF909F908F907F906F900895CF93DF93B0
:104500001F92CDB7DEB788E79DE049830E9457032D
:104510004981642F88E79DE00E940E0388E79DE0B3
:104520000F90DF91CF910C94DD03EF92FF920F93E8
:104530001F93CF93DF931F921F92CDB7DEB7122F39
:1045400088E79DE049835A830E9457034981042FDD
:10455000E42E5A81F52E8E2D801B811740F4F70131
:1045600061917F0188E79DE00E940E03F4CF88E708
:104570009DE00F900F90DF91CF911F910F91FF90D1
:10458000EF900C94DD03CF93DF93EC0182EA9EE081
:104590000E94762F181619064CF482EA9EE00E94BB
:1045A0008F2F682FCE010E94F51AF0CFDF91CF91A7
:1045B00008952091570E3091580E8091550E90918C
:1045C000560E2817390721F40E949E0981E00895AC
:1045D00080E00895CF93DF93D82FC62F811116C0A6
:1045E000613041F028F0623009F058C060E009C045
:1045F00061E007C060E084E00E94172F61E085E081
:104600002BC084E00E94172F60E0F9CF813009F0C1
:1046100045C0623099F050F4662371F06130F1F5D5
:1046200060E086E00E94172F61E033C06330F9F04C
:104630006430A1F560E029C061E027C060E086E059
:104640000E94172F60E087E00E94172F61E088E04A
:104650000E94172F60E089E00E94172F8BE1D89FFE
:10466000F0011124E35AF14FC18380E018C060E0EB
:1046700086E00E94172F60E087E00E94172F60E01D
:1046800088E00E94172F61E0E6CF86E00E94172F96
:1046900060E087E00E94172F60E0D9CF85E0DF91CE
:1046A000CF9108959093960E8093950E60935D0E32
:1046B0004093780E60E078EB88E097E40E949008E1
:1046C00061E084E00E94DE2E61E085E00E94DE2E43
:1046D00061E086E00E94DE2E61E087E00E94DE2E2F
:1046E00061E088E00E94DE2E61E089E00E94DE2E1B
:1046F00083E00E94590860915E0E80E00E94EA22E9
:104700006091790E81E00E94EA2220E032E030934D
:10471000730E2093720E80E090E0A0E0B4E48093EA
:10472000740E9093750EA093760EB093770E41E0C1
:1047300040936D0E30938E0E20938D0E80938F0ECE
:104740009093900EA093910EB093920E4093880E8A
:1047500008950F931F93CF93DF93AB019BE1899F44
:10476000E0011124C35AD14F9B01235331092A3947
:104770003340B0F09B81911110C09A819F5F9A8362
:104780006981662321F061500E94EA2203C081E022
:104790008093930E83E08B8337C091509B8334C00A
:1047A0008091940E882309F18D899E89DB01A81BD5
:1047B000B90B9D010E94253809891A892B893C89EA
:1047C000060F171F281F391F098B1A8B2B8B3C8B49
:1047D00088859985AA85BB85840F951FA11DB11D6C
:1047E00088879987AA87BB870FC08C819D81861790
:1047F000970718F47D836C8307C08E819F816817AB
:10480000790710F47F836E83DF91CF911F910F9111
:10481000089580E00C94A92381E00C94A9232F92A1
:104820003F924F925F926F927F928F929F92AF9240
:10483000BF92CF92DF92EF92FF920F931F93CF938D
:10484000DF93CDB7DEB764970FB6F894DEBF0FBE27
:10485000CDBF29013A01E986FA860B871C8716012C
:10486000BA8AA98A0E94393720E030E04AE754E446
:104870000E94AA359B01AC010E942F356B017C017F
:1048800020E030E0A9010E94353720E030E040E030
:104890005FE387FD05C0C701B6010E942F3504C044
:1048A000C701B6010E942E350E9412360E9445367D
:1048B00020E030E040E05FE30E9439376D837E8383
:1048C0008F839887A30192016D817E818F81988566
:1048D0000E94AA3529853A854B855C850E94393727
:1048E0000E9493350E9417368B010230110508F49F
:1048F0002DC3B80180E090E00E9443362D813E81B7
:104900004F8158850E94AA35A30192010E94393730
:1049100069837A838B839C83D1016D937D938D937F
:104920009C93139729853A854B855C850E94353782
:1049300018160CF408C3A301920169817A818B8156
:104940009C810E94AA356B017C019B01AC0160E057
:1049500070E080E090E40E94AA354B015C0120E009
:1049600030E0A9010E94353720E030E040E05FE30D
:1049700087FD05C0C501B4010E942F3504C0C501E3
:10498000B4010E942E350E9412360E944536A701BE
:1049900096010E9439379B01AC0160E070E080E035
:1049A00090E40E942E3520E030E0A9010E943537C6
:1049B00020E030E0A901181664F5C501B4010E9499
:1049C000353720E030E040E05FE387FD05C0C501FA
:1049D000B4010E942F3504C0C501B4010E942E35D8
:1049E0000E9412360E944536A70196010E9439376F
:1049F0009B01AC0160E070E080E090E40E942E3505
:104A00002DEC3CEC4CEC5DE30E94A63587FD9BC28F
:104A10002CC0C501B4010E94353720E030E040E0F1
:104A20005FE387FD05C0C501B4010E942F3504C0B6
:104A3000C501B4010E942E350E9412360E944536EF
:104A4000A70196010E9439379B01AC0160E070E03C
:104A500080E090E40E942E352DEC3CEC4CEC5DEBBC
:104A60000E94353718160CF46EC2A3019201C301DF
:104A7000B2010E942F359B01AC0169817A818B8143
:104A80009C810E94A63587FF61C129813A814B81B3
:104A90005C81C301B2010E94AA356D877E878F8732
:104AA000988B1C8A1B8AEB89FC89BF0180E090E00F
:104AB0000E9443364B015C019B01AC016D857E85F4
:104AC0008F8598890E942E3520E030E040E05FE33A
:104AD0000E94A63518163CF42B893C892F5F3F4F66
:104AE0003C8B2B8BE0CF29813A814B815C81C501C6
:104AF000B4010E9439379B01AC01C301B2010E948D
:104B00002E354B015C0120E030E0A9010E943537D1
:104B1000181624F0B7FAB094B7F8B094A501940130
:104B200069817A818B819C810E94AA3569837A830D
:104B30008B839C839B01AC0160E070E080E090E49B
:104B40000E94AA354B015C0120E030E0A9010E94DF
:104B5000353720E030E040E05FE387FD05C0C50168
:104B6000B4010E942F3504C0C501B4010E942E3546
:104B70000E9412360E94453629813A814B815C8120
:104B80000E9439379B01AC0160E070E080E090E466
:104B90000E942E3520E030E0A9010E94353720E048
:104BA00030E0A901181674F5C501B4010E9435372B
:104BB00020E030E040E05FE387FD05C0C501B401BF
:104BC0000E942F3504C0C501B4010E942E350E94F9
:104BD00012360E94453629813A814B815C810E94C0
:104BE00039379B01AC0160E070E080E090E40E9406
:104BF0002E352DEC3CEC4CEC5DE30E94A63587FF96
:104C00002FC0A1C1C501B4010E94353720E030E0BA
:104C100040E05FE387FD05C0C501B4010E942F3568
:104C200004C0C501B4010E942E350E9412360E94B4
:104C3000453629813A814B815C810E9439379B013D
:104C4000AC0160E070E080E090E40E942E352DEC35
:104C50003CEC4CEC5DEB0E94353718160CF473C13C
:104C600020E030E0A901C701B6010E94353720E0FD
:104C700030E040E05FE387FD05C0C701B6010E9458
:104C80002F3504C0C701B6010E942E350E9412368E
:104C90000E9445369B01AC01C701B6010E942E352A
:104CA00020E030E0A9010E94353720E030E0A90182
:104CB000181634F5C701B6010E94353720E030E000
:104CC00040E05FE387FD05C0C701B6010E942F35B4
:104CD00004C0C701B6010E942E350E9412360E9400
:104CE00045369B01AC01C701B6010E942E3527E174
:104CF00037EB41ED58E30E94A63587FF27C023C15B
:104D0000C701B6010E94353720E030E040E05FE3A4
:104D100087FD05C0C701B6010E942F3504C0C70139
:104D2000B6010E942E350E9412360E9445369B0124
:104D3000AC01C701B6010E942E3527E137EB41EDEA
:104D400058EB0E94353718160CF4FDC020E030E017
:104D500040E251E4C701B6010E94A63587FF76C044
:104D600020E030E0A901C701B6010E94353720E0FC
:104D700030E040E05FE387FD05C0C701B6010E9457
:104D80002F3504C0C701B6010E942E350E9412368D
:104D90000E9445369B01AC01C701B6010E942E3529
:104DA00020E030E0A9010E94353720E030E0A90181
:104DB000181634F5C701B6010E94353720E030E0FF
:104DC00040E05FE387FD05C0C701B6010E942F35B3
:104DD00004C0C701B6010E942E350E9412360E94FF
:104DE00045369B01AC01C701B6010E942E3527E173
:104DF00037EB41ED58E30E94A63587FF27C0A3C0DB
:104E0000C701B6010E94353720E030E040E05FE3A3
:104E100087FD05C0C701B6010E942F3504C0C70138
:104E2000B6010E942E350E9412360E9445369B0123
:104E3000AC01C701B6010E942E3527E137EB41EDE9
:104E400058EB0E94353718160CF47DC02D813E8139
:104E50004F815885C701B6010E9439376B017C012B
:104E600020E030E0A9010E94353720E030E040E04A
:104E70005FE387FD05C0C701B6010E942F3504C05E
:104E8000C701B6010E942E350E9412360E94453697
:104E90009B01AC01C701B6010E942E3520E030E035
:104EA000A9010E94353720E030E0A901181634F539
:104EB000C701B6010E94353720E030E040E05FE3F3
:104EC00087FD05C0C701B6010E942F3504C0C70188
:104ED000B6010E942E350E9412360E9445369B0173
:104EE000AC01C701B6010E942E3527E137EB41ED39
:104EF00058E30E94A63587FF26C033C0C701B6011C
:104F00000E94353720E030E040E05FE387FD05C0D8
:104F1000C701B6010E942F3504C0C701B6010E9427
:104F20002E350E9412360E9445369B01AC01C70106
:104F3000B6010E942E3527E137EB41ED58EB0E9478
:104F40003537181674F001501109CFCC20E030E04D
:104F500040E05FE36D817E818F8198850E942F35CF
:104F6000ADCCA989BA890D931C9364960FB6F894B9
:104F7000DEBF0FBECDBFDF91CF911F910F91FF908C
:104F8000EF90DF90CF90BF90AF909F908F907F90E9
:104F90006F905F904F903F902F90089510925E0E0B
:104FA0001092790E08952F923F924F925F926F92D6
:104FB0007F928F929F92AF92BF92CF92DF92EF92A9
:104FC000FF920F931F93CF93DF93CDB7DEB7C65EEB
:104FD000D1090FB6F894DEBF0FBECDBFC052DF4F70
:104FE00059834883C05ED040CE51DF4F0883198378
:104FF0002A833B83C25ED04026013701CD52DF4F6A
:10500000A882C35DD0408092940EAA2031F1A7E916
:10501000AA2EAEE0BA2EAE0149535F4F6A01E12CD1
:1050200010E4F12E0CE916E4A30192010E940F2472
:10503000C953DF4F688179818A819B81C75CD040E9
:105040009B01AC010E942F35C953DF4F68837983E0
:105050008A839B83C75CD04017C020E030E040E0EB
:105060005FE30E943937E7E9AE2EEEE0BE2EDE01A7
:10507000A953BF4F6D01E12C10E4F12E0CE117E4B0
:10508000A30192010E940F248091970E9091980E97
:10509000880F991F9093980E8093970EC953DF4FF6
:1050A000688179818A819B81C75CD0400E94900889
:1050B000B0915E0EC252DF4FB883CE5DD04012E099
:1050C000C353DF4F1883CD5CD04062E080E00E9484
:1050D000EA22E091790EC152DF4FE883CF5DD040E4
:1050E00084E0C253DF4F8883CE5CD04064E081E02F
:1050F0000E94EA2280915D0EFE01E553FF4F8083FE
:105100009091780E91832091970E3091980ECD5208
:10511000DF4F4881C35DD040442309F13093560EE0
:105120002093550EF093530EE093520E1093500EB1
:1051300010924F0E2AE13AE030934E0E20934D0E1E
:105140000E94EF0982E39AE090934E0E80934D0EF9
:1051500089EA93E290934C0E80934B0E06C03695ED
:1051600027953093560E2093550EE090950EF090B3
:10517000960EF701E859FF4F20E030EC4FE754E47A
:1051800060817181828193810E94AA352B013C014B
:105190008E0105541F4F1E0155E1250E311CCE0115
:1051A000825A9F4FDC011896C153DF4FB983A88301
:1051B000CF5CD040F8013C96CC52DF4FF983E883B6
:1051C000C45DD040C652DF4F8883CA5DD040CA510B
:1051D000DF4F9883C65ED04097012B59374FCF528F
:1051E000DF4F39832883C15DD040A701445A574F10
:1051F000C852DF4F59834883C85DD04080915D0E0F
:10520000CF52DF4FE881F981C15DD040C652DF4FF8
:10521000A881CA5DD040CA51DF4FB881C65ED04078
:105220009DE501900D929A95E1F7882369F0813010
:10523000B1F4C153DF4FE881F981CF5CD040208DBC
:10524000318D428D538D0EC0C153DF4FA881B9817E
:10525000CF5CD0402D913D914D915C9103C020E0F9
:1052600030E0A901CF52DF4FE881F981C15DD04024
:10527000DE0111969DE501900D929A95E1F7882344
:1052800041F0813061F4F101C0A0D1A0E2A0F3A00F
:1052900009C0D101CD90DD90ED90FC9003C0C12CF0
:1052A000D12C760160E876E988E19BE40E94AA357A
:1052B0004B015C0120E836E948E15BE4C701B60137
:1052C0000E9439379B01AC010E942F352BED3FE046
:1052D00049E450E40E943937C852DF4FA881B981B0
:1052E000C85DD0402D913D914D915C910E94393720
:1052F0006B017C01A5019401C501B4010E943937FD
:105300004B015C01A7019601C701B6010E94393724
:105310009B01AC01C501B4010E942F350E94A0374A
:105320009B01AC01C301B2010E943937F8016193BE
:105330007193819391938F01F4E02F0E311CC1532F
:10534000DF4F28813981CF5CD0402C5F3F4FC15364
:10535000DF4F39832883CF5CD040CC52DF4F488168
:105360005981C45DD0400417150709F047CF10924A
:10537000930ECF52DF4F19821882C15DD040CF52B9
:10538000DF4F88819981C15DD040C052DF4FA88135
:10539000B981C05ED0408A179B0791F4C252DF4F9B
:1053A0006881CE5DD04080E00E94EA22C152DF4F8A
:1053B0006881CF5DD04081E00E94EA2280E0C8C2CF
:1053C0008091940E10925F0E1092600E81110BC0AE
:1053D000EFEFF3E0F093640EE093630E1092620E31
:1053E0001092610E10C01092650E1092660E10920F
:1053F000670E1092680E10926E0E10926F0E109241
:10540000700E1092710E10927A0E10927B0E8823FD
:1054100089F01092800E1092810E1092820E1092DE
:10542000830E1092890E10928A0E10928B0E10929B
:105430008C0E0AC08FEF93E090937F0E80937E0EC8
:1054400010927D0E10927C0ECD52DF4F9881C35D7D
:10545000D040992309F440C00E947F090E94D922BC
:105460008823E1F30E940C2DCC52DF4F68837983AF
:105470008A839B83C45DD040A091940EC852DF4FB5
:10548000A883C85DD0402091970E3091980EFE0100
:10549000E353FF4FC153DF4FF983E883CF5CD04024
:1054A0000DE51EE0AE014F5F5F4F2A018091930E24
:1054B00081113FC0CE01825A9F4F1C01612C712C7B
:1054C000C901A0E0B0E0C652DF4F88839983AA8368
:1054D000BB83CA5DD040ACC080915D0E0E94090ABA
:1054E000A2E3BAE0B0934E0EA0934D0EE9E0F4E2D1
:1054F000F0934C0EE0934B0E0E947F090E94D9223C
:105500008823E1F38091780E0E94090A22E33AE0B1
:1055100030934E0E20934D0E4CE054E250934C0EBF
:1055200040934B0E0E947F090E94D9228823E1F309
:1055300099CF8091950E9091960E0E94A90B20E034
:1055400040E050E0BA018091950E9091960E0E9435
:105550007A0E80E2FDC1C652DF4F688179818A816F
:105560009B81CA5DD0400E9443366B017C01D8010B
:1055700051966D917D918D919C9154970E944336E7
:105580009B01AC010E942F35A70196010E94AA350C
:105590000E94A037F201608371838283938320E0AD
:1055A00030E040E852E40E9439379B01AC010E9490
:1055B0002F3523EF34E045EB5FE30E9439370E943B
:1055C0001736D1016D937C93F301E35AF14F828139
:1055D0008823B9F1F301E35AF14F8281882309F45A
:1055E000B3C08195C153DF4FA881B981CF5CD04052
:1055F0008C93B1E0B08BC153DF4FE881F981CF5C70
:10560000D0403196C153DF4FF983E883CF5CD0405F
:10561000FBE16F0E711C055E1F4F22E0220E311C54
:1056200034E0430E511C46E36416710409F496C03D
:10563000C852DF4F5881C85DD040552309F45AC085
:105640008ACF80898111C6CFF80180849184A28499
:10565000B3846485758586859785680D791D8A1D57
:105660009B1D0E9443362AE037ED43E25CE30E9433
:105670003937A70196010E94AA356B017C0124EA03
:1056800030E74DE75FE3D80157966D917D918D919D
:105690009C915A970E9439379B01AC01C701B60112
:1056A0000E942F356B017C01F801678B708F818F11
:1056B000928F20E030E0A9010E94353720E030E0F1
:1056C00040E05FE387FD05C0C701B6010E942F35AA
:1056D00004C0C701B6010E942E350E941236D801BF
:1056E00056967C936E935597F80184869586A68688
:1056F000B78670CFD80114966D917C911597169648
:105700008D919C911797681B790B96E0660F771F18
:105710009A95E1F7F1017183608380E090E00E9447
:10572000433623EF34E045EB5FE30E94AA3520E0E7
:1057300030E040E05CE30E943937D2016D937D9305
:105740008D939C93139746CF8181C153DF4FA881DE
:10575000B981CF5CD0408C93108A4DCF0091950ECB
:105760001091960EF801EC59F74F8081882309F4C7
:1057700054C080915F0E811150C03C97C080D18091
:10578000E280F38020E030E0A901C701B6010E9469
:10579000353718160CF041C0C353DF4F8881CD5CFC
:1057A000D040EBEBF0E0EC0FFD1F24E08202E00DB7
:1057B000F11D1124208131814281538169817A81D7
:1057C0008B819C810E9439372B013C01A7019601F6
:1057D0000E942E354B015C0120E030E0A9010E94BF
:1057E0003537181624F0B7FAB094B7F8B09420E023
:1057F00030E040E05FE3F801EF54F74F60817181E2
:10580000828193810E9439379B01AC01C501B401AB
:105810000E94353718160CF476C00EE51EE0CE0156
:10582000825A9F4F6C01E12CF12CD6018D919C91F5
:10583000893C9C4030F4F80160816F5F8E2D0E949E
:10584000EA2242E050E0B6018091950E9091960ECA
:105850000E94A21A6DEC70E06C0F7D1F6E0D7F1D13
:1058600041E050E08091950E9091960E0E94A21A10
:10587000FFEFEF1AFF0A22E0C20ED11C055E1F4F98
:1058800032E0E316F10489F682EA9EE00E94762F68
:10589000181619060CF482CD0E940C2DCC52DF4F45
:1058A000288139814A815B81C45DD040621B730BC2
:1058B000840B950B0E9443366B017C0120E030E0A5
:1058C0004AE754E4CE51DF4F688179818A819B8118
:1058D000C25ED0400E9439379B01AC01C701B601BE
:1058E0000E94A63587FDD8CFCF52DF4F488159811E
:1058F000C15DD0404F5F5F4FCF52DF4F5983488328
:10590000C15DD0403CCDF801E05AF74F2081318194
:1059100042815381C301B2010E943937A701960128
:105920000E94AA356B017C0120E030E040E85FE393
:105930000E94A63587FF06C0C12CD12C80E8E82E36
:105940008FE3F82EB701A601C8010E94FE0E65CFB5
:10595000CA51DF4F0FB6F894DEBF0FBECDBFDF9147
:10596000CF911F910F91FF90EF90DF90CF90BF905C
:10597000AF909F908F907F906F905F904F903F90EF
:105980002F9008951F920F920FB60F9211242F930C
:105990003F938F939F93AF93BF9380919A0E909173
:1059A0009B0EA0919C0EB0919D0E3091990E23E01C
:1059B000230F2D3720F40196A11DB11D05C026E847
:1059C000230F0296A11DB11D2093990E80939A0E6C
:1059D00090939B0EA0939C0EB0939D0E80919E0E73
:1059E00090919F0EA091A00EB091A10E0196A11DC5
:1059F000B11D80939E0E90939F0EA093A00EB09326
:105A0000A10EBF91AF919F918F913F912F910F90D8
:105A10000FBE0F901F9018953FB7F89480919E0E7F
:105A200090919F0EA091A00EB091A10E26B5A89BBB
:105A300005C02F3F19F00196A11DB11D3FBF66277C
:105A4000782F892F9A2F620F711D811D911D42E0C1
:105A5000660F771F881F991F4A95D1F70895CF9237
:105A6000DF92EF92FF92CF93DF936B017C010E9454
:105A70000C2DEB01C114D104E104F10489F00E9462
:105A80002D350E940C2D6C1B7D0B683E734090F3EE
:105A900081E0C81AD108E108F108C851DC4FEACF0B
:105AA000DF91CF91FF90EF90DF90CF9008958230FB
:105AB000910538F0880F991F880F991F0597019756
:105AC000F1F70895789484B5826084BD84B58160CF
:105AD00084BD85B5826085BD85B5816085BDEEE6F6
